{"contracts/StakeETH.sol":{"IndirectAaveEthStaking":{"abi":[{"inputs":[{"internalType":"address","name":"_weth","type":"address"},{"internalType":"address","name":"_aavePool","type":"address"},{"internalType":"address","name":"_aWETHAddress","type":"address"}],"stateMutability":"nonpayable","type":"constructor"},{"inputs":[{"internalType":"address","name":"owner","type":"address"}],"name":"OwnableInvalidOwner","type":"error"},{"inputs":[{"internalType":"address","name":"account","type":"address"}],"name":"OwnableUnauthorizedAccount","type":"error"},{"inputs":[],"name":"ReentrancyGuardReentrantCall","type":"error"},{"anonymous":false,"inputs":[{"indexed":true,"internalType":"address","name":"previousOwner","type":"address"},{"indexed":true,"internalType":"address","name":"newOwner","type":"address"}],"name":"OwnershipTransferred","type":"event"},{"anonymous":false,"inputs":[{"indexed":true,"internalType":"address","name":"user","type":"address"},{"indexed":false,"internalType":"uint256","name":"amount","type":"uint256"}],"name":"Staked","type":"event"},{"anonymous":false,"inputs":[{"indexed":true,"internalType":"address","name":"user","type":"address"},{"indexed":false,"internalType":"uint256","name":"amount","type":"uint256"}],"name":"Withdrawn","type":"event"},{"inputs":[],"name":"WETH","outputs":[{"internalType":"contract IWETH","name":"","type":"address"}],"stateMutability":"view","type":"function"},{"inputs":[],"name":"aWETHAddress","outputs":[{"internalType":"address","name":"","type":"address"}],"stateMutability":"view","type":"function"},{"inputs":[],"name":"aavePool","outputs":[{"internalType":"contract IAavePool","name":"","type":"address"}],"stateMutability":"view","type":"function"},{"inputs":[{"internalType":"address","name":"account","type":"address"}],"name":"balanceOf","outputs":[{"internalType":"uint256","name":"","type":"uint256"}],"stateMutability":"view","type":"function"},{"inputs":[],"name":"owner","outputs":[{"internalType":"address","name":"","type":"address"}],"stateMutability":"view","type":"function"},{"inputs":[],"name":"renounceOwnership","outputs":[],"stateMutability":"nonpayable","type":"function"},{"inputs":[],"name":"stake","outputs":[],"stateMutability":"payable","type":"function"},{"inputs":[],"name":"totalSupply","outputs":[{"internalType":"uint256","name":"","type":"uint256"}],"stateMutability":"view","type":"function"},{"inputs":[{"internalType":"address","name":"newOwner","type":"address"}],"name":"transferOwnership","outputs":[],"stateMutability":"nonpayable","type":"function"},{"inputs":[{"internalType":"uint256","name":"amount","type":"uint256"}],"name":"withdraw","outputs":[],"stateMutability":"nonpayable","type":"function"},{"stateMutability":"payable","type":"receive"}],"evm":{"bytecode":{"linkReferences":{},"object":"60e060405234801561001057600080fd5b5060405161149e38038061149e8339818101604052810190610032919061028a565b336001600081905550600073ffffffffffffffffffffffffffffffffffffffff168173ffffffffffffffffffffffffffffffffffffffff16036100ad5760006040517f1e4fbdf70000000000000000000000000000000000000000000000000000000081526004016100a491906102ec565b60405180910390fd5b6100bc8161016160201b60201c565b508273ffffffffffffffffffffffffffffffffffffffff1660808173ffffffffffffffffffffffffffffffffffffffff16815250508173ffffffffffffffffffffffffffffffffffffffff1660a08173ffffffffffffffffffffffffffffffffffffffff16815250508073ffffffffffffffffffffffffffffffffffffffff1660c08173ffffffffffffffffffffffffffffffffffffffff1681525050505050610307565b6000600160009054906101000a900473ffffffffffffffffffffffffffffffffffffffff16905081600160006101000a81548173ffffffffffffffffffffffffffffffffffffffff021916908373ffffffffffffffffffffffffffffffffffffffff1602179055508173ffffffffffffffffffffffffffffffffffffffff168173ffffffffffffffffffffffffffffffffffffffff167f8be0079c531659141344cd1fd0a4f28419497f9722a3daafe3b4186f6b6457e060405160405180910390a35050565b600080fd5b600073ffffffffffffffffffffffffffffffffffffffff82169050919050565b60006102578261022c565b9050919050565b6102678161024c565b811461027257600080fd5b50565b6000815190506102848161025e565b92915050565b6000806000606084860312156102a3576102a2610227565b5b60006102b186828701610275565b93505060206102c286828701610275565b92505060406102d386828701610275565b9150509250925092565b6102e68161024c565b82525050565b600060208201905061030160008301846102dd565b92915050565b60805160a05160c05161113061036e6000396000610860015260008181610370015281816106d301528181610756015261090b0152600081816103ac01528181610431015281816106160152818161069701528181610792015261092f01526111306000f3fe6080604052600436106100955760003560e01c8063715018a611610059578063715018a6146101675780638da5cb5b1461017e578063a03e4bc3146101a9578063ad5c4648146101d4578063f2fde38b146101ff5761009c565b806318160ddd146100a15780632e1a7d4d146100cc5780633a4b66f1146100f557806346620767146100ff57806370a082311461012a5761009c565b3661009c57005b600080fd5b3480156100ad57600080fd5b506100b6610228565b6040516100c39190610b95565b60405180910390f35b3480156100d857600080fd5b506100f360048036038101906100ee9190610be1565b610232565b005b6100fd61055a565b005b34801561010b57600080fd5b5061011461085e565b6040516101219190610c4f565b60405180910390f35b34801561013657600080fd5b50610151600480360381019061014c9190610c96565b610882565b60405161015e9190610b95565b60405180910390f35b34801561017357600080fd5b5061017c6108cb565b005b34801561018a57600080fd5b506101936108df565b6040516101a09190610c4f565b60405180910390f35b3480156101b557600080fd5b506101be610909565b6040516101cb9190610d22565b60405180910390f35b3480156101e057600080fd5b506101e961092d565b6040516101f69190610d5e565b60405180910390f35b34801561020b57600080fd5b5061022660048036038101906102219190610c96565b610951565b005b6000600354905090565b61023a6109d7565b6000811161027d576040517f08c379a000000000000000000000000000000000000000000000000000000000815260040161027490610dd6565b60405180910390fd5b80600260003373ffffffffffffffffffffffffffffffffffffffff1673ffffffffffffffffffffffffffffffffffffffff1681526020019081526020016000205410156102ff576040517f08c379a00000000000000000000000000000000000000000000000000000000081526004016102f690610e42565b60405180910390fd5b80600360008282546103119190610e91565b9250508190555080600260003373ffffffffffffffffffffffffffffffffffffffff1673ffffffffffffffffffffffffffffffffffffffff16815260200190815260200160002060008282546103679190610e91565b925050819055507f000000000000000000000000000000000000000000000000000000000000000073ffffffffffffffffffffffffffffffffffffffff166369328dec7f000000000000000000000000000000000000000000000000000000000000000083306040518463ffffffff1660e01b81526004016103eb93929190610ec5565b6020604051808303816000875af115801561040a573d6000803e3d6000fd5b505050506040513d601f19601f8201168201806040525081019061042e9190610f11565b507f000000000000000000000000000000000000000000000000000000000000000073ffffffffffffffffffffffffffffffffffffffff16632e1a7d4d826040518263ffffffff1660e01b81526004016104889190610b95565b600060405180830381600087803b1580156104a257600080fd5b505af11580156104b6573d6000803e3d6000fd5b505050503373ffffffffffffffffffffffffffffffffffffffff166108fc829081150290604051600060405180830381858888f19350505050158015610500573d6000803e3d6000fd5b503373ffffffffffffffffffffffffffffffffffffffff167f7084f5476618d8e60b11ef0d7d3f06914655adb8793e28ff7f018d4c76d505d5826040516105479190610b95565b60405180910390a2610557610a1d565b50565b6105626109d7565b600034116105a5576040517f08c379a000000000000000000000000000000000000000000000000000000000815260040161059c90610f8a565b60405180910390fd5b34600360008282546105b79190610faa565b9250508190555034600260003373ffffffffffffffffffffffffffffffffffffffff1673ffffffffffffffffffffffffffffffffffffffff168152602001908152602001600020600082825461060d9190610faa565b925050819055507f000000000000000000000000000000000000000000000000000000000000000073ffffffffffffffffffffffffffffffffffffffff1663d0e30db0346040518263ffffffff1660e01b81526004016000604051808303818588803b15801561067c57600080fd5b505af1158015610690573d6000803e3d6000fd5b50505050507f000000000000000000000000000000000000000000000000000000000000000073ffffffffffffffffffffffffffffffffffffffff1663095ea7b37f0000000000000000000000000000000000000000000000000000000000000000346040518363ffffffff1660e01b8152600401610710929190610fde565b6020604051808303816000875af115801561072f573d6000803e3d6000fd5b505050506040513d601f19601f82011682018060405250810190610753919061103f565b507f000000000000000000000000000000000000000000000000000000000000000073ffffffffffffffffffffffffffffffffffffffff1663617ba0377f0000000000000000000000000000000000000000000000000000000000000000343060006040518563ffffffff1660e01b81526004016107d494939291906110b5565b600060405180830381600087803b1580156107ee57600080fd5b505af1158015610802573d6000803e3d6000fd5b505050503373ffffffffffffffffffffffffffffffffffffffff167f9e71bc8eea02a63969f509818f2dafb9254532904319f9dbda79b67bd34a5f3d3460405161084c9190610b95565b60405180910390a261085c610a1d565b565b7f000000000000000000000000000000000000000000000000000000000000000081565b6000600260008373ffffffffffffffffffffffffffffffffffffffff1673ffffffffffffffffffffffffffffffffffffffff168152602001908152602001600020549050919050565b6108d3610a27565b6108dd6000610aae565b565b6000600160009054906101000a900473ffffffffffffffffffffffffffffffffffffffff16905090565b7f000000000000000000000000000000000000000000000000000000000000000081565b7f000000000000000000000000000000000000000000000000000000000000000081565b610959610a27565b600073ffffffffffffffffffffffffffffffffffffffff168173ffffffffffffffffffffffffffffffffffffffff16036109cb5760006040517f1e4fbdf70000000000000000000000000000000000000000000000000000000081526004016109c29190610c4f565b60405180910390fd5b6109d481610aae565b50565b600260005403610a13576040517f3ee5aeb500000000000000000000000000000000000000000000000000000000815260040160405180910390fd5b6002600081905550565b6001600081905550565b610a2f610b74565b73ffffffffffffffffffffffffffffffffffffffff16610a4d6108df565b73ffffffffffffffffffffffffffffffffffffffff1614610aac57610a70610b74565b6040517f118cdaa7000000000000000000000000000000000000000000000000000000008152600401610aa39190610c4f565b60405180910390fd5b565b6000600160009054906101000a900473ffffffffffffffffffffffffffffffffffffffff16905081600160006101000a81548173ffffffffffffffffffffffffffffffffffffffff021916908373ffffffffffffffffffffffffffffffffffffffff1602179055508173ffffffffffffffffffffffffffffffffffffffff168173ffffffffffffffffffffffffffffffffffffffff167f8be0079c531659141344cd1fd0a4f28419497f9722a3daafe3b4186f6b6457e060405160405180910390a35050565b600033905090565b6000819050919050565b610b8f81610b7c565b82525050565b6000602082019050610baa6000830184610b86565b92915050565b600080fd5b610bbe81610b7c565b8114610bc957600080fd5b50565b600081359050610bdb81610bb5565b92915050565b600060208284031215610bf757610bf6610bb0565b5b6000610c0584828501610bcc565b91505092915050565b600073ffffffffffffffffffffffffffffffffffffffff82169050919050565b6000610c3982610c0e565b9050919050565b610c4981610c2e565b82525050565b6000602082019050610c646000830184610c40565b92915050565b610c7381610c2e565b8114610c7e57600080fd5b50565b600081359050610c9081610c6a565b92915050565b600060208284031215610cac57610cab610bb0565b5b6000610cba84828501610c81565b91505092915050565b6000819050919050565b6000610ce8610ce3610cde84610c0e565b610cc3565b610c0e565b9050919050565b6000610cfa82610ccd565b9050919050565b6000610d0c82610cef565b9050919050565b610d1c81610d01565b82525050565b6000602082019050610d376000830184610d13565b92915050565b6000610d4882610cef565b9050919050565b610d5881610d3d565b82525050565b6000602082019050610d736000830184610d4f565b92915050565b600082825260208201905092915050565b7f43616e6e6f742077697468647261772030000000000000000000000000000000600082015250565b6000610dc0601183610d79565b9150610dcb82610d8a565b602082019050919050565b60006020820190508181036000830152610def81610db3565b9050919050565b7f4e6f7420656e6f7567682062616c616e63650000000000000000000000000000600082015250565b6000610e2c601283610d79565b9150610e3782610df6565b602082019050919050565b60006020820190508181036000830152610e5b81610e1f565b9050919050565b7f4e487b7100000000000000000000000000000000000000000000000000000000600052601160045260246000fd5b6000610e9c82610b7c565b9150610ea783610b7c565b9250828203905081811115610ebf57610ebe610e62565b5b92915050565b6000606082019050610eda6000830186610c40565b610ee76020830185610b86565b610ef46040830184610c40565b949350505050565b600081519050610f0b81610bb5565b92915050565b600060208284031215610f2757610f26610bb0565b5b6000610f3584828501610efc565b91505092915050565b7f43616e6e6f74207374616b652030000000000000000000000000000000000000600082015250565b6000610f74600e83610d79565b9150610f7f82610f3e565b602082019050919050565b60006020820190508181036000830152610fa381610f67565b9050919050565b6000610fb582610b7c565b9150610fc083610b7c565b9250828201905080821115610fd857610fd7610e62565b5b92915050565b6000604082019050610ff36000830185610c40565b6110006020830184610b86565b9392505050565b60008115159050919050565b61101c81611007565b811461102757600080fd5b50565b60008151905061103981611013565b92915050565b60006020828403121561105557611054610bb0565b5b60006110638482850161102a565b91505092915050565b6000819050919050565b600061ffff82169050919050565b600061109f61109a6110958461106c565b610cc3565b611076565b9050919050565b6110af81611084565b82525050565b60006080820190506110ca6000830187610c40565b6110d76020830186610b86565b6110e46040830185610c40565b6110f160608301846110a6565b9594505050505056fea2646970667358221220496de7e91907e85dbdc83df98b330951faf9ccf654761958fe181ee77074f76d64736f6c634300081a0033","opcodes":"PUSH1 0xE0 PUSH1 0x40 MSTORE CALLVALUE DUP1 ISZERO PUSH2 0x10 JUMPI PUSH1 0x0 DUP1 REVERT JUMPDEST POP PUSH1 0x40 MLOAD PUSH2 0x149E CODESIZE SUB DUP1 PUSH2 0x149E DUP4 CODECOPY DUP2 DUP2 ADD PUSH1 0x40 MSTORE DUP2 ADD SWAP1 PUSH2 0x32 SWAP2 SWAP1 PUSH2 0x28A JUMP JUMPDEST CALLER PUSH1 0x1 PUSH1 0x0 DUP2 SWAP1 SSTORE POP PUSH1 0x0 PUSH20 0xFFFFFFFFFFFFFFFFFFFFFFFFFFFFFFFFFFFFFFFF AND DUP2 PUSH20 0xFFFFFFFFFFFFFFFFFFFFFFFFFFFFFFFFFFFFFFFF AND SUB PUSH2 0xAD JUMPI PUSH1 0x0 PUSH1 0x40 MLOAD PUSH32 0x1E4FBDF700000000000000000000000000000000000000000000000000000000 DUP2 MSTORE PUSH1 0x4 ADD PUSH2 0xA4 SWAP2 SWAP1 PUSH2 0x2EC JUMP JUMPDEST PUSH1 0x40 MLOAD DUP1 SWAP2 SUB SWAP1 REVERT JUMPDEST PUSH2 0xBC DUP2 PUSH2 0x161 PUSH1 0x20 SHL PUSH1 0x20 SHR JUMP JUMPDEST POP DUP3 PUSH20 0xFFFFFFFFFFFFFFFFFFFFFFFFFFFFFFFFFFFFFFFF AND PUSH1 0x80 DUP2 PUSH20 0xFFFFFFFFFFFFFFFFFFFFFFFFFFFFFFFFFFFFFFFF AND DUP2 MSTORE POP POP DUP2 PUSH20 0xFFFFFFFFFFFFFFFFFFFFFFFFFFFFFFFFFFFFFFFF AND PUSH1 0xA0 DUP2 PUSH20 0xFFFFFFFFFFFFFFFFFFFFFFFFFFFFFFFFFFFFFFFF AND DUP2 MSTORE POP POP DUP1 PUSH20 0xFFFFFFFFFFFFFFFFFFFFFFFFFFFFFFFFFFFFFFFF AND PUSH1 0xC0 DUP2 PUSH20 0xFFFFFFFFFFFFFFFFFFFFFFFFFFFFFFFFFFFFFFFF AND DUP2 MSTORE POP POP POP POP POP PUSH2 0x307 JUMP JUMPDEST PUSH1 0x0 PUSH1 0x1 PUSH1 0x0 SWAP1 SLOAD SWAP1 PUSH2 0x100 EXP SWAP1 DIV PUSH20 0xFFFFFFFFFFFFFFFFFFFFFFFFFFFFFFFFFFFFFFFF AND SWAP1 POP DUP2 PUSH1 0x1 PUSH1 0x0 PUSH2 0x100 EXP DUP2 SLOAD DUP2 PUSH20 0xFFFFFFFFFFFFFFFFFFFFFFFFFFFFFFFFFFFFFFFF MUL NOT AND SWAP1 DUP4 PUSH20 0xFFFFFFFFFFFFFFFFFFFFFFFFFFFFFFFFFFFFFFFF AND MUL OR SWAP1 SSTORE POP DUP2 PUSH20 0xFFFFFFFFFFFFFFFFFFFFFFFFFFFFFFFFFFFFFFFF AND DUP2 PUSH20 0xFFFFFFFFFFFFFFFFFFFFFFFFFFFFFFFFFFFFFFFF AND PUSH32 0x8BE0079C531659141344CD1FD0A4F28419497F9722A3DAAFE3B4186F6B6457E0 PUSH1 0x40 MLOAD PUSH1 0x40 MLOAD DUP1 SWAP2 SUB SWAP1 LOG3 POP POP JUMP JUMPDEST PUSH1 0x0 DUP1 REVERT JUMPDEST PUSH1 0x0 PUSH20 0xFFFFFFFFFFFFFFFFFFFFFFFFFFFFFFFFFFFFFFFF DUP3 AND SWAP1 POP SWAP2 SWAP1 POP JUMP JUMPDEST PUSH1 0x0 PUSH2 0x257 DUP3 PUSH2 0x22C JUMP JUMPDEST SWAP1 POP SWAP2 SWAP1 POP JUMP JUMPDEST PUSH2 0x267 DUP2 PUSH2 0x24C JUMP JUMPDEST DUP2 EQ PUSH2 0x272 JUMPI PUSH1 0x0 DUP1 REVERT JUMPDEST POP JUMP JUMPDEST PUSH1 0x0 DUP2 MLOAD SWAP1 POP PUSH2 0x284 DUP2 PUSH2 0x25E JUMP JUMPDEST SWAP3 SWAP2 POP POP JUMP JUMPDEST PUSH1 0x0 DUP1 PUSH1 0x0 PUSH1 0x60 DUP5 DUP7 SUB SLT ISZERO PUSH2 0x2A3 JUMPI PUSH2 0x2A2 PUSH2 0x227 JUMP JUMPDEST JUMPDEST PUSH1 0x0 PUSH2 0x2B1 DUP7 DUP3 DUP8 ADD PUSH2 0x275 JUMP JUMPDEST SWAP4 POP POP PUSH1 0x20 PUSH2 0x2C2 DUP7 DUP3 DUP8 ADD PUSH2 0x275 JUMP JUMPDEST SWAP3 POP POP PUSH1 0x40 PUSH2 0x2D3 DUP7 DUP3 DUP8 ADD PUSH2 0x275 JUMP JUMPDEST SWAP2 POP POP SWAP3 POP SWAP3 POP SWAP3 JUMP JUMPDEST PUSH2 0x2E6 DUP2 PUSH2 0x24C JUMP JUMPDEST DUP3 MSTORE POP POP JUMP JUMPDEST PUSH1 0x0 PUSH1 0x20 DUP3 ADD SWAP1 POP PUSH2 0x301 PUSH1 0x0 DUP4 ADD DUP5 PUSH2 0x2DD JUMP JUMPDEST SWAP3 SWAP2 POP POP JUMP JUMPDEST PUSH1 0x80 MLOAD PUSH1 0xA0 MLOAD PUSH1 0xC0 MLOAD PUSH2 0x1130 PUSH2 0x36E PUSH1 0x0 CODECOPY PUSH1 0x0 PUSH2 0x860 ADD MSTORE PUSH1 0x0 DUP2 DUP2 PUSH2 0x370 ADD MSTORE DUP2 DUP2 PUSH2 0x6D3 ADD MSTORE DUP2 DUP2 PUSH2 0x756 ADD MSTORE PUSH2 0x90B ADD MSTORE PUSH1 0x0 DUP2 DUP2 PUSH2 0x3AC ADD MSTORE DUP2 DUP2 PUSH2 0x431 ADD MSTORE DUP2 DUP2 PUSH2 0x616 ADD MSTORE DUP2 DUP2 PUSH2 0x697 ADD MSTORE DUP2 DUP2 PUSH2 0x792 ADD MSTORE PUSH2 0x92F ADD MSTORE PUSH2 0x1130 PUSH1 0x0 RETURN INVALID PUSH1 0x80 PUSH1 0x40 MSTORE PUSH1 0x4 CALLDATASIZE LT PUSH2 0x95 JUMPI PUSH1 0x0 CALLDATALOAD PUSH1 0xE0 SHR DUP1 PUSH4 0x715018A6 GT PUSH2 0x59 JUMPI DUP1 PUSH4 0x715018A6 EQ PUSH2 0x167 JUMPI DUP1 PUSH4 0x8DA5CB5B EQ PUSH2 0x17E JUMPI DUP1 PUSH4 0xA03E4BC3 EQ PUSH2 0x1A9 JUMPI DUP1 PUSH4 0xAD5C4648 EQ PUSH2 0x1D4 JUMPI DUP1 PUSH4 0xF2FDE38B EQ PUSH2 0x1FF JUMPI PUSH2 0x9C JUMP JUMPDEST DUP1 PUSH4 0x18160DDD EQ PUSH2 0xA1 JUMPI DUP1 PUSH4 0x2E1A7D4D EQ PUSH2 0xCC JUMPI DUP1 PUSH4 0x3A4B66F1 EQ PUSH2 0xF5 JUMPI DUP1 PUSH4 0x46620767 EQ PUSH2 0xFF JUMPI DUP1 PUSH4 0x70A08231 EQ PUSH2 0x12A JUMPI PUSH2 0x9C JUMP JUMPDEST CALLDATASIZE PUSH2 0x9C JUMPI STOP JUMPDEST PUSH1 0x0 DUP1 REVERT JUMPDEST CALLVALUE DUP1 ISZERO PUSH2 0xAD JUMPI PUSH1 0x0 DUP1 REVERT JUMPDEST POP PUSH2 0xB6 PUSH2 0x228 JUMP JUMPDEST PUSH1 0x40 MLOAD PUSH2 0xC3 SWAP2 SWAP1 PUSH2 0xB95 JUMP JUMPDEST PUSH1 0x40 MLOAD DUP1 SWAP2 SUB SWAP1 RETURN JUMPDEST CALLVALUE DUP1 ISZERO PUSH2 0xD8 JUMPI PUSH1 0x0 DUP1 REVERT JUMPDEST POP PUSH2 0xF3 PUSH1 0x4 DUP1 CALLDATASIZE SUB DUP2 ADD SWAP1 PUSH2 0xEE SWAP2 SWAP1 PUSH2 0xBE1 JUMP JUMPDEST PUSH2 0x232 JUMP JUMPDEST STOP JUMPDEST PUSH2 0xFD PUSH2 0x55A JUMP JUMPDEST STOP JUMPDEST CALLVALUE DUP1 ISZERO PUSH2 0x10B JUMPI PUSH1 0x0 DUP1 REVERT JUMPDEST POP PUSH2 0x114 PUSH2 0x85E JUMP JUMPDEST PUSH1 0x40 MLOAD PUSH2 0x121 SWAP2 SWAP1 PUSH2 0xC4F JUMP JUMPDEST PUSH1 0x40 MLOAD DUP1 SWAP2 SUB SWAP1 RETURN JUMPDEST CALLVALUE DUP1 ISZERO PUSH2 0x136 JUMPI PUSH1 0x0 DUP1 REVERT JUMPDEST POP PUSH2 0x151 PUSH1 0x4 DUP1 CALLDATASIZE SUB DUP2 ADD SWAP1 PUSH2 0x14C SWAP2 SWAP1 PUSH2 0xC96 JUMP JUMPDEST PUSH2 0x882 JUMP JUMPDEST PUSH1 0x40 MLOAD PUSH2 0x15E SWAP2 SWAP1 PUSH2 0xB95 JUMP JUMPDEST PUSH1 0x40 MLOAD DUP1 SWAP2 SUB SWAP1 RETURN JUMPDEST CALLVALUE DUP1 ISZERO PUSH2 0x173 JUMPI PUSH1 0x0 DUP1 REVERT JUMPDEST POP PUSH2 0x17C PUSH2 0x8CB JUMP JUMPDEST STOP JUMPDEST CALLVALUE DUP1 ISZERO PUSH2 0x18A JUMPI PUSH1 0x0 DUP1 REVERT JUMPDEST POP PUSH2 0x193 PUSH2 0x8DF JUMP JUMPDEST PUSH1 0x40 MLOAD PUSH2 0x1A0 SWAP2 SWAP1 PUSH2 0xC4F JUMP JUMPDEST PUSH1 0x40 MLOAD DUP1 SWAP2 SUB SWAP1 RETURN JUMPDEST CALLVALUE DUP1 ISZERO PUSH2 0x1B5 JUMPI PUSH1 0x0 DUP1 REVERT JUMPDEST POP PUSH2 0x1BE PUSH2 0x909 JUMP JUMPDEST PUSH1 0x40 MLOAD PUSH2 0x1CB SWAP2 SWAP1 PUSH2 0xD22 JUMP JUMPDEST PUSH1 0x40 MLOAD DUP1 SWAP2 SUB SWAP1 RETURN JUMPDEST CALLVALUE DUP1 ISZERO PUSH2 0x1E0 JUMPI PUSH1 0x0 DUP1 REVERT JUMPDEST POP PUSH2 0x1E9 PUSH2 0x92D JUMP JUMPDEST PUSH1 0x40 MLOAD PUSH2 0x1F6 SWAP2 SWAP1 PUSH2 0xD5E JUMP JUMPDEST PUSH1 0x40 MLOAD DUP1 SWAP2 SUB SWAP1 RETURN JUMPDEST CALLVALUE DUP1 ISZERO PUSH2 0x20B JUMPI PUSH1 0x0 DUP1 REVERT JUMPDEST POP PUSH2 0x226 PUSH1 0x4 DUP1 CALLDATASIZE SUB DUP2 ADD SWAP1 PUSH2 0x221 SWAP2 SWAP1 PUSH2 0xC96 JUMP JUMPDEST PUSH2 0x951 JUMP JUMPDEST STOP JUMPDEST PUSH1 0x0 PUSH1 0x3 SLOAD SWAP1 POP SWAP1 JUMP JUMPDEST PUSH2 0x23A PUSH2 0x9D7 JUMP JUMPDEST PUSH1 0x0 DUP2 GT PUSH2 0x27D JUMPI PUSH1 0x40 MLOAD PUSH32 0x8C379A000000000000000000000000000000000000000000000000000000000 DUP2 MSTORE PUSH1 0x4 ADD PUSH2 0x274 SWAP1 PUSH2 0xDD6 JUMP JUMPDEST PUSH1 0x40 MLOAD DUP1 SWAP2 SUB SWAP1 REVERT JUMPDEST DUP1 PUSH1 0x2 PUSH1 0x0 CALLER PUSH20 0xFFFFFFFFFFFFFFFFFFFFFFFFFFFFFFFFFFFFFFFF AND PUSH20 0xFFFFFFFFFFFFFFFFFFFFFFFFFFFFFFFFFFFFFFFF AND DUP2 MSTORE PUSH1 0x20 ADD SWAP1 DUP2 MSTORE PUSH1 0x20 ADD PUSH1 0x0 KECCAK256 SLOAD LT ISZERO PUSH2 0x2FF JUMPI PUSH1 0x40 MLOAD PUSH32 0x8C379A000000000000000000000000000000000000000000000000000000000 DUP2 MSTORE PUSH1 0x4 ADD PUSH2 0x2F6 SWAP1 PUSH2 0xE42 JUMP JUMPDEST PUSH1 0x40 MLOAD DUP1 SWAP2 SUB SWAP1 REVERT JUMPDEST DUP1 PUSH1 0x3 PUSH1 0x0 DUP3 DUP3 SLOAD PUSH2 0x311 SWAP2 SWAP1 PUSH2 0xE91 JUMP JUMPDEST SWAP3 POP POP DUP2 SWAP1 SSTORE POP DUP1 PUSH1 0x2 PUSH1 0x0 CALLER PUSH20 0xFFFFFFFFFFFFFFFFFFFFFFFFFFFFFFFFFFFFFFFF AND PUSH20 0xFFFFFFFFFFFFFFFFFFFFFFFFFFFFFFFFFFFFFFFF AND DUP2 MSTORE PUSH1 0x20 ADD SWAP1 DUP2 MSTORE PUSH1 0x20 ADD PUSH1 0x0 KECCAK256 PUSH1 0x0 DUP3 DUP3 SLOAD PUSH2 0x367 SWAP2 SWAP1 PUSH2 0xE91 JUMP JUMPDEST SWAP3 POP POP DUP2 SWAP1 SSTORE POP PUSH32 0x0 PUSH20 0xFFFFFFFFFFFFFFFFFFFFFFFFFFFFFFFFFFFFFFFF AND PUSH4 0x69328DEC PUSH32 0x0 DUP4 ADDRESS PUSH1 0x40 MLOAD DUP5 PUSH4 0xFFFFFFFF AND PUSH1 0xE0 SHL DUP2 MSTORE PUSH1 0x4 ADD PUSH2 0x3EB SWAP4 SWAP3 SWAP2 SWAP1 PUSH2 0xEC5 JUMP JUMPDEST PUSH1 0x20 PUSH1 0x40 MLOAD DUP1 DUP4 SUB DUP2 PUSH1 0x0 DUP8 GAS CALL ISZERO DUP1 ISZERO PUSH2 0x40A JUMPI RETURNDATASIZE PUSH1 0x0 DUP1 RETURNDATACOPY RETURNDATASIZE PUSH1 0x0 REVERT JUMPDEST POP POP POP POP PUSH1 0x40 MLOAD RETURNDATASIZE PUSH1 0x1F NOT PUSH1 0x1F DUP3 ADD AND DUP3 ADD DUP1 PUSH1 0x40 MSTORE POP DUP2 ADD SWAP1 PUSH2 0x42E SWAP2 SWAP1 PUSH2 0xF11 JUMP JUMPDEST POP PUSH32 0x0 PUSH20 0xFFFFFFFFFFFFFFFFFFFFFFFFFFFFFFFFFFFFFFFF AND PUSH4 0x2E1A7D4D DUP3 PUSH1 0x40 MLOAD DUP3 PUSH4 0xFFFFFFFF AND PUSH1 0xE0 SHL DUP2 MSTORE PUSH1 0x4 ADD PUSH2 0x488 SWAP2 SWAP1 PUSH2 0xB95 JUMP JUMPDEST PUSH1 0x0 PUSH1 0x40 MLOAD DUP1 DUP4 SUB DUP2 PUSH1 0x0 DUP8 DUP1 EXTCODESIZE ISZERO DUP1 ISZERO PUSH2 0x4A2 JUMPI PUSH1 0x0 DUP1 REVERT JUMPDEST POP GAS CALL ISZERO DUP1 ISZERO PUSH2 0x4B6 JUMPI RETURNDATASIZE PUSH1 0x0 DUP1 RETURNDATACOPY RETURNDATASIZE PUSH1 0x0 REVERT JUMPDEST POP POP POP POP CALLER PUSH20 0xFFFFFFFFFFFFFFFFFFFFFFFFFFFFFFFFFFFFFFFF AND PUSH2 0x8FC DUP3 SWAP1 DUP2 ISZERO MUL SWAP1 PUSH1 0x40 MLOAD PUSH1 0x0 PUSH1 0x40 MLOAD DUP1 DUP4 SUB DUP2 DUP6 DUP9 DUP9 CALL SWAP4 POP POP POP POP ISZERO DUP1 ISZERO PUSH2 0x500 JUMPI RETURNDATASIZE PUSH1 0x0 DUP1 RETURNDATACOPY RETURNDATASIZE PUSH1 0x0 REVERT JUMPDEST POP CALLER PUSH20 0xFFFFFFFFFFFFFFFFFFFFFFFFFFFFFFFFFFFFFFFF AND PUSH32 0x7084F5476618D8E60B11EF0D7D3F06914655ADB8793E28FF7F018D4C76D505D5 DUP3 PUSH1 0x40 MLOAD PUSH2 0x547 SWAP2 SWAP1 PUSH2 0xB95 JUMP JUMPDEST PUSH1 0x40 MLOAD DUP1 SWAP2 SUB SWAP1 LOG2 PUSH2 0x557 PUSH2 0xA1D JUMP JUMPDEST POP JUMP JUMPDEST PUSH2 0x562 PUSH2 0x9D7 JUMP JUMPDEST PUSH1 0x0 CALLVALUE GT PUSH2 0x5A5 JUMPI PUSH1 0x40 MLOAD PUSH32 0x8C379A000000000000000000000000000000000000000000000000000000000 DUP2 MSTORE PUSH1 0x4 ADD PUSH2 0x59C SWAP1 PUSH2 0xF8A JUMP JUMPDEST PUSH1 0x40 MLOAD DUP1 SWAP2 SUB SWAP1 REVERT JUMPDEST CALLVALUE PUSH1 0x3 PUSH1 0x0 DUP3 DUP3 SLOAD PUSH2 0x5B7 SWAP2 SWAP1 PUSH2 0xFAA JUMP JUMPDEST SWAP3 POP POP DUP2 SWAP1 SSTORE POP CALLVALUE PUSH1 0x2 PUSH1 0x0 CALLER PUSH20 0xFFFFFFFFFFFFFFFFFFFFFFFFFFFFFFFFFFFFFFFF AND PUSH20 0xFFFFFFFFFFFFFFFFFFFFFFFFFFFFFFFFFFFFFFFF AND DUP2 MSTORE PUSH1 0x20 ADD SWAP1 DUP2 MSTORE PUSH1 0x20 ADD PUSH1 0x0 KECCAK256 PUSH1 0x0 DUP3 DUP3 SLOAD PUSH2 0x60D SWAP2 SWAP1 PUSH2 0xFAA JUMP JUMPDEST SWAP3 POP POP DUP2 SWAP1 SSTORE POP PUSH32 0x0 PUSH20 0xFFFFFFFFFFFFFFFFFFFFFFFFFFFFFFFFFFFFFFFF AND PUSH4 0xD0E30DB0 CALLVALUE PUSH1 0x40 MLOAD DUP3 PUSH4 0xFFFFFFFF AND PUSH1 0xE0 SHL DUP2 MSTORE PUSH1 0x4 ADD PUSH1 0x0 PUSH1 0x40 MLOAD DUP1 DUP4 SUB DUP2 DUP6 DUP9 DUP1 EXTCODESIZE ISZERO DUP1 ISZERO PUSH2 0x67C JUMPI PUSH1 0x0 DUP1 REVERT JUMPDEST POP GAS CALL ISZERO DUP1 ISZERO PUSH2 0x690 JUMPI RETURNDATASIZE PUSH1 0x0 DUP1 RETURNDATACOPY RETURNDATASIZE PUSH1 0x0 REVERT JUMPDEST POP POP POP POP POP PUSH32 0x0 PUSH20 0xFFFFFFFFFFFFFFFFFFFFFFFFFFFFFFFFFFFFFFFF AND PUSH4 0x95EA7B3 PUSH32 0x0 CALLVALUE PUSH1 0x40 MLOAD DUP4 PUSH4 0xFFFFFFFF AND PUSH1 0xE0 SHL DUP2 MSTORE PUSH1 0x4 ADD PUSH2 0x710 SWAP3 SWAP2 SWAP1 PUSH2 0xFDE JUMP JUMPDEST PUSH1 0x20 PUSH1 0x40 MLOAD DUP1 DUP4 SUB DUP2 PUSH1 0x0 DUP8 GAS CALL ISZERO DUP1 ISZERO PUSH2 0x72F JUMPI RETURNDATASIZE PUSH1 0x0 DUP1 RETURNDATACOPY RETURNDATASIZE PUSH1 0x0 REVERT JUMPDEST POP POP POP POP PUSH1 0x40 MLOAD RETURNDATASIZE PUSH1 0x1F NOT PUSH1 0x1F DUP3 ADD AND DUP3 ADD DUP1 PUSH1 0x40 MSTORE POP DUP2 ADD SWAP1 PUSH2 0x753 SWAP2 SWAP1 PUSH2 0x103F JUMP JUMPDEST POP PUSH32 0x0 PUSH20 0xFFFFFFFFFFFFFFFFFFFFFFFFFFFFFFFFFFFFFFFF AND PUSH4 0x617BA037 PUSH32 0x0 CALLVALUE ADDRESS PUSH1 0x0 PUSH1 0x40 MLOAD DUP6 PUSH4 0xFFFFFFFF AND PUSH1 0xE0 SHL DUP2 MSTORE PUSH1 0x4 ADD PUSH2 0x7D4 SWAP5 SWAP4 SWAP3 SWAP2 SWAP1 PUSH2 0x10B5 JUMP JUMPDEST PUSH1 0x0 PUSH1 0x40 MLOAD DUP1 DUP4 SUB DUP2 PUSH1 0x0 DUP8 DUP1 EXTCODESIZE ISZERO DUP1 ISZERO PUSH2 0x7EE JUMPI PUSH1 0x0 DUP1 REVERT JUMPDEST POP GAS CALL ISZERO DUP1 ISZERO PUSH2 0x802 JUMPI RETURNDATASIZE PUSH1 0x0 DUP1 RETURNDATACOPY RETURNDATASIZE PUSH1 0x0 REVERT JUMPDEST POP POP POP POP CALLER PUSH20 0xFFFFFFFFFFFFFFFFFFFFFFFFFFFFFFFFFFFFFFFF AND PUSH32 0x9E71BC8EEA02A63969F509818F2DAFB9254532904319F9DBDA79B67BD34A5F3D CALLVALUE PUSH1 0x40 MLOAD PUSH2 0x84C SWAP2 SWAP1 PUSH2 0xB95 JUMP JUMPDEST PUSH1 0x40 MLOAD DUP1 SWAP2 SUB SWAP1 LOG2 PUSH2 0x85C PUSH2 0xA1D JUMP JUMPDEST JUMP JUMPDEST PUSH32 0x0 DUP2 JUMP JUMPDEST PUSH1 0x0 PUSH1 0x2 PUSH1 0x0 DUP4 PUSH20 0xFFFFFFFFFFFFFFFFFFFFFFFFFFFFFFFFFFFFFFFF AND PUSH20 0xFFFFFFFFFFFFFFFFFFFFFFFFFFFFFFFFFFFFFFFF AND DUP2 MSTORE PUSH1 0x20 ADD SWAP1 DUP2 MSTORE PUSH1 0x20 ADD PUSH1 0x0 KECCAK256 SLOAD SWAP1 POP SWAP2 SWAP1 POP JUMP JUMPDEST PUSH2 0x8D3 PUSH2 0xA27 JUMP JUMPDEST PUSH2 0x8DD PUSH1 0x0 PUSH2 0xAAE JUMP JUMPDEST JUMP JUMPDEST PUSH1 0x0 PUSH1 0x1 PUSH1 0x0 SWAP1 SLOAD SWAP1 PUSH2 0x100 EXP SWAP1 DIV PUSH20 0xFFFFFFFFFFFFFFFFFFFFFFFFFFFFFFFFFFFFFFFF AND SWAP1 POP SWAP1 JUMP JUMPDEST PUSH32 0x0 DUP2 JUMP JUMPDEST PUSH32 0x0 DUP2 JUMP JUMPDEST PUSH2 0x959 PUSH2 0xA27 JUMP JUMPDEST PUSH1 0x0 PUSH20 0xFFFFFFFFFFFFFFFFFFFFFFFFFFFFFFFFFFFFFFFF AND DUP2 PUSH20 0xFFFFFFFFFFFFFFFFFFFFFFFFFFFFFFFFFFFFFFFF AND SUB PUSH2 0x9CB JUMPI PUSH1 0x0 PUSH1 0x40 MLOAD PUSH32 0x1E4FBDF700000000000000000000000000000000000000000000000000000000 DUP2 MSTORE PUSH1 0x4 ADD PUSH2 0x9C2 SWAP2 SWAP1 PUSH2 0xC4F JUMP JUMPDEST PUSH1 0x40 MLOAD DUP1 SWAP2 SUB SWAP1 REVERT JUMPDEST PUSH2 0x9D4 DUP2 PUSH2 0xAAE JUMP JUMPDEST POP JUMP JUMPDEST PUSH1 0x2 PUSH1 0x0 SLOAD SUB PUSH2 0xA13 JUMPI PUSH1 0x40 MLOAD PUSH32 0x3EE5AEB500000000000000000000000000000000000000000000000000000000 DUP2 MSTORE PUSH1 0x4 ADD PUSH1 0x40 MLOAD DUP1 SWAP2 SUB SWAP1 REVERT JUMPDEST PUSH1 0x2 PUSH1 0x0 DUP2 SWAP1 SSTORE POP JUMP JUMPDEST PUSH1 0x1 PUSH1 0x0 DUP2 SWAP1 SSTORE POP JUMP JUMPDEST PUSH2 0xA2F PUSH2 0xB74 JUMP JUMPDEST PUSH20 0xFFFFFFFFFFFFFFFFFFFFFFFFFFFFFFFFFFFFFFFF AND PUSH2 0xA4D PUSH2 0x8DF JUMP JUMPDEST PUSH20 0xFFFFFFFFFFFFFFFFFFFFFFFFFFFFFFFFFFFFFFFF AND EQ PUSH2 0xAAC JUMPI PUSH2 0xA70 PUSH2 0xB74 JUMP JUMPDEST PUSH1 0x40 MLOAD PUSH32 0x118CDAA700000000000000000000000000000000000000000000000000000000 DUP2 MSTORE PUSH1 0x4 ADD PUSH2 0xAA3 SWAP2 SWAP1 PUSH2 0xC4F JUMP JUMPDEST PUSH1 0x40 MLOAD DUP1 SWAP2 SUB SWAP1 REVERT JUMPDEST JUMP JUMPDEST PUSH1 0x0 PUSH1 0x1 PUSH1 0x0 SWAP1 SLOAD SWAP1 PUSH2 0x100 EXP SWAP1 DIV PUSH20 0xFFFFFFFFFFFFFFFFFFFFFFFFFFFFFFFFFFFFFFFF AND SWAP1 POP DUP2 PUSH1 0x1 PUSH1 0x0 PUSH2 0x100 EXP DUP2 SLOAD DUP2 PUSH20 0xFFFFFFFFFFFFFFFFFFFFFFFFFFFFFFFFFFFFFFFF MUL NOT AND SWAP1 DUP4 PUSH20 0xFFFFFFFFFFFFFFFFFFFFFFFFFFFFFFFFFFFFFFFF AND MUL OR SWAP1 SSTORE POP DUP2 PUSH20 0xFFFFFFFFFFFFFFFFFFFFFFFFFFFFFFFFFFFFFFFF AND DUP2 PUSH20 0xFFFFFFFFFFFFFFFFFFFFFFFFFFFFFFFFFFFFFFFF AND PUSH32 0x8BE0079C531659141344CD1FD0A4F28419497F9722A3DAAFE3B4186F6B6457E0 PUSH1 0x40 MLOAD PUSH1 0x40 MLOAD DUP1 SWAP2 SUB SWAP1 LOG3 POP POP JUMP JUMPDEST PUSH1 0x0 CALLER SWAP1 POP SWAP1 JUMP JUMPDEST PUSH1 0x0 DUP2 SWAP1 POP SWAP2 SWAP1 POP JUMP JUMPDEST PUSH2 0xB8F DUP2 PUSH2 0xB7C JUMP JUMPDEST DUP3 MSTORE POP POP JUMP JUMPDEST PUSH1 0x0 PUSH1 0x20 DUP3 ADD SWAP1 POP PUSH2 0xBAA PUSH1 0x0 DUP4 ADD DUP5 PUSH2 0xB86 JUMP JUMPDEST SWAP3 SWAP2 POP POP JUMP JUMPDEST PUSH1 0x0 DUP1 REVERT JUMPDEST PUSH2 0xBBE DUP2 PUSH2 0xB7C JUMP JUMPDEST DUP2 EQ PUSH2 0xBC9 JUMPI PUSH1 0x0 DUP1 REVERT JUMPDEST POP JUMP JUMPDEST PUSH1 0x0 DUP2 CALLDATALOAD SWAP1 POP PUSH2 0xBDB DUP2 PUSH2 0xBB5 JUMP JUMPDEST SWAP3 SWAP2 POP POP JUMP JUMPDEST PUSH1 0x0 PUSH1 0x20 DUP3 DUP5 SUB SLT ISZERO PUSH2 0xBF7 JUMPI PUSH2 0xBF6 PUSH2 0xBB0 JUMP JUMPDEST JUMPDEST PUSH1 0x0 PUSH2 0xC05 DUP5 DUP3 DUP6 ADD PUSH2 0xBCC JUMP JUMPDEST SWAP2 POP POP SWAP3 SWAP2 POP POP JUMP JUMPDEST PUSH1 0x0 PUSH20 0xFFFFFFFFFFFFFFFFFFFFFFFFFFFFFFFFFFFFFFFF DUP3 AND SWAP1 POP SWAP2 SWAP1 POP JUMP JUMPDEST PUSH1 0x0 PUSH2 0xC39 DUP3 PUSH2 0xC0E JUMP JUMPDEST SWAP1 POP SWAP2 SWAP1 POP JUMP JUMPDEST PUSH2 0xC49 DUP2 PUSH2 0xC2E JUMP JUMPDEST DUP3 MSTORE POP POP JUMP JUMPDEST PUSH1 0x0 PUSH1 0x20 DUP3 ADD SWAP1 POP PUSH2 0xC64 PUSH1 0x0 DUP4 ADD DUP5 PUSH2 0xC40 JUMP JUMPDEST SWAP3 SWAP2 POP POP JUMP JUMPDEST PUSH2 0xC73 DUP2 PUSH2 0xC2E JUMP JUMPDEST DUP2 EQ PUSH2 0xC7E JUMPI PUSH1 0x0 DUP1 REVERT JUMPDEST POP JUMP JUMPDEST PUSH1 0x0 DUP2 CALLDATALOAD SWAP1 POP PUSH2 0xC90 DUP2 PUSH2 0xC6A JUMP JUMPDEST SWAP3 SWAP2 POP POP JUMP JUMPDEST PUSH1 0x0 PUSH1 0x20 DUP3 DUP5 SUB SLT ISZERO PUSH2 0xCAC JUMPI PUSH2 0xCAB PUSH2 0xBB0 JUMP JUMPDEST JUMPDEST PUSH1 0x0 PUSH2 0xCBA DUP5 DUP3 DUP6 ADD PUSH2 0xC81 JUMP JUMPDEST SWAP2 POP POP SWAP3 SWAP2 POP POP JUMP JUMPDEST PUSH1 0x0 DUP2 SWAP1 POP SWAP2 SWAP1 POP JUMP JUMPDEST PUSH1 0x0 PUSH2 0xCE8 PUSH2 0xCE3 PUSH2 0xCDE DUP5 PUSH2 0xC0E JUMP JUMPDEST PUSH2 0xCC3 JUMP JUMPDEST PUSH2 0xC0E JUMP JUMPDEST SWAP1 POP SWAP2 SWAP1 POP JUMP JUMPDEST PUSH1 0x0 PUSH2 0xCFA DUP3 PUSH2 0xCCD JUMP JUMPDEST SWAP1 POP SWAP2 SWAP1 POP JUMP JUMPDEST PUSH1 0x0 PUSH2 0xD0C DUP3 PUSH2 0xCEF JUMP JUMPDEST SWAP1 POP SWAP2 SWAP1 POP JUMP JUMPDEST PUSH2 0xD1C DUP2 PUSH2 0xD01 JUMP JUMPDEST DUP3 MSTORE POP POP JUMP JUMPDEST PUSH1 0x0 PUSH1 0x20 DUP3 ADD SWAP1 POP PUSH2 0xD37 PUSH1 0x0 DUP4 ADD DUP5 PUSH2 0xD13 JUMP JUMPDEST SWAP3 SWAP2 POP POP JUMP JUMPDEST PUSH1 0x0 PUSH2 0xD48 DUP3 PUSH2 0xCEF JUMP JUMPDEST SWAP1 POP SWAP2 SWAP1 POP JUMP JUMPDEST PUSH2 0xD58 DUP2 PUSH2 0xD3D JUMP JUMPDEST DUP3 MSTORE POP POP JUMP JUMPDEST PUSH1 0x0 PUSH1 0x20 DUP3 ADD SWAP1 POP PUSH2 0xD73 PUSH1 0x0 DUP4 ADD DUP5 PUSH2 0xD4F JUMP JUMPDEST SWAP3 SWAP2 POP POP JUMP JUMPDEST PUSH1 0x0 DUP3 DUP3 MSTORE PUSH1 0x20 DUP3 ADD SWAP1 POP SWAP3 SWAP2 POP POP JUMP JUMPDEST PUSH32 0x43616E6E6F742077697468647261772030000000000000000000000000000000 PUSH1 0x0 DUP3 ADD MSTORE POP JUMP JUMPDEST PUSH1 0x0 PUSH2 0xDC0 PUSH1 0x11 DUP4 PUSH2 0xD79 JUMP JUMPDEST SWAP2 POP PUSH2 0xDCB DUP3 PUSH2 0xD8A JUMP JUMPDEST PUSH1 0x20 DUP3 ADD SWAP1 POP SWAP2 SWAP1 POP JUMP JUMPDEST PUSH1 0x0 PUSH1 0x20 DUP3 ADD SWAP1 POP DUP2 DUP2 SUB PUSH1 0x0 DUP4 ADD MSTORE PUSH2 0xDEF DUP2 PUSH2 0xDB3 JUMP JUMPDEST SWAP1 POP SWAP2 SWAP1 POP JUMP JUMPDEST PUSH32 0x4E6F7420656E6F7567682062616C616E63650000000000000000000000000000 PUSH1 0x0 DUP3 ADD MSTORE POP JUMP JUMPDEST PUSH1 0x0 PUSH2 0xE2C PUSH1 0x12 DUP4 PUSH2 0xD79 JUMP JUMPDEST SWAP2 POP PUSH2 0xE37 DUP3 PUSH2 0xDF6 JUMP JUMPDEST PUSH1 0x20 DUP3 ADD SWAP1 POP SWAP2 SWAP1 POP JUMP JUMPDEST PUSH1 0x0 PUSH1 0x20 DUP3 ADD SWAP1 POP DUP2 DUP2 SUB PUSH1 0x0 DUP4 ADD MSTORE PUSH2 0xE5B DUP2 PUSH2 0xE1F JUMP JUMPDEST SWAP1 POP SWAP2 SWAP1 POP JUMP JUMPDEST PUSH32 0x4E487B7100000000000000000000000000000000000000000000000000000000 PUSH1 0x0 MSTORE PUSH1 0x11 PUSH1 0x4 MSTORE PUSH1 0x24 PUSH1 0x0 REVERT JUMPDEST PUSH1 0x0 PUSH2 0xE9C DUP3 PUSH2 0xB7C JUMP JUMPDEST SWAP2 POP PUSH2 0xEA7 DUP4 PUSH2 0xB7C JUMP JUMPDEST SWAP3 POP DUP3 DUP3 SUB SWAP1 POP DUP2 DUP2 GT ISZERO PUSH2 0xEBF JUMPI PUSH2 0xEBE PUSH2 0xE62 JUMP JUMPDEST JUMPDEST SWAP3 SWAP2 POP POP JUMP JUMPDEST PUSH1 0x0 PUSH1 0x60 DUP3 ADD SWAP1 POP PUSH2 0xEDA PUSH1 0x0 DUP4 ADD DUP7 PUSH2 0xC40 JUMP JUMPDEST PUSH2 0xEE7 PUSH1 0x20 DUP4 ADD DUP6 PUSH2 0xB86 JUMP JUMPDEST PUSH2 0xEF4 PUSH1 0x40 DUP4 ADD DUP5 PUSH2 0xC40 JUMP JUMPDEST SWAP5 SWAP4 POP POP POP POP JUMP JUMPDEST PUSH1 0x0 DUP2 MLOAD SWAP1 POP PUSH2 0xF0B DUP2 PUSH2 0xBB5 JUMP JUMPDEST SWAP3 SWAP2 POP POP JUMP JUMPDEST PUSH1 0x0 PUSH1 0x20 DUP3 DUP5 SUB SLT ISZERO PUSH2 0xF27 JUMPI PUSH2 0xF26 PUSH2 0xBB0 JUMP JUMPDEST JUMPDEST PUSH1 0x0 PUSH2 0xF35 DUP5 DUP3 DUP6 ADD PUSH2 0xEFC JUMP JUMPDEST SWAP2 POP POP SWAP3 SWAP2 POP POP JUMP JUMPDEST PUSH32 0x43616E6E6F74207374616B652030000000000000000000000000000000000000 PUSH1 0x0 DUP3 ADD MSTORE POP JUMP JUMPDEST PUSH1 0x0 PUSH2 0xF74 PUSH1 0xE DUP4 PUSH2 0xD79 JUMP JUMPDEST SWAP2 POP PUSH2 0xF7F DUP3 PUSH2 0xF3E JUMP JUMPDEST PUSH1 0x20 DUP3 ADD SWAP1 POP SWAP2 SWAP1 POP JUMP JUMPDEST PUSH1 0x0 PUSH1 0x20 DUP3 ADD SWAP1 POP DUP2 DUP2 SUB PUSH1 0x0 DUP4 ADD MSTORE PUSH2 0xFA3 DUP2 PUSH2 0xF67 JUMP JUMPDEST SWAP1 POP SWAP2 SWAP1 POP JUMP JUMPDEST PUSH1 0x0 PUSH2 0xFB5 DUP3 PUSH2 0xB7C JUMP JUMPDEST SWAP2 POP PUSH2 0xFC0 DUP4 PUSH2 0xB7C JUMP JUMPDEST SWAP3 POP DUP3 DUP3 ADD SWAP1 POP DUP1 DUP3 GT ISZERO PUSH2 0xFD8 JUMPI PUSH2 0xFD7 PUSH2 0xE62 JUMP JUMPDEST JUMPDEST SWAP3 SWAP2 POP POP JUMP JUMPDEST PUSH1 0x0 PUSH1 0x40 DUP3 ADD SWAP1 POP PUSH2 0xFF3 PUSH1 0x0 DUP4 ADD DUP6 PUSH2 0xC40 JUMP JUMPDEST PUSH2 0x1000 PUSH1 0x20 DUP4 ADD DUP5 PUSH2 0xB86 JUMP JUMPDEST SWAP4 SWAP3 POP POP POP JUMP JUMPDEST PUSH1 0x0 DUP2 ISZERO ISZERO SWAP1 POP SWAP2 SWAP1 POP JUMP JUMPDEST PUSH2 0x101C DUP2 PUSH2 0x1007 JUMP JUMPDEST DUP2 EQ PUSH2 0x1027 JUMPI PUSH1 0x0 DUP1 REVERT JUMPDEST POP JUMP JUMPDEST PUSH1 0x0 DUP2 MLOAD SWAP1 POP PUSH2 0x1039 DUP2 PUSH2 0x1013 JUMP JUMPDEST SWAP3 SWAP2 POP POP JUMP JUMPDEST PUSH1 0x0 PUSH1 0x20 DUP3 DUP5 SUB SLT ISZERO PUSH2 0x1055 JUMPI PUSH2 0x1054 PUSH2 0xBB0 JUMP JUMPDEST JUMPDEST PUSH1 0x0 PUSH2 0x1063 DUP5 DUP3 DUP6 ADD PUSH2 0x102A JUMP JUMPDEST SWAP2 POP POP SWAP3 SWAP2 POP POP JUMP JUMPDEST PUSH1 0x0 DUP2 SWAP1 POP SWAP2 SWAP1 POP JUMP JUMPDEST PUSH1 0x0 PUSH2 0xFFFF DUP3 AND SWAP1 POP SWAP2 SWAP1 POP JUMP JUMPDEST PUSH1 0x0 PUSH2 0x109F PUSH2 0x109A PUSH2 0x1095 DUP5 PUSH2 0x106C JUMP JUMPDEST PUSH2 0xCC3 JUMP JUMPDEST PUSH2 0x1076 JUMP JUMPDEST SWAP1 POP SWAP2 SWAP1 POP JUMP JUMPDEST PUSH2 0x10AF DUP2 PUSH2 0x1084 JUMP JUMPDEST DUP3 MSTORE POP POP JUMP JUMPDEST PUSH1 0x0 PUSH1 0x80 DUP3 ADD SWAP1 POP PUSH2 0x10CA PUSH1 0x0 DUP4 ADD DUP8 PUSH2 0xC40 JUMP JUMPDEST PUSH2 0x10D7 PUSH1 0x20 DUP4 ADD DUP7 PUSH2 0xB86 JUMP JUMPDEST PUSH2 0x10E4 PUSH1 0x40 DUP4 ADD DUP6 PUSH2 0xC40 JUMP JUMPDEST PUSH2 0x10F1 PUSH1 0x60 DUP4 ADD DUP5 PUSH2 0x10A6 JUMP JUMPDEST SWAP6 SWAP5 POP POP POP POP POP JUMP INVALID LOG2 PUSH5 0x6970667358 0x22 SLT KECCAK256 BLOBHASH PUSH14 0xE7E91907E85DBDC83DF98B330951 STATICCALL 0xF9 0xCC 0xF6 SLOAD PUSH23 0x1958FE181EE77074F76D64736F6C634300081A00330000 "},"methodIdentifiers":{"WETH()":"ad5c4648","aWETHAddress()":"46620767","aavePool()":"a03e4bc3","balanceOf(address)":"70a08231","owner()":"8da5cb5b","renounceOwnership()":"715018a6","stake()":"3a4b66f1","totalSupply()":"18160ddd","transferOwnership(address)":"f2fde38b","withdraw(uint256)":"2e1a7d4d"}}}}}