{
  "_format": "hh-sol-artifact-1",
  "contractName": "IndirectAaveEthStaking",
  "sourceName": "contracts/StakeETH.sol",
  "abi": [
    {
      "inputs": [
        {
          "internalType": "address",
          "name": "_weth",
          "type": "address"
        },
        {
          "internalType": "address",
          "name": "_aavePool",
          "type": "address"
        },
        {
          "internalType": "address",
          "name": "_aWETHAddress",
          "type": "address"
        }
      ],
      "stateMutability": "nonpayable",
      "type": "constructor"
    },
    {
      "inputs": [
        {
          "internalType": "address",
          "name": "owner",
          "type": "address"
        }
      ],
      "name": "OwnableInvalidOwner",
      "type": "error"
    },
    {
      "inputs": [
        {
          "internalType": "address",
          "name": "account",
          "type": "address"
        }
      ],
      "name": "OwnableUnauthorizedAccount",
      "type": "error"
    },
    {
      "inputs": [],
      "name": "ReentrancyGuardReentrantCall",
      "type": "error"
    },
    {
      "anonymous": false,
      "inputs": [
        {
          "indexed": true,
          "internalType": "address",
          "name": "previousOwner",
          "type": "address"
        },
        {
          "indexed": true,
          "internalType": "address",
          "name": "newOwner",
          "type": "address"
        }
      ],
      "name": "OwnershipTransferred",
      "type": "event"
    },
    {
      "anonymous": false,
      "inputs": [
        {
          "indexed": true,
          "internalType": "address",
          "name": "user",
          "type": "address"
        },
        {
          "indexed": false,
          "internalType": "uint256",
          "name": "amount",
          "type": "uint256"
        }
      ],
      "name": "Staked",
      "type": "event"
    },
    {
      "anonymous": false,
      "inputs": [
        {
          "indexed": true,
          "internalType": "address",
          "name": "user",
          "type": "address"
        },
        {
          "indexed": false,
          "internalType": "uint256",
          "name": "amount",
          "type": "uint256"
        }
      ],
      "name": "Withdrawn",
      "type": "event"
    },
    {
      "inputs": [],
      "name": "WETH",
      "outputs": [
        {
          "internalType": "contract IWETH",
          "name": "",
          "type": "address"
        }
      ],
      "stateMutability": "view",
      "type": "function"
    },
    {
      "inputs": [],
      "name": "aWETHAddress",
      "outputs": [
        {
          "internalType": "address",
          "name": "",
          "type": "address"
        }
      ],
      "stateMutability": "view",
      "type": "function"
    },
    {
      "inputs": [],
      "name": "aavePool",
      "outputs": [
        {
          "internalType": "contract IAavePool",
          "name": "",
          "type": "address"
        }
      ],
      "stateMutability": "view",
      "type": "function"
    },
    {
      "inputs": [
        {
          "internalType": "address",
          "name": "account",
          "type": "address"
        }
      ],
      "name": "balanceOf",
      "outputs": [
        {
          "internalType": "uint256",
          "name": "",
          "type": "uint256"
        }
      ],
      "stateMutability": "view",
      "type": "function"
    },
    {
      "inputs": [],
      "name": "owner",
      "outputs": [
        {
          "internalType": "address",
          "name": "",
          "type": "address"
        }
      ],
      "stateMutability": "view",
      "type": "function"
    },
    {
      "inputs": [],
      "name": "renounceOwnership",
      "outputs": [],
      "stateMutability": "nonpayable",
      "type": "function"
    },
    {
      "inputs": [],
      "name": "stake",
      "outputs": [],
      "stateMutability": "payable",
      "type": "function"
    },
    {
      "inputs": [],
      "name": "totalSupply",
      "outputs": [
        {
          "internalType": "uint256",
          "name": "",
          "type": "uint256"
        }
      ],
      "stateMutability": "view",
      "type": "function"
    },
    {
      "inputs": [
        {
          "internalType": "address",
          "name": "newOwner",
          "type": "address"
        }
      ],
      "name": "transferOwnership",
      "outputs": [],
      "stateMutability": "nonpayable",
      "type": "function"
    },
    {
      "inputs": [
        {
          "internalType": "uint256",
          "name": "amount",
          "type": "uint256"
        }
      ],
      "name": "withdraw",
      "outputs": [],
      "stateMutability": "nonpayable",
      "type": "function"
    },
    {
      "stateMutability": "payable",
      "type": "receive"
    }
  ],
  "bytecode": "0x60e060405234801561001057600080fd5b5060405161149e38038061149e8339818101604052810190610032919061028a565b336001600081905550600073ffffffffffffffffffffffffffffffffffffffff168173ffffffffffffffffffffffffffffffffffffffff16036100ad5760006040517f1e4fbdf70000000000000000000000000000000000000000000000000000000081526004016100a491906102ec565b60405180910390fd5b6100bc8161016160201b60201c565b508273ffffffffffffffffffffffffffffffffffffffff1660808173ffffffffffffffffffffffffffffffffffffffff16815250508173ffffffffffffffffffffffffffffffffffffffff1660a08173ffffffffffffffffffffffffffffffffffffffff16815250508073ffffffffffffffffffffffffffffffffffffffff1660c08173ffffffffffffffffffffffffffffffffffffffff1681525050505050610307565b6000600160009054906101000a900473ffffffffffffffffffffffffffffffffffffffff16905081600160006101000a81548173ffffffffffffffffffffffffffffffffffffffff021916908373ffffffffffffffffffffffffffffffffffffffff1602179055508173ffffffffffffffffffffffffffffffffffffffff168173ffffffffffffffffffffffffffffffffffffffff167f8be0079c531659141344cd1fd0a4f28419497f9722a3daafe3b4186f6b6457e060405160405180910390a35050565b600080fd5b600073ffffffffffffffffffffffffffffffffffffffff82169050919050565b60006102578261022c565b9050919050565b6102678161024c565b811461027257600080fd5b50565b6000815190506102848161025e565b92915050565b6000806000606084860312156102a3576102a2610227565b5b60006102b186828701610275565b93505060206102c286828701610275565b92505060406102d386828701610275565b9150509250925092565b6102e68161024c565b82525050565b600060208201905061030160008301846102dd565b92915050565b60805160a05160c05161113061036e6000396000610860015260008181610370015281816106d301528181610756015261090b0152600081816103ac01528181610431015281816106160152818161069701528181610792015261092f01526111306000f3fe6080604052600436106100955760003560e01c8063715018a611610059578063715018a6146101675780638da5cb5b1461017e578063a03e4bc3146101a9578063ad5c4648146101d4578063f2fde38b146101ff5761009c565b806318160ddd146100a15780632e1a7d4d146100cc5780633a4b66f1146100f557806346620767146100ff57806370a082311461012a5761009c565b3661009c57005b600080fd5b3480156100ad57600080fd5b506100b6610228565b6040516100c39190610b95565b60405180910390f35b3480156100d857600080fd5b506100f360048036038101906100ee9190610be1565b610232565b005b6100fd61055a565b005b34801561010b57600080fd5b5061011461085e565b6040516101219190610c4f565b60405180910390f35b34801561013657600080fd5b50610151600480360381019061014c9190610c96565b610882565b60405161015e9190610b95565b60405180910390f35b34801561017357600080fd5b5061017c6108cb565b005b34801561018a57600080fd5b506101936108df565b6040516101a09190610c4f565b60405180910390f35b3480156101b557600080fd5b506101be610909565b6040516101cb9190610d22565b60405180910390f35b3480156101e057600080fd5b506101e961092d565b6040516101f69190610d5e565b60405180910390f35b34801561020b57600080fd5b5061022660048036038101906102219190610c96565b610951565b005b6000600354905090565b61023a6109d7565b6000811161027d576040517f08c379a000000000000000000000000000000000000000000000000000000000815260040161027490610dd6565b60405180910390fd5b80600260003373ffffffffffffffffffffffffffffffffffffffff1673ffffffffffffffffffffffffffffffffffffffff1681526020019081526020016000205410156102ff576040517f08c379a00000000000000000000000000000000000000000000000000000000081526004016102f690610e42565b60405180910390fd5b80600360008282546103119190610e91565b9250508190555080600260003373ffffffffffffffffffffffffffffffffffffffff1673ffffffffffffffffffffffffffffffffffffffff16815260200190815260200160002060008282546103679190610e91565b925050819055507f000000000000000000000000000000000000000000000000000000000000000073ffffffffffffffffffffffffffffffffffffffff166369328dec7f000000000000000000000000000000000000000000000000000000000000000083306040518463ffffffff1660e01b81526004016103eb93929190610ec5565b6020604051808303816000875af115801561040a573d6000803e3d6000fd5b505050506040513d601f19601f8201168201806040525081019061042e9190610f11565b507f000000000000000000000000000000000000000000000000000000000000000073ffffffffffffffffffffffffffffffffffffffff16632e1a7d4d826040518263ffffffff1660e01b81526004016104889190610b95565b600060405180830381600087803b1580156104a257600080fd5b505af11580156104b6573d6000803e3d6000fd5b505050503373ffffffffffffffffffffffffffffffffffffffff166108fc829081150290604051600060405180830381858888f19350505050158015610500573d6000803e3d6000fd5b503373ffffffffffffffffffffffffffffffffffffffff167f7084f5476618d8e60b11ef0d7d3f06914655adb8793e28ff7f018d4c76d505d5826040516105479190610b95565b60405180910390a2610557610a1d565b50565b6105626109d7565b600034116105a5576040517f08c379a000000000000000000000000000000000000000000000000000000000815260040161059c90610f8a565b60405180910390fd5b34600360008282546105b79190610faa565b9250508190555034600260003373ffffffffffffffffffffffffffffffffffffffff1673ffffffffffffffffffffffffffffffffffffffff168152602001908152602001600020600082825461060d9190610faa565b925050819055507f000000000000000000000000000000000000000000000000000000000000000073ffffffffffffffffffffffffffffffffffffffff1663d0e30db0346040518263ffffffff1660e01b81526004016000604051808303818588803b15801561067c57600080fd5b505af1158015610690573d6000803e3d6000fd5b50505050507f000000000000000000000000000000000000000000000000000000000000000073ffffffffffffffffffffffffffffffffffffffff1663095ea7b37f0000000000000000000000000000000000000000000000000000000000000000346040518363ffffffff1660e01b8152600401610710929190610fde565b6020604051808303816000875af115801561072f573d6000803e3d6000fd5b505050506040513d601f19601f82011682018060405250810190610753919061103f565b507f000000000000000000000000000000000000000000000000000000000000000073ffffffffffffffffffffffffffffffffffffffff1663617ba0377f0000000000000000000000000000000000000000000000000000000000000000343060006040518563ffffffff1660e01b81526004016107d494939291906110b5565b600060405180830381600087803b1580156107ee57600080fd5b505af1158015610802573d6000803e3d6000fd5b505050503373ffffffffffffffffffffffffffffffffffffffff167f9e71bc8eea02a63969f509818f2dafb9254532904319f9dbda79b67bd34a5f3d3460405161084c9190610b95565b60405180910390a261085c610a1d565b565b7f000000000000000000000000000000000000000000000000000000000000000081565b6000600260008373ffffffffffffffffffffffffffffffffffffffff1673ffffffffffffffffffffffffffffffffffffffff168152602001908152602001600020549050919050565b6108d3610a27565b6108dd6000610aae565b565b6000600160009054906101000a900473ffffffffffffffffffffffffffffffffffffffff16905090565b7f000000000000000000000000000000000000000000000000000000000000000081565b7f000000000000000000000000000000000000000000000000000000000000000081565b610959610a27565b600073ffffffffffffffffffffffffffffffffffffffff168173ffffffffffffffffffffffffffffffffffffffff16036109cb5760006040517f1e4fbdf70000000000000000000000000000000000000000000000000000000081526004016109c29190610c4f565b60405180910390fd5b6109d481610aae565b50565b600260005403610a13576040517f3ee5aeb500000000000000000000000000000000000000000000000000000000815260040160405180910390fd5b6002600081905550565b6001600081905550565b610a2f610b74565b73ffffffffffffffffffffffffffffffffffffffff16610a4d6108df565b73ffffffffffffffffffffffffffffffffffffffff1614610aac57610a70610b74565b6040517f118cdaa7000000000000000000000000000000000000000000000000000000008152600401610aa39190610c4f565b60405180910390fd5b565b6000600160009054906101000a900473ffffffffffffffffffffffffffffffffffffffff16905081600160006101000a81548173ffffffffffffffffffffffffffffffffffffffff021916908373ffffffffffffffffffffffffffffffffffffffff1602179055508173ffffffffffffffffffffffffffffffffffffffff168173ffffffffffffffffffffffffffffffffffffffff167f8be0079c531659141344cd1fd0a4f28419497f9722a3daafe3b4186f6b6457e060405160405180910390a35050565b600033905090565b6000819050919050565b610b8f81610b7c565b82525050565b6000602082019050610baa6000830184610b86565b92915050565b600080fd5b610bbe81610b7c565b8114610bc957600080fd5b50565b600081359050610bdb81610bb5565b92915050565b600060208284031215610bf757610bf6610bb0565b5b6000610c0584828501610bcc565b91505092915050565b600073ffffffffffffffffffffffffffffffffffffffff82169050919050565b6000610c3982610c0e565b9050919050565b610c4981610c2e565b82525050565b6000602082019050610c646000830184610c40565b92915050565b610c7381610c2e565b8114610c7e57600080fd5b50565b600081359050610c9081610c6a565b92915050565b600060208284031215610cac57610cab610bb0565b5b6000610cba84828501610c81565b91505092915050565b6000819050919050565b6000610ce8610ce3610cde84610c0e565b610cc3565b610c0e565b9050919050565b6000610cfa82610ccd565b9050919050565b6000610d0c82610cef565b9050919050565b610d1c81610d01565b82525050565b6000602082019050610d376000830184610d13565b92915050565b6000610d4882610cef565b9050919050565b610d5881610d3d565b82525050565b6000602082019050610d736000830184610d4f565b92915050565b600082825260208201905092915050565b7f43616e6e6f742077697468647261772030000000000000000000000000000000600082015250565b6000610dc0601183610d79565b9150610dcb82610d8a565b602082019050919050565b60006020820190508181036000830152610def81610db3565b9050919050565b7f4e6f7420656e6f7567682062616c616e63650000000000000000000000000000600082015250565b6000610e2c601283610d79565b9150610e3782610df6565b602082019050919050565b60006020820190508181036000830152610e5b81610e1f565b9050919050565b7f4e487b7100000000000000000000000000000000000000000000000000000000600052601160045260246000fd5b6000610e9c82610b7c565b9150610ea783610b7c565b9250828203905081811115610ebf57610ebe610e62565b5b92915050565b6000606082019050610eda6000830186610c40565b610ee76020830185610b86565b610ef46040830184610c40565b949350505050565b600081519050610f0b81610bb5565b92915050565b600060208284031215610f2757610f26610bb0565b5b6000610f3584828501610efc565b91505092915050565b7f43616e6e6f74207374616b652030000000000000000000000000000000000000600082015250565b6000610f74600e83610d79565b9150610f7f82610f3e565b602082019050919050565b60006020820190508181036000830152610fa381610f67565b9050919050565b6000610fb582610b7c565b9150610fc083610b7c565b9250828201905080821115610fd857610fd7610e62565b5b92915050565b6000604082019050610ff36000830185610c40565b6110006020830184610b86565b9392505050565b60008115159050919050565b61101c81611007565b811461102757600080fd5b50565b60008151905061103981611013565b92915050565b60006020828403121561105557611054610bb0565b5b60006110638482850161102a565b91505092915050565b6000819050919050565b600061ffff82169050919050565b600061109f61109a6110958461106c565b610cc3565b611076565b9050919050565b6110af81611084565b82525050565b60006080820190506110ca6000830187610c40565b6110d76020830186610b86565b6110e46040830185610c40565b6110f160608301846110a6565b9594505050505056fea264697066735822122062a5011a6ce6380136b3dfa1ace97551b24e73ca6402dc3d9b464f01f1b63aa464736f6c634300081a0033",
  "linkReferences": {},
  "deployedLinkReferences": {}
}