{
  "_format": "hh-sol-artifact-1",
  "contractName": "MockAavePool",
  "sourceName": "contracts/mocks/WETHAndAaveMocks.sol",
  "abi": [
    {
      "inputs": [
        {
          "internalType": "address",
          "name": "",
          "type": "address"
        },
        {
          "internalType": "address",
          "name": "",
          "type": "address"
        }
      ],
      "name": "supplies",
      "outputs": [
        {
          "internalType": "uint256",
          "name": "",
          "type": "uint256"
        }
      ],
      "stateMutability": "view",
      "type": "function"
    },
    {
      "inputs": [
        {
          "internalType": "address",
          "name": "asset",
          "type": "address"
        },
        {
          "internalType": "uint256",
          "name": "amount",
          "type": "uint256"
        },
        {
          "internalType": "address",
          "name": "onBehalfOf",
          "type": "address"
        },
        {
          "internalType": "uint16",
          "name": "referralCode",
          "type": "uint16"
        }
      ],
      "name": "supply",
      "outputs": [],
      "stateMutability": "nonpayable",
      "type": "function"
    },
    {
      "inputs": [
        {
          "internalType": "address",
          "name": "asset",
          "type": "address"
        },
        {
          "internalType": "uint256",
          "name": "amount",
          "type": "uint256"
        },
        {
          "internalType": "address",
          "name": "to",
          "type": "address"
        }
      ],
      "name": "withdraw",
      "outputs": [
        {
          "internalType": "uint256",
          "name": "",
          "type": "uint256"
        }
      ],
      "stateMutability": "nonpayable",
      "type": "function"
    }
  ],
  "bytecode": "0x6080604052348015600f57600080fd5b5061061c8061001f6000396000f3fe608060405234801561001057600080fd5b50600436106100415760003560e01c8063617ba0371461004657806369328dec14610062578063c24f853014610092575b600080fd5b610060600480360381019061005b91906103ae565b6100c2565b005b61007c60048036038101906100779190610415565b61015a565b6040516100899190610477565b60405180910390f35b6100ac60048036038101906100a79190610492565b6102b6565b6040516100b99190610477565b60405180910390f35b826000808673ffffffffffffffffffffffffffffffffffffffff1673ffffffffffffffffffffffffffffffffffffffff16815260200190815260200160002060008473ffffffffffffffffffffffffffffffffffffffff1673ffffffffffffffffffffffffffffffffffffffff168152602001908152602001600020600082825461014d9190610501565b9250508190555050505050565b6000826000808673ffffffffffffffffffffffffffffffffffffffff1673ffffffffffffffffffffffffffffffffffffffff16815260200190815260200160002060003373ffffffffffffffffffffffffffffffffffffffff1673ffffffffffffffffffffffffffffffffffffffff16815260200190815260200160002054101561021a576040517f08c379a000000000000000000000000000000000000000000000000000000000815260040161021190610592565b60405180910390fd5b826000808673ffffffffffffffffffffffffffffffffffffffff1673ffffffffffffffffffffffffffffffffffffffff16815260200190815260200160002060003373ffffffffffffffffffffffffffffffffffffffff1673ffffffffffffffffffffffffffffffffffffffff16815260200190815260200160002060008282546102a591906105b2565b925050819055508290509392505050565b6000602052816000526040600020602052806000526040600020600091509150505481565b600080fd5b600073ffffffffffffffffffffffffffffffffffffffff82169050919050565b600061030b826102e0565b9050919050565b61031b81610300565b811461032657600080fd5b50565b60008135905061033881610312565b92915050565b6000819050919050565b6103518161033e565b811461035c57600080fd5b50565b60008135905061036e81610348565b92915050565b600061ffff82169050919050565b61038b81610374565b811461039657600080fd5b50565b6000813590506103a881610382565b92915050565b600080600080608085870312156103c8576103c76102db565b5b60006103d687828801610329565b94505060206103e78782880161035f565b93505060406103f887828801610329565b925050606061040987828801610399565b91505092959194509250565b60008060006060848603121561042e5761042d6102db565b5b600061043c86828701610329565b935050602061044d8682870161035f565b925050604061045e86828701610329565b9150509250925092565b6104718161033e565b82525050565b600060208201905061048c6000830184610468565b92915050565b600080604083850312156104a9576104a86102db565b5b60006104b785828601610329565b92505060206104c885828601610329565b9150509250929050565b7f4e487b7100000000000000000000000000000000000000000000000000000000600052601160045260246000fd5b600061050c8261033e565b91506105178361033e565b925082820190508082111561052f5761052e6104d2565b5b92915050565b600082825260208201905092915050565b7f496e73756666696369656e7420737570706c7900000000000000000000000000600082015250565b600061057c601383610535565b915061058782610546565b602082019050919050565b600060208201905081810360008301526105ab8161056f565b9050919050565b60006105bd8261033e565b91506105c88361033e565b92508282039050818111156105e0576105df6104d2565b5b9291505056fea2646970667358221220ded1cc4c5ad17f8a2a28bf12ee31ce8a6eca52239caf899c9fad4de503ed4f4464736f6c634300081a0033",
  "linkReferences": {},
  "deployedLinkReferences": {}
}