{
  "_format": "hh-sol-artifact-1",
  "contractName": "MockWETH",
  "sourceName": "contracts/mocks/WETHAndAaveMocks.sol",
  "abi": [
    {
      "inputs": [
        {
          "internalType": "address",
          "name": "spender",
          "type": "address"
        },
        {
          "internalType": "uint256",
          "name": "amount",
          "type": "uint256"
        }
      ],
      "name": "approve",
      "outputs": [
        {
          "internalType": "bool",
          "name": "",
          "type": "bool"
        }
      ],
      "stateMutability": "pure",
      "type": "function"
    },
    {
      "inputs": [
        {
          "internalType": "address",
          "name": "account",
          "type": "address"
        }
      ],
      "name": "balanceOf",
      "outputs": [
        {
          "internalType": "uint256",
          "name": "",
          "type": "uint256"
        }
      ],
      "stateMutability": "view",
      "type": "function"
    },
    {
      "inputs": [
        {
          "internalType": "address",
          "name": "",
          "type": "address"
        }
      ],
      "name": "balances",
      "outputs": [
        {
          "internalType": "uint256",
          "name": "",
          "type": "uint256"
        }
      ],
      "stateMutability": "view",
      "type": "function"
    },
    {
      "inputs": [],
      "name": "deposit",
      "outputs": [],
      "stateMutability": "payable",
      "type": "function"
    },
    {
      "inputs": [
        {
          "internalType": "address",
          "name": "recipient",
          "type": "address"
        },
        {
          "internalType": "uint256",
          "name": "amount",
          "type": "uint256"
        }
      ],
      "name": "transfer",
      "outputs": [
        {
          "internalType": "bool",
          "name": "",
          "type": "bool"
        }
      ],
      "stateMutability": "nonpayable",
      "type": "function"
    },
    {
      "inputs": [
        {
          "internalType": "uint256",
          "name": "amount",
          "type": "uint256"
        }
      ],
      "name": "withdraw",
      "outputs": [],
      "stateMutability": "nonpayable",
      "type": "function"
    }
  ],
  "bytecode": "0x6080604052348015600f57600080fd5b506107788061001f6000396000f3fe6080604052600436106100555760003560e01c8063095ea7b31461005a57806327e235e3146100975780632e1a7d4d146100d457806370a08231146100fd578063a9059cbb1461013a578063d0e30db014610177575b600080fd5b34801561006657600080fd5b50610081600480360381019061007c9190610534565b610181565b60405161008e919061058f565b60405180910390f35b3480156100a357600080fd5b506100be60048036038101906100b991906105aa565b61018d565b6040516100cb91906105e6565b60405180910390f35b3480156100e057600080fd5b506100fb60048036038101906100f69190610601565b6101a5565b005b34801561010957600080fd5b50610124600480360381019061011f91906105aa565b6102c5565b60405161013191906105e6565b60405180910390f35b34801561014657600080fd5b50610161600480360381019061015c9190610534565b61030d565b60405161016e919061058f565b60405180910390f35b61017f610444565b005b60006001905092915050565b60006020528060005260406000206000915090505481565b806000803373ffffffffffffffffffffffffffffffffffffffff1673ffffffffffffffffffffffffffffffffffffffff168152602001908152602001600020541015610226576040517f08c379a000000000000000000000000000000000000000000000000000000000815260040161021d9061068b565b60405180910390fd5b806000803373ffffffffffffffffffffffffffffffffffffffff1673ffffffffffffffffffffffffffffffffffffffff168152602001908152602001600020600082825461027491906106da565b925050819055503373ffffffffffffffffffffffffffffffffffffffff166108fc829081150290604051600060405180830381858888f193505050501580156102c1573d6000803e3d6000fd5b5050565b60008060008373ffffffffffffffffffffffffffffffffffffffff1673ffffffffffffffffffffffffffffffffffffffff168152602001908152602001600020549050919050565b6000816000803373ffffffffffffffffffffffffffffffffffffffff1673ffffffffffffffffffffffffffffffffffffffff168152602001908152602001600020541015610390576040517f08c379a00000000000000000000000000000000000000000000000000000000081526004016103879061068b565b60405180910390fd5b816000803373ffffffffffffffffffffffffffffffffffffffff1673ffffffffffffffffffffffffffffffffffffffff16815260200190815260200160002060008282546103de91906106da565b92505081905550816000808573ffffffffffffffffffffffffffffffffffffffff1673ffffffffffffffffffffffffffffffffffffffff1681526020019081526020016000206000828254610433919061070e565b925050819055506001905092915050565b346000803373ffffffffffffffffffffffffffffffffffffffff1673ffffffffffffffffffffffffffffffffffffffff1681526020019081526020016000206000828254610492919061070e565b92505081905550565b600080fd5b600073ffffffffffffffffffffffffffffffffffffffff82169050919050565b60006104cb826104a0565b9050919050565b6104db816104c0565b81146104e657600080fd5b50565b6000813590506104f8816104d2565b92915050565b6000819050919050565b610511816104fe565b811461051c57600080fd5b50565b60008135905061052e81610508565b92915050565b6000806040838503121561054b5761054a61049b565b5b6000610559858286016104e9565b925050602061056a8582860161051f565b9150509250929050565b60008115159050919050565b61058981610574565b82525050565b60006020820190506105a46000830184610580565b92915050565b6000602082840312156105c0576105bf61049b565b5b60006105ce848285016104e9565b91505092915050565b6105e0816104fe565b82525050565b60006020820190506105fb60008301846105d7565b92915050565b6000602082840312156106175761061661049b565b5b60006106258482850161051f565b91505092915050565b600082825260208201905092915050565b7f496e73756666696369656e742062616c616e6365000000000000000000000000600082015250565b600061067560148361062e565b91506106808261063f565b602082019050919050565b600060208201905081810360008301526106a481610668565b9050919050565b7f4e487b7100000000000000000000000000000000000000000000000000000000600052601160045260246000fd5b60006106e5826104fe565b91506106f0836104fe565b9250828203905081811115610708576107076106ab565b5b92915050565b6000610719826104fe565b9150610724836104fe565b925082820190508082111561073c5761073b6106ab565b5b9291505056fea26469706673582212205837d8ea408b66b5a799bb4e8590bf10609657409da57c87d5a69e7a1a732bb364736f6c634300081a0033",
  "linkReferences": {},
  "deployedLinkReferences": {}
}