{
  "_format": "hh-sol-artifact-1",
  "contractName": "LoanRequestContract",
  "sourceName": "contracts/LoanContract.sol",
  "abi": [
    {
      "inputs": [],
      "name": "ReentrancyGuardReentrantCall",
      "type": "error"
    },
    {
      "anonymous": false,
      "inputs": [
        {
          "indexed": true,
          "internalType": "uint256",
          "name": "requestId",
          "type": "uint256"
        },
        {
          "indexed": false,
          "internalType": "address",
          "name": "collateralAddress",
          "type": "address"
        },
        {
          "indexed": false,
          "internalType": "uint256",
          "name": "collateralId",
          "type": "uint256"
        },
        {
          "indexed": false,
          "internalType": "uint256",
          "name": "collateralAmount",
          "type": "uint256"
        }
      ],
      "name": "CollateralDeposited",
      "type": "event"
    },
    {
      "anonymous": false,
      "inputs": [
        {
          "indexed": true,
          "internalType": "uint256",
          "name": "offerId",
          "type": "uint256"
        },
        {
          "indexed": true,
          "internalType": "uint256",
          "name": "loanRequestId",
          "type": "uint256"
        },
        {
          "indexed": true,
          "internalType": "address",
          "name": "funder",
          "type": "address"
        },
        {
          "indexed": false,
          "internalType": "uint256",
          "name": "amount",
          "type": "uint256"
        }
      ],
      "name": "FundingOfferAccepted",
      "type": "event"
    },
    {
      "anonymous": false,
      "inputs": [
        {
          "indexed": true,
          "internalType": "uint256",
          "name": "offerId",
          "type": "uint256"
        },
        {
          "indexed": true,
          "internalType": "uint256",
          "name": "loanRequestId",
          "type": "uint256"
        },
        {
          "indexed": true,
          "internalType": "address",
          "name": "funder",
          "type": "address"
        }
      ],
      "name": "FundingOfferCancelled",
      "type": "event"
    },
    {
      "anonymous": false,
      "inputs": [
        {
          "indexed": true,
          "internalType": "uint256",
          "name": "offerId",
          "type": "uint256"
        },
        {
          "indexed": true,
          "internalType": "uint256",
          "name": "loanRequestId",
          "type": "uint256"
        },
        {
          "indexed": true,
          "internalType": "address",
          "name": "funder",
          "type": "address"
        },
        {
          "indexed": false,
          "internalType": "uint256",
          "name": "amount",
          "type": "uint256"
        },
        {
          "indexed": false,
          "internalType": "uint256",
          "name": "percentage",
          "type": "uint256"
        }
      ],
      "name": "FundingOfferCreated",
      "type": "event"
    },
    {
      "anonymous": false,
      "inputs": [
        {
          "indexed": true,
          "internalType": "uint256",
          "name": "requestId",
          "type": "uint256"
        },
        {
          "indexed": true,
          "internalType": "address",
          "name": "borrower",
          "type": "address"
        }
      ],
      "name": "LoanRequestCancelled",
      "type": "event"
    },
    {
      "anonymous": false,
      "inputs": [
        {
          "indexed": true,
          "internalType": "uint256",
          "name": "requestId",
          "type": "uint256"
        },
        {
          "indexed": true,
          "internalType": "address",
          "name": "borrower",
          "type": "address"
        },
        {
          "indexed": false,
          "internalType": "address",
          "name": "tokenToBorrow",
          "type": "address"
        },
        {
          "indexed": false,
          "internalType": "uint256",
          "name": "amount",
          "type": "uint256"
        }
      ],
      "name": "LoanRequestCreated",
      "type": "event"
    },
    {
      "inputs": [
        {
          "internalType": "uint256",
          "name": "_loanRequestId",
          "type": "uint256"
        },
        {
          "internalType": "uint256",
          "name": "_offerId",
          "type": "uint256"
        }
      ],
      "name": "acceptFundingOffer",
      "outputs": [],
      "stateMutability": "nonpayable",
      "type": "function"
    },
    {
      "inputs": [
        {
          "internalType": "uint256",
          "name": "_loanRequestId",
          "type": "uint256"
        },
        {
          "internalType": "uint256",
          "name": "_offerId",
          "type": "uint256"
        }
      ],
      "name": "cancelFundingOffer",
      "outputs": [],
      "stateMutability": "nonpayable",
      "type": "function"
    },
    {
      "inputs": [
        {
          "internalType": "uint256",
          "name": "_requestId",
          "type": "uint256"
        }
      ],
      "name": "cancelLoanRequest",
      "outputs": [],
      "stateMutability": "nonpayable",
      "type": "function"
    },
    {
      "inputs": [
        {
          "internalType": "uint256",
          "name": "_loanRequestId",
          "type": "uint256"
        },
        {
          "internalType": "uint256",
          "name": "_percentage",
          "type": "uint256"
        }
      ],
      "name": "createFundingOffer",
      "outputs": [
        {
          "internalType": "uint256",
          "name": "",
          "type": "uint256"
        }
      ],
      "stateMutability": "nonpayable",
      "type": "function"
    },
    {
      "inputs": [
        {
          "internalType": "address",
          "name": "_tokenToBorrow",
          "type": "address"
        },
        {
          "internalType": "uint256",
          "name": "_amount",
          "type": "uint256"
        },
        {
          "internalType": "uint256",
          "name": "_duration",
          "type": "uint256"
        }
      ],
      "name": "createLoanRequest",
      "outputs": [
        {
          "internalType": "uint256",
          "name": "",
          "type": "uint256"
        }
      ],
      "stateMutability": "nonpayable",
      "type": "function"
    },
    {
      "inputs": [
        {
          "internalType": "uint256",
          "name": "_requestId",
          "type": "uint256"
        },
        {
          "internalType": "address",
          "name": "_nftAddress",
          "type": "address"
        },
        {
          "internalType": "uint256",
          "name": "_tokenId",
          "type": "uint256"
        }
      ],
      "name": "depositNFTCollateral",
      "outputs": [],
      "stateMutability": "nonpayable",
      "type": "function"
    },
    {
      "inputs": [
        {
          "internalType": "uint256",
          "name": "_requestId",
          "type": "uint256"
        },
        {
          "internalType": "address",
          "name": "_tokenAddress",
          "type": "address"
        },
        {
          "internalType": "uint256",
          "name": "_amount",
          "type": "uint256"
        }
      ],
      "name": "depositTokenCollateral",
      "outputs": [],
      "stateMutability": "nonpayable",
      "type": "function"
    },
    {
      "inputs": [
        {
          "internalType": "uint256",
          "name": "",
          "type": "uint256"
        },
        {
          "internalType": "uint256",
          "name": "",
          "type": "uint256"
        }
      ],
      "name": "fundingOffersByLoanRequest",
      "outputs": [
        {
          "internalType": "uint256",
          "name": "id",
          "type": "uint256"
        },
        {
          "internalType": "uint256",
          "name": "loanRequestId",
          "type": "uint256"
        },
        {
          "internalType": "address",
          "name": "funder",
          "type": "address"
        },
        {
          "internalType": "uint256",
          "name": "amount",
          "type": "uint256"
        },
        {
          "internalType": "uint256",
          "name": "percentage",
          "type": "uint256"
        },
        {
          "internalType": "bool",
          "name": "isActive",
          "type": "bool"
        },
        {
          "internalType": "bool",
          "name": "isAccepted",
          "type": "bool"
        },
        {
          "internalType": "bool",
          "name": "isCancelled",
          "type": "bool"
        }
      ],
      "stateMutability": "view",
      "type": "function"
    },
    {
      "inputs": [],
      "name": "getAllLoanRequests",
      "outputs": [
        {
          "components": [
            {
              "internalType": "uint256",
              "name": "id",
              "type": "uint256"
            },
            {
              "internalType": "address",
              "name": "borrower",
              "type": "address"
            },
            {
              "internalType": "address",
              "name": "tokenToBorrow",
              "type": "address"
            },
            {
              "internalType": "uint256",
              "name": "amount",
              "type": "uint256"
            },
            {
              "internalType": "uint256",
              "name": "remainingAmount",
              "type": "uint256"
            },
            {
              "internalType": "uint256",
              "name": "duration",
              "type": "uint256"
            },
            {
              "internalType": "address",
              "name": "collateralAddress",
              "type": "address"
            },
            {
              "internalType": "uint256",
              "name": "collateralId",
              "type": "uint256"
            },
            {
              "internalType": "uint256",
              "name": "collateralAmount",
              "type": "uint256"
            },
            {
              "internalType": "bool",
              "name": "isActive",
              "type": "bool"
            },
            {
              "internalType": "bool",
              "name": "isFullyFunded",
              "type": "bool"
            },
            {
              "internalType": "bool",
              "name": "isCancelled",
              "type": "bool"
            },
            {
              "internalType": "address[]",
              "name": "lenders",
              "type": "address[]"
            }
          ],
          "internalType": "struct LoanRequestContract.LoanRequest[]",
          "name": "",
          "type": "tuple[]"
        }
      ],
      "stateMutability": "view",
      "type": "function"
    },
    {
      "inputs": [],
      "name": "getAllLoanRequestsWithFundingOffers",
      "outputs": [
        {
          "components": [
            {
              "internalType": "uint256",
              "name": "id",
              "type": "uint256"
            },
            {
              "internalType": "address",
              "name": "borrower",
              "type": "address"
            },
            {
              "internalType": "address",
              "name": "tokenToBorrow",
              "type": "address"
            },
            {
              "internalType": "uint256",
              "name": "amount",
              "type": "uint256"
            },
            {
              "internalType": "uint256",
              "name": "remainingAmount",
              "type": "uint256"
            },
            {
              "internalType": "uint256",
              "name": "duration",
              "type": "uint256"
            },
            {
              "internalType": "address",
              "name": "collateralAddress",
              "type": "address"
            },
            {
              "internalType": "uint256",
              "name": "collateralId",
              "type": "uint256"
            },
            {
              "internalType": "uint256",
              "name": "collateralAmount",
              "type": "uint256"
            },
            {
              "internalType": "bool",
              "name": "isActive",
              "type": "bool"
            },
            {
              "internalType": "bool",
              "name": "isFullyFunded",
              "type": "bool"
            },
            {
              "internalType": "bool",
              "name": "isCancelled",
              "type": "bool"
            },
            {
              "internalType": "address[]",
              "name": "lenders",
              "type": "address[]"
            }
          ],
          "internalType": "struct LoanRequestContract.LoanRequest[]",
          "name": "",
          "type": "tuple[]"
        },
        {
          "components": [
            {
              "internalType": "uint256",
              "name": "id",
              "type": "uint256"
            },
            {
              "internalType": "uint256",
              "name": "loanRequestId",
              "type": "uint256"
            },
            {
              "internalType": "address",
              "name": "funder",
              "type": "address"
            },
            {
              "internalType": "uint256",
              "name": "amount",
              "type": "uint256"
            },
            {
              "internalType": "uint256",
              "name": "percentage",
              "type": "uint256"
            },
            {
              "internalType": "bool",
              "name": "isActive",
              "type": "bool"
            },
            {
              "internalType": "bool",
              "name": "isAccepted",
              "type": "bool"
            },
            {
              "internalType": "bool",
              "name": "isCancelled",
              "type": "bool"
            }
          ],
          "internalType": "struct LoanRequestContract.FundingOffer[][]",
          "name": "",
          "type": "tuple[][]"
        }
      ],
      "stateMutability": "view",
      "type": "function"
    },
    {
      "inputs": [
        {
          "internalType": "uint256",
          "name": "_loanRequestId",
          "type": "uint256"
        }
      ],
      "name": "getFundingOffersForLoanRequest",
      "outputs": [
        {
          "components": [
            {
              "internalType": "uint256",
              "name": "id",
              "type": "uint256"
            },
            {
              "internalType": "uint256",
              "name": "loanRequestId",
              "type": "uint256"
            },
            {
              "internalType": "address",
              "name": "funder",
              "type": "address"
            },
            {
              "internalType": "uint256",
              "name": "amount",
              "type": "uint256"
            },
            {
              "internalType": "uint256",
              "name": "percentage",
              "type": "uint256"
            },
            {
              "internalType": "bool",
              "name": "isActive",
              "type": "bool"
            },
            {
              "internalType": "bool",
              "name": "isAccepted",
              "type": "bool"
            },
            {
              "internalType": "bool",
              "name": "isCancelled",
              "type": "bool"
            }
          ],
          "internalType": "struct LoanRequestContract.FundingOffer[]",
          "name": "",
          "type": "tuple[]"
        }
      ],
      "stateMutability": "view",
      "type": "function"
    },
    {
      "inputs": [
        {
          "internalType": "uint256",
          "name": "_requestId",
          "type": "uint256"
        }
      ],
      "name": "getLoanRequestById",
      "outputs": [
        {
          "components": [
            {
              "internalType": "uint256",
              "name": "id",
              "type": "uint256"
            },
            {
              "internalType": "address",
              "name": "borrower",
              "type": "address"
            },
            {
              "internalType": "address",
              "name": "tokenToBorrow",
              "type": "address"
            },
            {
              "internalType": "uint256",
              "name": "amount",
              "type": "uint256"
            },
            {
              "internalType": "uint256",
              "name": "remainingAmount",
              "type": "uint256"
            },
            {
              "internalType": "uint256",
              "name": "duration",
              "type": "uint256"
            },
            {
              "internalType": "address",
              "name": "collateralAddress",
              "type": "address"
            },
            {
              "internalType": "uint256",
              "name": "collateralId",
              "type": "uint256"
            },
            {
              "internalType": "uint256",
              "name": "collateralAmount",
              "type": "uint256"
            },
            {
              "internalType": "bool",
              "name": "isActive",
              "type": "bool"
            },
            {
              "internalType": "bool",
              "name": "isFullyFunded",
              "type": "bool"
            },
            {
              "internalType": "bool",
              "name": "isCancelled",
              "type": "bool"
            },
            {
              "internalType": "address[]",
              "name": "lenders",
              "type": "address[]"
            }
          ],
          "internalType": "struct LoanRequestContract.LoanRequest",
          "name": "",
          "type": "tuple"
        }
      ],
      "stateMutability": "view",
      "type": "function"
    },
    {
      "inputs": [],
      "name": "getLoanRequestsCount",
      "outputs": [
        {
          "internalType": "uint256",
          "name": "",
          "type": "uint256"
        }
      ],
      "stateMutability": "view",
      "type": "function"
    },
    {
      "inputs": [
        {
          "internalType": "address",
          "name": "_borrower",
          "type": "address"
        }
      ],
      "name": "getLoanRequestsForBorrower",
      "outputs": [
        {
          "components": [
            {
              "internalType": "uint256",
              "name": "id",
              "type": "uint256"
            },
            {
              "internalType": "address",
              "name": "borrower",
              "type": "address"
            },
            {
              "internalType": "address",
              "name": "tokenToBorrow",
              "type": "address"
            },
            {
              "internalType": "uint256",
              "name": "amount",
              "type": "uint256"
            },
            {
              "internalType": "uint256",
              "name": "remainingAmount",
              "type": "uint256"
            },
            {
              "internalType": "uint256",
              "name": "duration",
              "type": "uint256"
            },
            {
              "internalType": "address",
              "name": "collateralAddress",
              "type": "address"
            },
            {
              "internalType": "uint256",
              "name": "collateralId",
              "type": "uint256"
            },
            {
              "internalType": "uint256",
              "name": "collateralAmount",
              "type": "uint256"
            },
            {
              "internalType": "bool",
              "name": "isActive",
              "type": "bool"
            },
            {
              "internalType": "bool",
              "name": "isFullyFunded",
              "type": "bool"
            },
            {
              "internalType": "bool",
              "name": "isCancelled",
              "type": "bool"
            },
            {
              "internalType": "address[]",
              "name": "lenders",
              "type": "address[]"
            }
          ],
          "internalType": "struct LoanRequestContract.LoanRequest[]",
          "name": "",
          "type": "tuple[]"
        }
      ],
      "stateMutability": "view",
      "type": "function"
    },
    {
      "inputs": [
        {
          "internalType": "uint256",
          "name": "",
          "type": "uint256"
        }
      ],
      "name": "loanRequestIds",
      "outputs": [
        {
          "internalType": "uint256",
          "name": "",
          "type": "uint256"
        }
      ],
      "stateMutability": "view",
      "type": "function"
    },
    {
      "inputs": [
        {
          "internalType": "uint256",
          "name": "",
          "type": "uint256"
        }
      ],
      "name": "loanRequests",
      "outputs": [
        {
          "internalType": "uint256",
          "name": "id",
          "type": "uint256"
        },
        {
          "internalType": "address",
          "name": "borrower",
          "type": "address"
        },
        {
          "internalType": "address",
          "name": "tokenToBorrow",
          "type": "address"
        },
        {
          "internalType": "uint256",
          "name": "amount",
          "type": "uint256"
        },
        {
          "internalType": "uint256",
          "name": "remainingAmount",
          "type": "uint256"
        },
        {
          "internalType": "uint256",
          "name": "duration",
          "type": "uint256"
        },
        {
          "internalType": "address",
          "name": "collateralAddress",
          "type": "address"
        },
        {
          "internalType": "uint256",
          "name": "collateralId",
          "type": "uint256"
        },
        {
          "internalType": "uint256",
          "name": "collateralAmount",
          "type": "uint256"
        },
        {
          "internalType": "bool",
          "name": "isActive",
          "type": "bool"
        },
        {
          "internalType": "bool",
          "name": "isFullyFunded",
          "type": "bool"
        },
        {
          "internalType": "bool",
          "name": "isCancelled",
          "type": "bool"
        }
      ],
      "stateMutability": "view",
      "type": "function"
    },
    {
      "inputs": [
        {
          "internalType": "address",
          "name": "",
          "type": "address"
        },
        {
          "internalType": "uint256",
          "name": "",
          "type": "uint256"
        }
      ],
      "name": "loanRequestsByBorrower",
      "outputs": [
        {
          "internalType": "uint256",
          "name": "",
          "type": "uint256"
        }
      ],
      "stateMutability": "view",
      "type": "function"
    }
  ],
  "bytecode": "0x6080604052348015600f57600080fd5b506001600081905550614b93806100276000396000f3fe608060405234801561001057600080fd5b506004361061010b5760003560e01c80637537f4cd116100a2578063b01d419c11610071578063b01d419c146102f0578063d1b332f41461030f578063eaad79711461034a578063f7ff181514610366578063f84cb8ae1461039d5761010b565b80637537f4cd1461026a57806376b8c709146102885780639d654d3d146102a4578063aafe2cad146102c05761010b565b806345d74a60116100de57806345d74a60146101be5780635549e7bb146101ee5780635a6803671461021e5780635ab769161461023a5761010b565b806306aa58f5146101105780630c9babc314610140578063373120a61461015e5780633ef7cd791461018e575b600080fd5b61012a6004803603810190610125919061338b565b6103b9565b60405161013791906133ed565b60405180910390f35b6101486107d1565b60405161015591906136cb565b60405180910390f35b610178600480360381019061017391906136ed565b610acd565b6040516101859190613833565b60405180910390f35b6101a860048036038101906101a39190613855565b610d69565b6040516101b591906133ed565b60405180910390f35b6101d860048036038101906101d391906136ed565b6110de565b6040516101e591906133ed565b60405180910390f35b61020860048036038101906102039190613895565b611102565b60405161021591906136cb565b60405180910390f35b610238600480360381019061023391906136ed565b611487565b005b610254600480360381019061024f91906138c2565b611853565b60405161026191906133ed565b60405180910390f35b610272611884565b60405161027f91906133ed565b60405180910390f35b6102a2600480360381019061029d9190613902565b611891565b005b6102be60048036038101906102b99190613855565b611c4b565b005b6102da60048036038101906102d591906136ed565b611fbc565b6040516102e79190613aa7565b60405180910390f35b6102f861214f565b604051610306929190613bfa565b60405180910390f35b610329600480360381019061032491906136ed565b612605565b6040516103419c9b9a99989796959493929190613c4f565b60405180910390f35b610364600480360381019061035f9190613902565b6126ec565b005b610380600480360381019061037b9190613855565b612a8d565b604051610394989796959493929190613d09565b60405180910390f35b6103b760048036038101906103b29190613855565b612b39565b005b60008073ffffffffffffffffffffffffffffffffffffffff168473ffffffffffffffffffffffffffffffffffffffff1603610429576040517f08c379a000000000000000000000000000000000000000000000000000000000815260040161042090613de4565b60405180910390fd5b6001600081548092919061043c90613e33565b9190505550600060015490506000604051806101a001604052808381526020013373ffffffffffffffffffffffffffffffffffffffff1681526020018773ffffffffffffffffffffffffffffffffffffffff168152602001868152602001868152602001858152602001600073ffffffffffffffffffffffffffffffffffffffff1681526020016000815260200160008152602001600115158152602001600015158152602001600015158152602001600067ffffffffffffffff81111561050757610506613e7b565b5b6040519080825280602002602001820160405280156105355781602001602082028036833780820191505090505b50815250905080600360008481526020019081526020016000206000820151816000015560208201518160010160006101000a81548173ffffffffffffffffffffffffffffffffffffffff021916908373ffffffffffffffffffffffffffffffffffffffff16021790555060408201518160020160006101000a81548173ffffffffffffffffffffffffffffffffffffffff021916908373ffffffffffffffffffffffffffffffffffffffff160217905550606082015181600301556080820151816004015560a0820151816005015560c08201518160060160006101000a81548173ffffffffffffffffffffffffffffffffffffffff021916908373ffffffffffffffffffffffffffffffffffffffff16021790555060e0820151816007015561010082015181600801556101208201518160090160006101000a81548160ff0219169083151502179055506101408201518160090160016101000a81548160ff0219169083151502179055506101608201518160090160026101000a81548160ff02191690831515021790555061018082015181600a0190805190602001906106e192919061319b565b509050506006829080600181540180825580915050600190039060005260206000200160009091909190915055600560003373ffffffffffffffffffffffffffffffffffffffff1673ffffffffffffffffffffffffffffffffffffffff1681526020019081526020016000208290806001815401808255809150506001900390600052602060002001600090919091909150553373ffffffffffffffffffffffffffffffffffffffff16827f454d52df11a78021408eef6a9b8d6d77e7368abdeea429906c952ac415ed8f0588886040516107bd929190613eaa565b60405180910390a381925050509392505050565b6060600060068054905067ffffffffffffffff8111156107f4576107f3613e7b565b5b60405190808252806020026020018201604052801561082d57816020015b61081a613225565b8152602001906001900390816108125790505b50905060005b600680549050811015610ac557600360006006838154811061085857610857613ed3565b5b90600052602060002001548152602001908152602001600020604051806101a0016040529081600082015481526020016001820160009054906101000a900473ffffffffffffffffffffffffffffffffffffffff1673ffffffffffffffffffffffffffffffffffffffff1673ffffffffffffffffffffffffffffffffffffffff1681526020016002820160009054906101000a900473ffffffffffffffffffffffffffffffffffffffff1673ffffffffffffffffffffffffffffffffffffffff1673ffffffffffffffffffffffffffffffffffffffff1681526020016003820154815260200160048201548152602001600582015481526020016006820160009054906101000a900473ffffffffffffffffffffffffffffffffffffffff1673ffffffffffffffffffffffffffffffffffffffff1673ffffffffffffffffffffffffffffffffffffffff16815260200160078201548152602001600882015481526020016009820160009054906101000a900460ff161515151581526020016009820160019054906101000a900460ff161515151581526020016009820160029054906101000a900460ff16151515158152602001600a8201805480602002602001604051908101604052809291908181526020018280548015610a9157602002820191906000526020600020905b8160009054906101000a900473ffffffffffffffffffffffffffffffffffffffff1673ffffffffffffffffffffffffffffffffffffffff1681526020019060010190808311610a47575b505050505081525050828281518110610aad57610aac613ed3565b5b60200260200101819052508080600101915050610833565b508091505090565b610ad5613225565b600082118015610ae757506001548211155b610b26576040517f08c379a0000000000000000000000000000000000000000000000000000000008152600401610b1d90613f4e565b60405180910390fd5b60036000838152602001908152602001600020604051806101a0016040529081600082015481526020016001820160009054906101000a900473ffffffffffffffffffffffffffffffffffffffff1673ffffffffffffffffffffffffffffffffffffffff1673ffffffffffffffffffffffffffffffffffffffff1681526020016002820160009054906101000a900473ffffffffffffffffffffffffffffffffffffffff1673ffffffffffffffffffffffffffffffffffffffff1673ffffffffffffffffffffffffffffffffffffffff1681526020016003820154815260200160048201548152602001600582015481526020016006820160009054906101000a900473ffffffffffffffffffffffffffffffffffffffff1673ffffffffffffffffffffffffffffffffffffffff1673ffffffffffffffffffffffffffffffffffffffff16815260200160078201548152602001600882015481526020016009820160009054906101000a900460ff161515151581526020016009820160019054906101000a900460ff161515151581526020016009820160029054906101000a900460ff16151515158152602001600a8201805480602002602001604051908101604052809291908181526020018280548015610d5957602002820191906000526020600020905b8160009054906101000a900473ffffffffffffffffffffffffffffffffffffffff1673ffffffffffffffffffffffffffffffffffffffff1681526020019060010190808311610d0f575b5050505050815250509050919050565b60008083118015610d7c57506001548311155b610dbb576040517f08c379a0000000000000000000000000000000000000000000000000000000008152600401610db290613fba565b60405180910390fd5b600082118015610dcc575060648211155b610e0b576040517f08c379a0000000000000000000000000000000000000000000000000000000008152600401610e0290614026565b60405180910390fd5b60006003600085815260200190815260200160002090508060090160009054906101000a900460ff168015610e4f57508060090160019054906101000a900460ff16155b610e8e576040517f08c379a0000000000000000000000000000000000000000000000000000000008152600401610e85906140b8565b60405180910390fd5b60006064848360030154610ea291906140d8565b610eac9190614149565b90508160040154811115610ef5576040517f08c379a0000000000000000000000000000000000000000000000000000000008152600401610eec906141ec565b60405180910390fd5b60026000815480929190610f0890613e33565b91905055506000600254905060006040518061010001604052808381526020018881526020013373ffffffffffffffffffffffffffffffffffffffff16815260200184815260200187815260200160011515815260200160001515815260200160001515815250905060046000888152602001908152602001600020819080600181540180825580915050600190039060005260206000209060060201600090919091909150600082015181600001556020820151816001015560408201518160020160006101000a81548173ffffffffffffffffffffffffffffffffffffffff021916908373ffffffffffffffffffffffffffffffffffffffff160217905550606082015181600301556080820151816004015560a08201518160050160006101000a81548160ff02191690831515021790555060c08201518160050160016101000a81548160ff02191690831515021790555060e08201518160050160026101000a81548160ff02191690831515021790555050503373ffffffffffffffffffffffffffffffffffffffff1687837f8b37efb46233858b88e3c15961601cf5ef5e0040ecd78235f1d38ec8feee28a4868a6040516110c992919061420c565b60405180910390a48194505050505092915050565b600681815481106110ee57600080fd5b906000526020600020016000915090505481565b60606000600560008473ffffffffffffffffffffffffffffffffffffffff1673ffffffffffffffffffffffffffffffffffffffff16815260200190815260200160002080548060200260200160405190810160405280929190818152602001828054801561118f57602002820191906000526020600020905b81548152602001906001019080831161117b575b505050505090506000815167ffffffffffffffff8111156111b3576111b2613e7b565b5b6040519080825280602002602001820160405280156111ec57816020015b6111d9613225565b8152602001906001900390816111d15790505b50905060005b825181101561147c576003600084838151811061121257611211613ed3565b5b60200260200101518152602001908152602001600020604051806101a0016040529081600082015481526020016001820160009054906101000a900473ffffffffffffffffffffffffffffffffffffffff1673ffffffffffffffffffffffffffffffffffffffff1673ffffffffffffffffffffffffffffffffffffffff1681526020016002820160009054906101000a900473ffffffffffffffffffffffffffffffffffffffff1673ffffffffffffffffffffffffffffffffffffffff1673ffffffffffffffffffffffffffffffffffffffff1681526020016003820154815260200160048201548152602001600582015481526020016006820160009054906101000a900473ffffffffffffffffffffffffffffffffffffffff1673ffffffffffffffffffffffffffffffffffffffff1673ffffffffffffffffffffffffffffffffffffffff16815260200160078201548152602001600882015481526020016009820160009054906101000a900460ff161515151581526020016009820160019054906101000a900460ff161515151581526020016009820160029054906101000a900460ff16151515158152602001600a820180548060200260200160405190810160405280929190818152602001828054801561144857602002820191906000526020600020905b8160009054906101000a900473ffffffffffffffffffffffffffffffffffffffff1673ffffffffffffffffffffffffffffffffffffffff16815260200190600101908083116113fe575b50505050508152505082828151811061146457611463613ed3565b5b602002602001018190525080806001019150506111f2565b508092505050919050565b60006003600083815260200190815260200160002090508060010160009054906101000a900473ffffffffffffffffffffffffffffffffffffffff1673ffffffffffffffffffffffffffffffffffffffff163373ffffffffffffffffffffffffffffffffffffffff1614611530576040517f08c379a0000000000000000000000000000000000000000000000000000000008152600401611527906142a7565b60405180910390fd5b8060090160009054906101000a900460ff16611581576040517f08c379a000000000000000000000000000000000000000000000000000000000815260040161157890614313565b60405180910390fd5b8060090160019054906101000a900460ff16156115d3576040517f08c379a00000000000000000000000000000000000000000000000000000000081526004016115ca906143a5565b60405180910390fd5b60008160090160006101000a81548160ff02191690831515021790555060018160090160026101000a81548160ff021916908315150217905550600073ffffffffffffffffffffffffffffffffffffffff168160060160009054906101000a900473ffffffffffffffffffffffffffffffffffffffff1673ffffffffffffffffffffffffffffffffffffffff161461180b576000816007015414611731578060060160009054906101000a900473ffffffffffffffffffffffffffffffffffffffff1673ffffffffffffffffffffffffffffffffffffffff166323b872dd308360010160009054906101000a900473ffffffffffffffffffffffffffffffffffffffff1684600701546040518463ffffffff1660e01b81526004016116fa939291906143c5565b600060405180830381600087803b15801561171457600080fd5b505af1158015611728573d6000803e3d6000fd5b5050505061180a565b6000816008015414611809578060060160009054906101000a900473ffffffffffffffffffffffffffffffffffffffff1673ffffffffffffffffffffffffffffffffffffffff1663a9059cbb8260010160009054906101000a900473ffffffffffffffffffffffffffffffffffffffff1683600801546040518363ffffffff1660e01b81526004016117c4929190613eaa565b6020604051808303816000875af11580156117e3573d6000803e3d6000fd5b505050506040513d601f19601f820116820180604052508101906118079190614428565b505b5b5b3373ffffffffffffffffffffffffffffffffffffffff16827fa3052c24e977f99a03cf30c20f274f2e2f732c8916f7fd1f49263eb6844dcd4e60405160405180910390a35050565b6005602052816000526040600020818154811061186f57600080fd5b90600052602060002001600091509150505481565b6000600680549050905090565b3373ffffffffffffffffffffffffffffffffffffffff166003600085815260200190815260200160002060010160009054906101000a900473ffffffffffffffffffffffffffffffffffffffff1673ffffffffffffffffffffffffffffffffffffffff1614611935576040517f08c379a000000000000000000000000000000000000000000000000000000000815260040161192c906144a1565b60405180910390fd5b6003600084815260200190815260200160002060090160009054906101000a900460ff16611998576040517f08c379a000000000000000000000000000000000000000000000000000000000815260040161198f90614313565b60405180910390fd5b600073ffffffffffffffffffffffffffffffffffffffff166003600085815260200190815260200160002060060160009054906101000a900473ffffffffffffffffffffffffffffffffffffffff1673ffffffffffffffffffffffffffffffffffffffff1614611a3d576040517f08c379a0000000000000000000000000000000000000000000000000000000008152600401611a349061450d565b60405180910390fd5b60008290503373ffffffffffffffffffffffffffffffffffffffff168173ffffffffffffffffffffffffffffffffffffffff16636352211e846040518263ffffffff1660e01b8152600401611a9291906133ed565b602060405180830381865afa158015611aaf573d6000803e3d6000fd5b505050506040513d601f19601f82011682018060405250810190611ad39190614542565b73ffffffffffffffffffffffffffffffffffffffff1614611b29576040517f08c379a0000000000000000000000000000000000000000000000000000000008152600401611b20906145bb565b60405180910390fd5b8073ffffffffffffffffffffffffffffffffffffffff166323b872dd3330856040518463ffffffff1660e01b8152600401611b66939291906143c5565b600060405180830381600087803b158015611b8057600080fd5b505af1158015611b94573d6000803e3d6000fd5b50505050826003600086815260200190815260200160002060060160006101000a81548173ffffffffffffffffffffffffffffffffffffffff021916908373ffffffffffffffffffffffffffffffffffffffff160217905550816003600086815260200190815260200160002060070181905550837f04790cfcf9b2380d7da5dc6b3f484cf36e54c176ad3f9755ad0b02c00096cf5c84846000604051611c3d93929190614620565b60405180910390a250505050565b600082118015611c5d57506001548211155b611c9c576040517f08c379a0000000000000000000000000000000000000000000000000000000008152600401611c9390613fba565b60405180910390fd5b600060046000848152602001908152602001600020905060007fffffffffffffffffffffffffffffffffffffffffffffffffffffffffffffffff905060005b8280549050811015611d275783838281548110611cfb57611cfa613ed3565b5b90600052602060002090600602016000015403611d1a57809150611d27565b8080600101915050611cdb565b507fffffffffffffffffffffffffffffffffffffffffffffffffffffffffffffffff8103611d8a576040517f08c379a0000000000000000000000000000000000000000000000000000000008152600401611d81906146a3565b60405180910390fd5b6000828281548110611d9f57611d9e613ed3565b5b906000526020600020906006020190508060020160009054906101000a900473ffffffffffffffffffffffffffffffffffffffff1673ffffffffffffffffffffffffffffffffffffffff163373ffffffffffffffffffffffffffffffffffffffff1614611e41576040517f08c379a0000000000000000000000000000000000000000000000000000000008152600401611e3890614735565b60405180910390fd5b8060050160009054906101000a900460ff16611e92576040517f08c379a0000000000000000000000000000000000000000000000000000000008152600401611e89906147a1565b60405180910390fd5b8060050160019054906101000a900460ff1615611ee4576040517f08c379a0000000000000000000000000000000000000000000000000000000008152600401611edb9061480d565b60405180910390fd5b8060050160029054906101000a900460ff1615611f36576040517f08c379a0000000000000000000000000000000000000000000000000000000008152600401611f2d90614879565b60405180910390fd5b60008160050160006101000a81548160ff02191690831515021790555060018160050160026101000a81548160ff0219169083151502179055503373ffffffffffffffffffffffffffffffffffffffff1685857fb921f2d5f7f79055bdb1f71ec3286139ccb3c9677c58715dcd47e74ad476e4fb60405160405180910390a45050505050565b6060600082118015611fd057506001548211155b61200f576040517f08c379a000000000000000000000000000000000000000000000000000000000815260040161200690613fba565b60405180910390fd5b60046000838152602001908152602001600020805480602002602001604051908101604052809291908181526020016000905b8282101561214457838290600052602060002090600602016040518061010001604052908160008201548152602001600182015481526020016002820160009054906101000a900473ffffffffffffffffffffffffffffffffffffffff1673ffffffffffffffffffffffffffffffffffffffff1673ffffffffffffffffffffffffffffffffffffffff16815260200160038201548152602001600482015481526020016005820160009054906101000a900460ff161515151581526020016005820160019054906101000a900460ff161515151581526020016005820160029054906101000a900460ff16151515158152505081526020019060010190612042565b505050509050919050565b606080600060068054905067ffffffffffffffff81111561217357612172613e7b565b5b6040519080825280602002602001820160405280156121ac57816020015b612199613225565b8152602001906001900390816121915790505b509050600060068054905067ffffffffffffffff8111156121d0576121cf613e7b565b5b60405190808252806020026020018201604052801561220357816020015b60608152602001906001900390816121ee5790505b50905060005b6006805490508110156125f85760006006828154811061222c5761222b613ed3565b5b9060005260206000200154905060036000828152602001908152602001600020604051806101a0016040529081600082015481526020016001820160009054906101000a900473ffffffffffffffffffffffffffffffffffffffff1673ffffffffffffffffffffffffffffffffffffffff1673ffffffffffffffffffffffffffffffffffffffff1681526020016002820160009054906101000a900473ffffffffffffffffffffffffffffffffffffffff1673ffffffffffffffffffffffffffffffffffffffff1673ffffffffffffffffffffffffffffffffffffffff1681526020016003820154815260200160048201548152602001600582015481526020016006820160009054906101000a900473ffffffffffffffffffffffffffffffffffffffff1673ffffffffffffffffffffffffffffffffffffffff1673ffffffffffffffffffffffffffffffffffffffff16815260200160078201548152602001600882015481526020016009820160009054906101000a900460ff161515151581526020016009820160019054906101000a900460ff161515151581526020016009820160029054906101000a900460ff16151515158152602001600a820180548060200260200160405190810160405280929190818152602001828054801561246c57602002820191906000526020600020905b8160009054906101000a900473ffffffffffffffffffffffffffffffffffffffff1673ffffffffffffffffffffffffffffffffffffffff1681526020019060010190808311612422575b50505050508152505084838151811061248857612487613ed3565b5b602002602001018190525060046000828152602001908152602001600020805480602002602001604051908101604052809291908181526020016000905b828210156125c857838290600052602060002090600602016040518061010001604052908160008201548152602001600182015481526020016002820160009054906101000a900473ffffffffffffffffffffffffffffffffffffffff1673ffffffffffffffffffffffffffffffffffffffff1673ffffffffffffffffffffffffffffffffffffffff16815260200160038201548152602001600482015481526020016005820160009054906101000a900460ff161515151581526020016005820160019054906101000a900460ff161515151581526020016005820160029054906101000a900460ff161515151581525050815260200190600101906124c6565b505050508383815181106125df576125de613ed3565b5b6020026020010181905250508080600101915050612209565b5081819350935050509091565b60036020528060005260406000206000915090508060000154908060010160009054906101000a900473ffffffffffffffffffffffffffffffffffffffff16908060020160009054906101000a900473ffffffffffffffffffffffffffffffffffffffff16908060030154908060040154908060050154908060060160009054906101000a900473ffffffffffffffffffffffffffffffffffffffff16908060070154908060080154908060090160009054906101000a900460ff16908060090160019054906101000a900460ff16908060090160029054906101000a900460ff1690508c565b3373ffffffffffffffffffffffffffffffffffffffff166003600085815260200190815260200160002060010160009054906101000a900473ffffffffffffffffffffffffffffffffffffffff1673ffffffffffffffffffffffffffffffffffffffff1614612790576040517f08c379a0000000000000000000000000000000000000000000000000000000008152600401612787906144a1565b60405180910390fd5b6003600084815260200190815260200160002060090160009054906101000a900460ff166127f3576040517f08c379a00000000000000000000000000000000000000000000000000000000081526004016127ea90614313565b60405180910390fd5b600073ffffffffffffffffffffffffffffffffffffffff166003600085815260200190815260200160002060060160009054906101000a900473ffffffffffffffffffffffffffffffffffffffff1673ffffffffffffffffffffffffffffffffffffffff1614612898576040517f08c379a000000000000000000000000000000000000000000000000000000000815260040161288f9061450d565b60405180910390fd5b6000829050818173ffffffffffffffffffffffffffffffffffffffff166370a08231336040518263ffffffff1660e01b81526004016128d79190614899565b602060405180830381865afa1580156128f4573d6000803e3d6000fd5b505050506040513d601f19601f8201168201806040525081019061291891906148c9565b1015612959576040517f08c379a000000000000000000000000000000000000000000000000000000000815260040161295090614942565b60405180910390fd5b8073ffffffffffffffffffffffffffffffffffffffff166323b872dd3330856040518463ffffffff1660e01b8152600401612996939291906143c5565b6020604051808303816000875af11580156129b5573d6000803e3d6000fd5b505050506040513d601f19601f820116820180604052508101906129d99190614428565b50826003600086815260200190815260200160002060060160006101000a81548173ffffffffffffffffffffffffffffffffffffffff021916908373ffffffffffffffffffffffffffffffffffffffff160217905550816003600086815260200190815260200160002060080181905550837f04790cfcf9b2380d7da5dc6b3f484cf36e54c176ad3f9755ad0b02c00096cf5c84600085604051612a7f93929190614962565b60405180910390a250505050565b60046020528160005260406000208181548110612aa957600080fd5b9060005260206000209060060201600091509150508060000154908060010154908060020160009054906101000a900473ffffffffffffffffffffffffffffffffffffffff16908060030154908060040154908060050160009054906101000a900460ff16908060050160019054906101000a900460ff16908060050160029054906101000a900460ff16905088565b612b4161314b565b60006003600084815260200190815260200160002090508060010160009054906101000a900473ffffffffffffffffffffffffffffffffffffffff1673ffffffffffffffffffffffffffffffffffffffff163373ffffffffffffffffffffffffffffffffffffffff1614612bea576040517f08c379a0000000000000000000000000000000000000000000000000000000008152600401612be190614a0b565b60405180910390fd5b8060090160009054906101000a900460ff168015612c1757508060090160019054906101000a900460ff16155b612c56576040517f08c379a0000000000000000000000000000000000000000000000000000000008152600401612c4d906140b8565b60405180910390fd5b600060046000858152602001908152602001600020905060007fffffffffffffffffffffffffffffffffffffffffffffffffffffffffffffffff905060005b8280549050811015612d925784838281548110612cb557612cb4613ed3565b5b906000526020600020906006020160000154148015612d025750828181548110612ce257612ce1613ed3565b5b906000526020600020906006020160050160009054906101000a900460ff165b8015612d3d5750828181548110612d1c57612d1b613ed3565b5b906000526020600020906006020160050160019054906101000a900460ff16155b8015612d785750828181548110612d5757612d56613ed3565b5b906000526020600020906006020160050160029054906101000a900460ff16155b15612d8557809150612d92565b8080600101915050612c95565b507fffffffffffffffffffffffffffffffffffffffffffffffffffffffffffffffff8103612df5576040517f08c379a0000000000000000000000000000000000000000000000000000000008152600401612dec90614a9d565b60405180910390fd5b6000828281548110612e0a57612e09613ed3565b5b90600052602060002090600602019050836004015481600301541115612e65576040517f08c379a0000000000000000000000000000000000000000000000000000000008152600401612e5c906141ec565b60405180910390fd5b60008460020160009054906101000a900473ffffffffffffffffffffffffffffffffffffffff1690508073ffffffffffffffffffffffffffffffffffffffff166323b872dd8360020160009054906101000a900473ffffffffffffffffffffffffffffffffffffffff168760010160009054906101000a900473ffffffffffffffffffffffffffffffffffffffff1685600301546040518463ffffffff1660e01b8152600401612f17939291906143c5565b6020604051808303816000875af1158015612f36573d6000803e3d6000fd5b505050506040513d601f19601f82011682018060405250810190612f5a9190614428565b612f99576040517f08c379a0000000000000000000000000000000000000000000000000000000008152600401612f9090614b09565b60405180910390fd5b8160030154856004016000828254612fb19190614b29565b9250508190555084600a018260020160009054906101000a900473ffffffffffffffffffffffffffffffffffffffff169080600181540180825580915050600190039060005260206000200160009091909190916101000a81548173ffffffffffffffffffffffffffffffffffffffff021916908373ffffffffffffffffffffffffffffffffffffffff16021790555060018260050160016101000a81548160ff02191690831515021790555060008260050160006101000a81548160ff02191690831515021790555060008560040154036130c25760018560090160016101000a81548160ff02191690831515021790555060008560090160006101000a81548160ff0219169083151502179055505b8160020160009054906101000a900473ffffffffffffffffffffffffffffffffffffffff1673ffffffffffffffffffffffffffffffffffffffff1687877ffe1a51508fd66f0c643c905a33deb0134c8839827e44fb002f492f68ff519eb6856003015460405161313291906133ed565b60405180910390a45050505050613147613191565b5050565b600260005403613187576040517f3ee5aeb500000000000000000000000000000000000000000000000000000000815260040160405180910390fd5b6002600081905550565b6001600081905550565b828054828255906000526020600020908101928215613214579160200282015b828111156132135782518260006101000a81548173ffffffffffffffffffffffffffffffffffffffff021916908373ffffffffffffffffffffffffffffffffffffffff160217905550916020019190600101906131bb565b5b50905061322191906132d5565b5090565b604051806101a0016040528060008152602001600073ffffffffffffffffffffffffffffffffffffffff168152602001600073ffffffffffffffffffffffffffffffffffffffff168152602001600081526020016000815260200160008152602001600073ffffffffffffffffffffffffffffffffffffffff1681526020016000815260200160008152602001600015158152602001600015158152602001600015158152602001606081525090565b5b808211156132ee5760008160009055506001016132d6565b5090565b600080fd5b600073ffffffffffffffffffffffffffffffffffffffff82169050919050565b6000613322826132f7565b9050919050565b61333281613317565b811461333d57600080fd5b50565b60008135905061334f81613329565b92915050565b6000819050919050565b61336881613355565b811461337357600080fd5b50565b6000813590506133858161335f565b92915050565b6000806000606084860312156133a4576133a36132f2565b5b60006133b286828701613340565b93505060206133c386828701613376565b92505060406133d486828701613376565b9150509250925092565b6133e781613355565b82525050565b600060208201905061340260008301846133de565b92915050565b600081519050919050565b600082825260208201905092915050565b6000819050602082019050919050565b61343d81613355565b82525050565b61344c81613317565b82525050565b60008115159050919050565b61346781613452565b82525050565b600081519050919050565b600082825260208201905092915050565b6000819050602082019050919050565b60006134a58383613443565b60208301905092915050565b6000602082019050919050565b60006134c98261346d565b6134d38185613478565b93506134de83613489565b8060005b8381101561350f5781516134f68882613499565b9750613501836134b1565b9250506001810190506134e2565b5085935050505092915050565b60006101a0830160008301516135356000860182613434565b5060208301516135486020860182613443565b50604083015161355b6040860182613443565b50606083015161356e6060860182613434565b5060808301516135816080860182613434565b5060a083015161359460a0860182613434565b5060c08301516135a760c0860182613443565b5060e08301516135ba60e0860182613434565b506101008301516135cf610100860182613434565b506101208301516135e461012086018261345e565b506101408301516135f961014086018261345e565b5061016083015161360e61016086018261345e565b5061018083015184820361018086015261362882826134be565b9150508091505092915050565b6000613641838361351c565b905092915050565b6000602082019050919050565b600061366182613408565b61366b8185613413565b93508360208202850161367d85613424565b8060005b858110156136b9578484038952815161369a8582613635565b94506136a583613649565b925060208a01995050600181019050613681565b50829750879550505050505092915050565b600060208201905081810360008301526136e58184613656565b905092915050565b600060208284031215613703576137026132f2565b5b600061371184828501613376565b91505092915050565b60006101a0830160008301516137336000860182613434565b5060208301516137466020860182613443565b5060408301516137596040860182613443565b50606083015161376c6060860182613434565b50608083015161377f6080860182613434565b5060a083015161379260a0860182613434565b5060c08301516137a560c0860182613443565b5060e08301516137b860e0860182613434565b506101008301516137cd610100860182613434565b506101208301516137e261012086018261345e565b506101408301516137f761014086018261345e565b5061016083015161380c61016086018261345e565b5061018083015184820361018086015261382682826134be565b9150508091505092915050565b6000602082019050818103600083015261384d818461371a565b905092915050565b6000806040838503121561386c5761386b6132f2565b5b600061387a85828601613376565b925050602061388b85828601613376565b9150509250929050565b6000602082840312156138ab576138aa6132f2565b5b60006138b984828501613340565b91505092915050565b600080604083850312156138d9576138d86132f2565b5b60006138e785828601613340565b92505060206138f885828601613376565b9150509250929050565b60008060006060848603121561391b5761391a6132f2565b5b600061392986828701613376565b935050602061393a86828701613340565b925050604061394b86828701613376565b9150509250925092565b600081519050919050565b600082825260208201905092915050565b6000819050602082019050919050565b610100820160008201516139986000850182613434565b5060208201516139ab6020850182613434565b5060408201516139be6040850182613443565b5060608201516139d16060850182613434565b5060808201516139e46080850182613434565b5060a08201516139f760a085018261345e565b5060c0820151613a0a60c085018261345e565b5060e0820151613a1d60e085018261345e565b50505050565b6000613a2f8383613981565b6101008301905092915050565b6000602082019050919050565b6000613a5482613955565b613a5e8185613960565b9350613a6983613971565b8060005b83811015613a9a578151613a818882613a23565b9750613a8c83613a3c565b925050600181019050613a6d565b5085935050505092915050565b60006020820190508181036000830152613ac18184613a49565b905092915050565b600081519050919050565b600082825260208201905092915050565b6000819050602082019050919050565b600082825260208201905092915050565b6000613b1182613955565b613b1b8185613af5565b9350613b2683613971565b8060005b83811015613b57578151613b3e8882613a23565b9750613b4983613a3c565b925050600181019050613b2a565b5085935050505092915050565b6000613b708383613b06565b905092915050565b6000602082019050919050565b6000613b9082613ac9565b613b9a8185613ad4565b935083602082028501613bac85613ae5565b8060005b85811015613be85784840389528151613bc98582613b64565b9450613bd483613b78565b925060208a01995050600181019050613bb0565b50829750879550505050505092915050565b60006040820190508181036000830152613c148185613656565b90508181036020830152613c288184613b85565b90509392505050565b613c3a81613317565b82525050565b613c4981613452565b82525050565b600061018082019050613c65600083018f6133de565b613c72602083018e613c31565b613c7f604083018d613c31565b613c8c606083018c6133de565b613c99608083018b6133de565b613ca660a083018a6133de565b613cb360c0830189613c31565b613cc060e08301886133de565b613cce6101008301876133de565b613cdc610120830186613c40565b613cea610140830185613c40565b613cf8610160830184613c40565b9d9c50505050505050505050505050565b600061010082019050613d1f600083018b6133de565b613d2c602083018a6133de565b613d396040830189613c31565b613d4660608301886133de565b613d5360808301876133de565b613d6060a0830186613c40565b613d6d60c0830185613c40565b613d7a60e0830184613c40565b9998505050505050505050565b600082825260208201905092915050565b7f496e76616c696420746f6b656e20616464726573730000000000000000000000600082015250565b6000613dce601583613d87565b9150613dd982613d98565b602082019050919050565b60006020820190508181036000830152613dfd81613dc1565b9050919050565b7f4e487b7100000000000000000000000000000000000000000000000000000000600052601160045260246000fd5b6000613e3e82613355565b91507fffffffffffffffffffffffffffffffffffffffffffffffffffffffffffffffff8203613e7057613e6f613e04565b5b600182019050919050565b7f4e487b7100000000000000000000000000000000000000000000000000000000600052604160045260246000fd5b6000604082019050613ebf6000830185613c31565b613ecc60208301846133de565b9392505050565b7f4e487b7100000000000000000000000000000000000000000000000000000000600052603260045260246000fd5b7f496e76616c696420726571756573742049440000000000000000000000000000600082015250565b6000613f38601283613d87565b9150613f4382613f02565b602082019050919050565b60006020820190508181036000830152613f6781613f2b565b9050919050565b7f496e76616c6964206c6f616e2072657175657374204944000000000000000000600082015250565b6000613fa4601783613d87565b9150613faf82613f6e565b602082019050919050565b60006020820190508181036000830152613fd381613f97565b9050919050565b7f496e76616c69642070657263656e746167650000000000000000000000000000600082015250565b6000614010601283613d87565b915061401b82613fda565b602082019050919050565b6000602082019050818103600083015261403f81614003565b9050919050565b7f4c6f616e2072657175657374206973206e6f7420616374697665206f7220616c60008201527f72656164792066756c6c792066756e6465640000000000000000000000000000602082015250565b60006140a2603283613d87565b91506140ad82614046565b604082019050919050565b600060208201905081810360008301526140d181614095565b9050919050565b60006140e382613355565b91506140ee83613355565b92508282026140fc81613355565b9150828204841483151761411357614112613e04565b5b5092915050565b7f4e487b7100000000000000000000000000000000000000000000000000000000600052601260045260246000fd5b600061415482613355565b915061415f83613355565b92508261416f5761416e61411a565b5b828204905092915050565b7f4f6666657220616d6f756e7420657863656564732072656d61696e696e67206160008201527f6d6f756e74000000000000000000000000000000000000000000000000000000602082015250565b60006141d6602583613d87565b91506141e18261417a565b604082019050919050565b60006020820190508181036000830152614205816141c9565b9050919050565b600060408201905061422160008301856133de565b61422e60208301846133de565b9392505050565b7f4f6e6c792074686520626f72726f7765722063616e2063616e63656c2074686560008201527f206c6f616e207265717565737400000000000000000000000000000000000000602082015250565b6000614291602d83613d87565b915061429c82614235565b604082019050919050565b600060208201905081810360008301526142c081614284565b9050919050565b7f4c6f616e2072657175657374206973206e6f7420616374697665000000000000600082015250565b60006142fd601a83613d87565b9150614308826142c7565b602082019050919050565b6000602082019050818103600083015261432c816142f0565b9050919050565b7f43616e6e6f742063616e63656c20612066756c6c792066756e646564206c6f6160008201527f6e20726571756573740000000000000000000000000000000000000000000000602082015250565b600061438f602983613d87565b915061439a82614333565b604082019050919050565b600060208201905081810360008301526143be81614382565b9050919050565b60006060820190506143da6000830186613c31565b6143e76020830185613c31565b6143f460408301846133de565b949350505050565b61440581613452565b811461441057600080fd5b50565b600081519050614422816143fc565b92915050565b60006020828403121561443e5761443d6132f2565b5b600061444c84828501614413565b91505092915050565b7f4e6f742074686520626f72726f77657200000000000000000000000000000000600082015250565b600061448b601083613d87565b915061449682614455565b602082019050919050565b600060208201905081810360008301526144ba8161447e565b9050919050565b7f436f6c6c61746572616c20616c72656164792073657400000000000000000000600082015250565b60006144f7601683613d87565b9150614502826144c1565b602082019050919050565b60006020820190508181036000830152614526816144ea565b9050919050565b60008151905061453c81613329565b92915050565b600060208284031215614558576145576132f2565b5b60006145668482850161452d565b91505092915050565b7f4e6f7420746865206f776e6572206f6620746865204e46540000000000000000600082015250565b60006145a5601883613d87565b91506145b08261456f565b602082019050919050565b600060208201905081810360008301526145d481614598565b9050919050565b6000819050919050565b6000819050919050565b600061460a614605614600846145db565b6145e5565b613355565b9050919050565b61461a816145ef565b82525050565b60006060820190506146356000830186613c31565b61464260208301856133de565b61464f6040830184614611565b949350505050565b7f46756e64696e67206f66666572206e6f7420666f756e64000000000000000000600082015250565b600061468d601783613d87565b915061469882614657565b602082019050919050565b600060208201905081810360008301526146bc81614680565b9050919050565b7f4f6e6c79207468652066756e6465722063616e2063616e63656c20746865206f60008201527f6666657200000000000000000000000000000000000000000000000000000000602082015250565b600061471f602483613d87565b915061472a826146c3565b604082019050919050565b6000602082019050818103600083015261474e81614712565b9050919050565b7f4f66666572206973206e6f742061637469766500000000000000000000000000600082015250565b600061478b601383613d87565b915061479682614755565b602082019050919050565b600060208201905081810360008301526147ba8161477e565b9050919050565b7f43616e6e6f742063616e63656c20616e206163636570746564206f6666657200600082015250565b60006147f7601f83613d87565b9150614802826147c1565b602082019050919050565b60006020820190508181036000830152614826816147ea565b9050919050565b7f4f6666657220697320616c72656164792063616e63656c6c6564000000000000600082015250565b6000614863601a83613d87565b915061486e8261482d565b602082019050919050565b6000602082019050818103600083015261489281614856565b9050919050565b60006020820190506148ae6000830184613c31565b92915050565b6000815190506148c38161335f565b92915050565b6000602082840312156148df576148de6132f2565b5b60006148ed848285016148b4565b91505092915050565b7f496e73756666696369656e7420746f6b656e2062616c616e6365000000000000600082015250565b600061492c601a83613d87565b9150614937826148f6565b602082019050919050565b6000602082019050818103600083015261495b8161491f565b9050919050565b60006060820190506149776000830186613c31565b6149846020830185614611565b61499160408301846133de565b949350505050565b7f4f6e6c792074686520626f72726f7765722063616e206163636570742066756e60008201527f64696e67206f6666657273000000000000000000000000000000000000000000602082015250565b60006149f5602b83613d87565b9150614a0082614999565b604082019050919050565b60006020820190508181036000830152614a24816149e8565b9050919050565b7f46756e64696e67206f66666572206e6f7420666f756e64206f72206e6f74206160008201527f6374697665000000000000000000000000000000000000000000000000000000602082015250565b6000614a87602583613d87565b9150614a9282614a2b565b604082019050919050565b60006020820190508181036000830152614ab681614a7a565b9050919050565b7f546f6b656e207472616e73666572206661696c65640000000000000000000000600082015250565b6000614af3601583613d87565b9150614afe82614abd565b602082019050919050565b60006020820190508181036000830152614b2281614ae6565b9050919050565b6000614b3482613355565b9150614b3f83613355565b9250828203905081811115614b5757614b56613e04565b5b9291505056fea2646970667358221220414102065ed8d40aa806ede9f86813329a6d4c895422ad988b75b0cbcbef830964736f6c634300081a0033",
  "linkReferences": {},
  "deployedLinkReferences": {}
}