{
  "_format": "hh-sol-artifact-1",
  "contractName": "LoanRequestContract",
  "sourceName": "contracts/LoanContract.sol",
  "abi": [
    {
      "inputs": [],
      "name": "ReentrancyGuardReentrantCall",
      "type": "error"
    },
    {
      "anonymous": false,
      "inputs": [
        {
          "indexed": true,
          "internalType": "uint256",
          "name": "requestId",
          "type": "uint256"
        },
        {
          "indexed": false,
          "internalType": "address",
          "name": "collateralAddress",
          "type": "address"
        },
        {
          "indexed": false,
          "internalType": "uint256",
          "name": "collateralId",
          "type": "uint256"
        },
        {
          "indexed": false,
          "internalType": "uint256",
          "name": "collateralAmount",
          "type": "uint256"
        }
      ],
      "name": "CollateralDeposited",
      "type": "event"
    },
    {
      "anonymous": false,
      "inputs": [
        {
          "indexed": true,
          "internalType": "uint256",
          "name": "offerId",
          "type": "uint256"
        },
        {
          "indexed": true,
          "internalType": "uint256",
          "name": "loanRequestId",
          "type": "uint256"
        },
        {
          "indexed": true,
          "internalType": "address",
          "name": "funder",
          "type": "address"
        },
        {
          "indexed": false,
          "internalType": "uint256",
          "name": "amount",
          "type": "uint256"
        }
      ],
      "name": "FundingOfferAccepted",
      "type": "event"
    },
    {
      "anonymous": false,
      "inputs": [
        {
          "indexed": true,
          "internalType": "uint256",
          "name": "offerId",
          "type": "uint256"
        },
        {
          "indexed": true,
          "internalType": "uint256",
          "name": "loanRequestId",
          "type": "uint256"
        },
        {
          "indexed": true,
          "internalType": "address",
          "name": "funder",
          "type": "address"
        }
      ],
      "name": "FundingOfferCancelled",
      "type": "event"
    },
    {
      "anonymous": false,
      "inputs": [
        {
          "indexed": true,
          "internalType": "uint256",
          "name": "offerId",
          "type": "uint256"
        },
        {
          "indexed": true,
          "internalType": "uint256",
          "name": "loanRequestId",
          "type": "uint256"
        },
        {
          "indexed": true,
          "internalType": "address",
          "name": "funder",
          "type": "address"
        },
        {
          "indexed": false,
          "internalType": "uint256",
          "name": "amount",
          "type": "uint256"
        },
        {
          "indexed": false,
          "internalType": "uint256",
          "name": "percentage",
          "type": "uint256"
        }
      ],
      "name": "FundingOfferCreated",
      "type": "event"
    },
    {
      "anonymous": false,
      "inputs": [
        {
          "indexed": true,
          "internalType": "uint256",
          "name": "requestId",
          "type": "uint256"
        },
        {
          "indexed": true,
          "internalType": "address",
          "name": "borrower",
          "type": "address"
        }
      ],
      "name": "LoanRequestCancelled",
      "type": "event"
    },
    {
      "anonymous": false,
      "inputs": [
        {
          "indexed": true,
          "internalType": "uint256",
          "name": "requestId",
          "type": "uint256"
        },
        {
          "indexed": true,
          "internalType": "address",
          "name": "borrower",
          "type": "address"
        },
        {
          "indexed": false,
          "internalType": "address",
          "name": "tokenToBorrow",
          "type": "address"
        },
        {
          "indexed": false,
          "internalType": "uint256",
          "name": "amount",
          "type": "uint256"
        }
      ],
      "name": "LoanRequestCreated",
      "type": "event"
    },
    {
      "anonymous": false,
      "inputs": [
        {
          "indexed": true,
          "internalType": "uint256",
          "name": "loanRequestId",
          "type": "uint256"
        },
        {
          "indexed": true,
          "internalType": "address",
          "name": "borrower",
          "type": "address"
        },
        {
          "indexed": false,
          "internalType": "uint256",
          "name": "amountRepaid",
          "type": "uint256"
        },
        {
          "indexed": false,
          "internalType": "uint256",
          "name": "remainingAmount",
          "type": "uint256"
        }
      ],
      "name": "PartialLoanRepayment",
      "type": "event"
    },
    {
      "inputs": [
        {
          "internalType": "uint256",
          "name": "_loanRequestId",
          "type": "uint256"
        },
        {
          "internalType": "uint256",
          "name": "_offerId",
          "type": "uint256"
        }
      ],
      "name": "acceptFundingOffer",
      "outputs": [],
      "stateMutability": "nonpayable",
      "type": "function"
    },
    {
      "inputs": [
        {
          "internalType": "uint256",
          "name": "_loanRequestId",
          "type": "uint256"
        },
        {
          "internalType": "uint256",
          "name": "_offerId",
          "type": "uint256"
        }
      ],
      "name": "cancelFundingOffer",
      "outputs": [],
      "stateMutability": "nonpayable",
      "type": "function"
    },
    {
      "inputs": [
        {
          "internalType": "uint256",
          "name": "_requestId",
          "type": "uint256"
        }
      ],
      "name": "cancelLoanRequest",
      "outputs": [],
      "stateMutability": "nonpayable",
      "type": "function"
    },
    {
      "inputs": [
        {
          "internalType": "uint256",
          "name": "_loanRequestId",
          "type": "uint256"
        },
        {
          "internalType": "uint256",
          "name": "_percentage",
          "type": "uint256"
        }
      ],
      "name": "createFundingOffer",
      "outputs": [
        {
          "internalType": "uint256",
          "name": "",
          "type": "uint256"
        }
      ],
      "stateMutability": "nonpayable",
      "type": "function"
    },
    {
      "inputs": [
        {
          "internalType": "address",
          "name": "_tokenToBorrow",
          "type": "address"
        },
        {
          "internalType": "uint256",
          "name": "_amount",
          "type": "uint256"
        },
        {
          "internalType": "uint256",
          "name": "_duration",
          "type": "uint256"
        }
      ],
      "name": "createLoanRequest",
      "outputs": [
        {
          "internalType": "uint256",
          "name": "",
          "type": "uint256"
        }
      ],
      "stateMutability": "nonpayable",
      "type": "function"
    },
    {
      "inputs": [
        {
          "internalType": "uint256",
          "name": "_requestId",
          "type": "uint256"
        },
        {
          "internalType": "address",
          "name": "_nftAddress",
          "type": "address"
        },
        {
          "internalType": "uint256",
          "name": "_tokenId",
          "type": "uint256"
        }
      ],
      "name": "depositNFTCollateral",
      "outputs": [],
      "stateMutability": "nonpayable",
      "type": "function"
    },
    {
      "inputs": [
        {
          "internalType": "uint256",
          "name": "_requestId",
          "type": "uint256"
        },
        {
          "internalType": "address",
          "name": "_tokenAddress",
          "type": "address"
        },
        {
          "internalType": "uint256",
          "name": "_amount",
          "type": "uint256"
        }
      ],
      "name": "depositTokenCollateral",
      "outputs": [],
      "stateMutability": "nonpayable",
      "type": "function"
    },
    {
      "inputs": [
        {
          "internalType": "uint256",
          "name": "",
          "type": "uint256"
        },
        {
          "internalType": "uint256",
          "name": "",
          "type": "uint256"
        }
      ],
      "name": "fundingOffersByLoanRequest",
      "outputs": [
        {
          "internalType": "uint256",
          "name": "id",
          "type": "uint256"
        },
        {
          "internalType": "uint256",
          "name": "loanRequestId",
          "type": "uint256"
        },
        {
          "internalType": "address",
          "name": "funder",
          "type": "address"
        },
        {
          "internalType": "uint256",
          "name": "amount",
          "type": "uint256"
        },
        {
          "internalType": "uint256",
          "name": "percentage",
          "type": "uint256"
        },
        {
          "internalType": "bool",
          "name": "isActive",
          "type": "bool"
        },
        {
          "internalType": "bool",
          "name": "isAccepted",
          "type": "bool"
        },
        {
          "internalType": "bool",
          "name": "isCancelled",
          "type": "bool"
        }
      ],
      "stateMutability": "view",
      "type": "function"
    },
    {
      "inputs": [],
      "name": "getAllLoanRequests",
      "outputs": [
        {
          "components": [
            {
              "internalType": "uint256",
              "name": "id",
              "type": "uint256"
            },
            {
              "internalType": "address",
              "name": "borrower",
              "type": "address"
            },
            {
              "internalType": "address",
              "name": "tokenToBorrow",
              "type": "address"
            },
            {
              "internalType": "uint256",
              "name": "amount",
              "type": "uint256"
            },
            {
              "internalType": "uint256",
              "name": "remainingAmount",
              "type": "uint256"
            },
            {
              "internalType": "uint256",
              "name": "duration",
              "type": "uint256"
            },
            {
              "internalType": "address",
              "name": "collateralAddress",
              "type": "address"
            },
            {
              "internalType": "uint256",
              "name": "collateralId",
              "type": "uint256"
            },
            {
              "internalType": "uint256",
              "name": "collateralAmount",
              "type": "uint256"
            },
            {
              "internalType": "bool",
              "name": "isActive",
              "type": "bool"
            },
            {
              "internalType": "bool",
              "name": "isFullyFunded",
              "type": "bool"
            },
            {
              "internalType": "bool",
              "name": "isCancelled",
              "type": "bool"
            },
            {
              "internalType": "address[]",
              "name": "lenders",
              "type": "address[]"
            }
          ],
          "internalType": "struct LoanRequestContract.LoanRequest[]",
          "name": "",
          "type": "tuple[]"
        }
      ],
      "stateMutability": "view",
      "type": "function"
    },
    {
      "inputs": [],
      "name": "getAllLoanRequestsWithFundingOffers",
      "outputs": [
        {
          "components": [
            {
              "internalType": "uint256",
              "name": "id",
              "type": "uint256"
            },
            {
              "internalType": "address",
              "name": "borrower",
              "type": "address"
            },
            {
              "internalType": "address",
              "name": "tokenToBorrow",
              "type": "address"
            },
            {
              "internalType": "uint256",
              "name": "amount",
              "type": "uint256"
            },
            {
              "internalType": "uint256",
              "name": "remainingAmount",
              "type": "uint256"
            },
            {
              "internalType": "uint256",
              "name": "duration",
              "type": "uint256"
            },
            {
              "internalType": "address",
              "name": "collateralAddress",
              "type": "address"
            },
            {
              "internalType": "uint256",
              "name": "collateralId",
              "type": "uint256"
            },
            {
              "internalType": "uint256",
              "name": "collateralAmount",
              "type": "uint256"
            },
            {
              "internalType": "bool",
              "name": "isActive",
              "type": "bool"
            },
            {
              "internalType": "bool",
              "name": "isFullyFunded",
              "type": "bool"
            },
            {
              "internalType": "bool",
              "name": "isCancelled",
              "type": "bool"
            },
            {
              "internalType": "address[]",
              "name": "lenders",
              "type": "address[]"
            }
          ],
          "internalType": "struct LoanRequestContract.LoanRequest[]",
          "name": "",
          "type": "tuple[]"
        },
        {
          "components": [
            {
              "internalType": "uint256",
              "name": "id",
              "type": "uint256"
            },
            {
              "internalType": "uint256",
              "name": "loanRequestId",
              "type": "uint256"
            },
            {
              "internalType": "address",
              "name": "funder",
              "type": "address"
            },
            {
              "internalType": "uint256",
              "name": "amount",
              "type": "uint256"
            },
            {
              "internalType": "uint256",
              "name": "percentage",
              "type": "uint256"
            },
            {
              "internalType": "bool",
              "name": "isActive",
              "type": "bool"
            },
            {
              "internalType": "bool",
              "name": "isAccepted",
              "type": "bool"
            },
            {
              "internalType": "bool",
              "name": "isCancelled",
              "type": "bool"
            }
          ],
          "internalType": "struct LoanRequestContract.FundingOffer[][]",
          "name": "",
          "type": "tuple[][]"
        }
      ],
      "stateMutability": "view",
      "type": "function"
    },
    {
      "inputs": [
        {
          "internalType": "uint256",
          "name": "_loanRequestId",
          "type": "uint256"
        }
      ],
      "name": "getFundingOffersForLoanRequest",
      "outputs": [
        {
          "components": [
            {
              "internalType": "uint256",
              "name": "id",
              "type": "uint256"
            },
            {
              "internalType": "uint256",
              "name": "loanRequestId",
              "type": "uint256"
            },
            {
              "internalType": "address",
              "name": "funder",
              "type": "address"
            },
            {
              "internalType": "uint256",
              "name": "amount",
              "type": "uint256"
            },
            {
              "internalType": "uint256",
              "name": "percentage",
              "type": "uint256"
            },
            {
              "internalType": "bool",
              "name": "isActive",
              "type": "bool"
            },
            {
              "internalType": "bool",
              "name": "isAccepted",
              "type": "bool"
            },
            {
              "internalType": "bool",
              "name": "isCancelled",
              "type": "bool"
            }
          ],
          "internalType": "struct LoanRequestContract.FundingOffer[]",
          "name": "",
          "type": "tuple[]"
        }
      ],
      "stateMutability": "view",
      "type": "function"
    },
    {
      "inputs": [
        {
          "internalType": "uint256",
          "name": "_requestId",
          "type": "uint256"
        }
      ],
      "name": "getLoanRequestById",
      "outputs": [
        {
          "components": [
            {
              "internalType": "uint256",
              "name": "id",
              "type": "uint256"
            },
            {
              "internalType": "address",
              "name": "borrower",
              "type": "address"
            },
            {
              "internalType": "address",
              "name": "tokenToBorrow",
              "type": "address"
            },
            {
              "internalType": "uint256",
              "name": "amount",
              "type": "uint256"
            },
            {
              "internalType": "uint256",
              "name": "remainingAmount",
              "type": "uint256"
            },
            {
              "internalType": "uint256",
              "name": "duration",
              "type": "uint256"
            },
            {
              "internalType": "address",
              "name": "collateralAddress",
              "type": "address"
            },
            {
              "internalType": "uint256",
              "name": "collateralId",
              "type": "uint256"
            },
            {
              "internalType": "uint256",
              "name": "collateralAmount",
              "type": "uint256"
            },
            {
              "internalType": "bool",
              "name": "isActive",
              "type": "bool"
            },
            {
              "internalType": "bool",
              "name": "isFullyFunded",
              "type": "bool"
            },
            {
              "internalType": "bool",
              "name": "isCancelled",
              "type": "bool"
            },
            {
              "internalType": "address[]",
              "name": "lenders",
              "type": "address[]"
            }
          ],
          "internalType": "struct LoanRequestContract.LoanRequest",
          "name": "",
          "type": "tuple"
        }
      ],
      "stateMutability": "view",
      "type": "function"
    },
    {
      "inputs": [],
      "name": "getLoanRequestsCount",
      "outputs": [
        {
          "internalType": "uint256",
          "name": "",
          "type": "uint256"
        }
      ],
      "stateMutability": "view",
      "type": "function"
    },
    {
      "inputs": [
        {
          "internalType": "address",
          "name": "_borrower",
          "type": "address"
        }
      ],
      "name": "getLoanRequestsForBorrower",
      "outputs": [
        {
          "components": [
            {
              "internalType": "uint256",
              "name": "id",
              "type": "uint256"
            },
            {
              "internalType": "address",
              "name": "borrower",
              "type": "address"
            },
            {
              "internalType": "address",
              "name": "tokenToBorrow",
              "type": "address"
            },
            {
              "internalType": "uint256",
              "name": "amount",
              "type": "uint256"
            },
            {
              "internalType": "uint256",
              "name": "remainingAmount",
              "type": "uint256"
            },
            {
              "internalType": "uint256",
              "name": "duration",
              "type": "uint256"
            },
            {
              "internalType": "address",
              "name": "collateralAddress",
              "type": "address"
            },
            {
              "internalType": "uint256",
              "name": "collateralId",
              "type": "uint256"
            },
            {
              "internalType": "uint256",
              "name": "collateralAmount",
              "type": "uint256"
            },
            {
              "internalType": "bool",
              "name": "isActive",
              "type": "bool"
            },
            {
              "internalType": "bool",
              "name": "isFullyFunded",
              "type": "bool"
            },
            {
              "internalType": "bool",
              "name": "isCancelled",
              "type": "bool"
            },
            {
              "internalType": "address[]",
              "name": "lenders",
              "type": "address[]"
            }
          ],
          "internalType": "struct LoanRequestContract.LoanRequest[]",
          "name": "",
          "type": "tuple[]"
        }
      ],
      "stateMutability": "view",
      "type": "function"
    },
    {
      "inputs": [
        {
          "internalType": "uint256",
          "name": "",
          "type": "uint256"
        }
      ],
      "name": "loanRequestIds",
      "outputs": [
        {
          "internalType": "uint256",
          "name": "",
          "type": "uint256"
        }
      ],
      "stateMutability": "view",
      "type": "function"
    },
    {
      "inputs": [
        {
          "internalType": "uint256",
          "name": "",
          "type": "uint256"
        }
      ],
      "name": "loanRequests",
      "outputs": [
        {
          "internalType": "uint256",
          "name": "id",
          "type": "uint256"
        },
        {
          "internalType": "address",
          "name": "borrower",
          "type": "address"
        },
        {
          "internalType": "address",
          "name": "tokenToBorrow",
          "type": "address"
        },
        {
          "internalType": "uint256",
          "name": "amount",
          "type": "uint256"
        },
        {
          "internalType": "uint256",
          "name": "remainingAmount",
          "type": "uint256"
        },
        {
          "internalType": "uint256",
          "name": "duration",
          "type": "uint256"
        },
        {
          "internalType": "address",
          "name": "collateralAddress",
          "type": "address"
        },
        {
          "internalType": "uint256",
          "name": "collateralId",
          "type": "uint256"
        },
        {
          "internalType": "uint256",
          "name": "collateralAmount",
          "type": "uint256"
        },
        {
          "internalType": "bool",
          "name": "isActive",
          "type": "bool"
        },
        {
          "internalType": "bool",
          "name": "isFullyFunded",
          "type": "bool"
        },
        {
          "internalType": "bool",
          "name": "isCancelled",
          "type": "bool"
        }
      ],
      "stateMutability": "view",
      "type": "function"
    },
    {
      "inputs": [
        {
          "internalType": "address",
          "name": "",
          "type": "address"
        },
        {
          "internalType": "uint256",
          "name": "",
          "type": "uint256"
        }
      ],
      "name": "loanRequestsByBorrower",
      "outputs": [
        {
          "internalType": "uint256",
          "name": "",
          "type": "uint256"
        }
      ],
      "stateMutability": "view",
      "type": "function"
    },
    {
      "inputs": [
        {
          "internalType": "uint256",
          "name": "_loanRequestId",
          "type": "uint256"
        },
        {
          "internalType": "uint256",
          "name": "_percentageToRepay",
          "type": "uint256"
        }
      ],
      "name": "repayPartialLoan",
      "outputs": [],
      "stateMutability": "nonpayable",
      "type": "function"
    }
  ],
  "bytecode": "0x6080604052348015600f57600080fd5b5060016000819055506153e1806100276000396000f3fe608060405234801561001057600080fd5b50600436106101165760003560e01c80637537f4cd116100a2578063b01d419c11610071578063b01d419c14610317578063d1b332f414610336578063eaad797114610371578063f7ff18151461038d578063f84cb8ae146103c457610116565b80637537f4cd1461029157806376b8c709146102af5780639d654d3d146102cb578063aafe2cad146102e757610116565b806345d74a60116100e957806345d74a60146101c95780635549e7bb146101f95780635a680367146102295780635ab7691614610245578063632776cf1461027557610116565b806306aa58f51461011b5780630c9babc31461014b578063373120a6146101695780633ef7cd7914610199575b600080fd5b61013560048036038101906101309190613905565b6103e0565b6040516101429190613967565b60405180910390f35b6101536107f8565b6040516101609190613c45565b60405180910390f35b610183600480360381019061017e9190613c67565b610af4565b6040516101909190613dad565b60405180910390f35b6101b360048036038101906101ae9190613dcf565b610d90565b6040516101c09190613967565b60405180910390f35b6101e360048036038101906101de9190613c67565b611105565b6040516101f09190613967565b60405180910390f35b610213600480360381019061020e9190613e0f565b611129565b6040516102209190613c45565b60405180910390f35b610243600480360381019061023e9190613c67565b6114ae565b005b61025f600480360381019061025a9190613e3c565b61187a565b60405161026c9190613967565b60405180910390f35b61028f600480360381019061028a9190613dcf565b6118ab565b005b610299611dfe565b6040516102a69190613967565b60405180910390f35b6102c960048036038101906102c49190613e7c565b611e0b565b005b6102e560048036038101906102e09190613dcf565b6121c5565b005b61030160048036038101906102fc9190613c67565b612536565b60405161030e9190614021565b60405180910390f35b61031f6126c9565b60405161032d929190614174565b60405180910390f35b610350600480360381019061034b9190613c67565b612b7f565b6040516103689c9b9a999897969594939291906141c9565b60405180910390f35b61038b60048036038101906103869190613e7c565b612c66565b005b6103a760048036038101906103a29190613dcf565b613007565b6040516103bb989796959493929190614283565b60405180910390f35b6103de60048036038101906103d99190613dcf565b6130b3565b005b60008073ffffffffffffffffffffffffffffffffffffffff168473ffffffffffffffffffffffffffffffffffffffff1603610450576040517f08c379a00000000000000000000000000000000000000000000000000000000081526004016104479061435e565b60405180910390fd5b60016000815480929190610463906143ad565b9190505550600060015490506000604051806101a001604052808381526020013373ffffffffffffffffffffffffffffffffffffffff1681526020018773ffffffffffffffffffffffffffffffffffffffff168152602001868152602001868152602001858152602001600073ffffffffffffffffffffffffffffffffffffffff1681526020016000815260200160008152602001600115158152602001600015158152602001600015158152602001600067ffffffffffffffff81111561052e5761052d6143f5565b5b60405190808252806020026020018201604052801561055c5781602001602082028036833780820191505090505b50815250905080600360008481526020019081526020016000206000820151816000015560208201518160010160006101000a81548173ffffffffffffffffffffffffffffffffffffffff021916908373ffffffffffffffffffffffffffffffffffffffff16021790555060408201518160020160006101000a81548173ffffffffffffffffffffffffffffffffffffffff021916908373ffffffffffffffffffffffffffffffffffffffff160217905550606082015181600301556080820151816004015560a0820151816005015560c08201518160060160006101000a81548173ffffffffffffffffffffffffffffffffffffffff021916908373ffffffffffffffffffffffffffffffffffffffff16021790555060e0820151816007015561010082015181600801556101208201518160090160006101000a81548160ff0219169083151502179055506101408201518160090160016101000a81548160ff0219169083151502179055506101608201518160090160026101000a81548160ff02191690831515021790555061018082015181600a019080519060200190610708929190613715565b509050506006829080600181540180825580915050600190039060005260206000200160009091909190915055600560003373ffffffffffffffffffffffffffffffffffffffff1673ffffffffffffffffffffffffffffffffffffffff1681526020019081526020016000208290806001815401808255809150506001900390600052602060002001600090919091909150553373ffffffffffffffffffffffffffffffffffffffff16827f454d52df11a78021408eef6a9b8d6d77e7368abdeea429906c952ac415ed8f0588886040516107e4929190614424565b60405180910390a381925050509392505050565b6060600060068054905067ffffffffffffffff81111561081b5761081a6143f5565b5b60405190808252806020026020018201604052801561085457816020015b61084161379f565b8152602001906001900390816108395790505b50905060005b600680549050811015610aec57600360006006838154811061087f5761087e61444d565b5b90600052602060002001548152602001908152602001600020604051806101a0016040529081600082015481526020016001820160009054906101000a900473ffffffffffffffffffffffffffffffffffffffff1673ffffffffffffffffffffffffffffffffffffffff1673ffffffffffffffffffffffffffffffffffffffff1681526020016002820160009054906101000a900473ffffffffffffffffffffffffffffffffffffffff1673ffffffffffffffffffffffffffffffffffffffff1673ffffffffffffffffffffffffffffffffffffffff1681526020016003820154815260200160048201548152602001600582015481526020016006820160009054906101000a900473ffffffffffffffffffffffffffffffffffffffff1673ffffffffffffffffffffffffffffffffffffffff1673ffffffffffffffffffffffffffffffffffffffff16815260200160078201548152602001600882015481526020016009820160009054906101000a900460ff161515151581526020016009820160019054906101000a900460ff161515151581526020016009820160029054906101000a900460ff16151515158152602001600a8201805480602002602001604051908101604052809291908181526020018280548015610ab857602002820191906000526020600020905b8160009054906101000a900473ffffffffffffffffffffffffffffffffffffffff1673ffffffffffffffffffffffffffffffffffffffff1681526020019060010190808311610a6e575b505050505081525050828281518110610ad457610ad361444d565b5b6020026020010181905250808060010191505061085a565b508091505090565b610afc61379f565b600082118015610b0e57506001548211155b610b4d576040517f08c379a0000000000000000000000000000000000000000000000000000000008152600401610b44906144c8565b60405180910390fd5b60036000838152602001908152602001600020604051806101a0016040529081600082015481526020016001820160009054906101000a900473ffffffffffffffffffffffffffffffffffffffff1673ffffffffffffffffffffffffffffffffffffffff1673ffffffffffffffffffffffffffffffffffffffff1681526020016002820160009054906101000a900473ffffffffffffffffffffffffffffffffffffffff1673ffffffffffffffffffffffffffffffffffffffff1673ffffffffffffffffffffffffffffffffffffffff1681526020016003820154815260200160048201548152602001600582015481526020016006820160009054906101000a900473ffffffffffffffffffffffffffffffffffffffff1673ffffffffffffffffffffffffffffffffffffffff1673ffffffffffffffffffffffffffffffffffffffff16815260200160078201548152602001600882015481526020016009820160009054906101000a900460ff161515151581526020016009820160019054906101000a900460ff161515151581526020016009820160029054906101000a900460ff16151515158152602001600a8201805480602002602001604051908101604052809291908181526020018280548015610d8057602002820191906000526020600020905b8160009054906101000a900473ffffffffffffffffffffffffffffffffffffffff1673ffffffffffffffffffffffffffffffffffffffff1681526020019060010190808311610d36575b5050505050815250509050919050565b60008083118015610da357506001548311155b610de2576040517f08c379a0000000000000000000000000000000000000000000000000000000008152600401610dd990614534565b60405180910390fd5b600082118015610df3575060648211155b610e32576040517f08c379a0000000000000000000000000000000000000000000000000000000008152600401610e29906145a0565b60405180910390fd5b60006003600085815260200190815260200160002090508060090160009054906101000a900460ff168015610e7657508060090160019054906101000a900460ff16155b610eb5576040517f08c379a0000000000000000000000000000000000000000000000000000000008152600401610eac90614632565b60405180910390fd5b60006064848360030154610ec99190614652565b610ed391906146c3565b90508160040154811115610f1c576040517f08c379a0000000000000000000000000000000000000000000000000000000008152600401610f1390614766565b60405180910390fd5b60026000815480929190610f2f906143ad565b91905055506000600254905060006040518061010001604052808381526020018881526020013373ffffffffffffffffffffffffffffffffffffffff16815260200184815260200187815260200160011515815260200160001515815260200160001515815250905060046000888152602001908152602001600020819080600181540180825580915050600190039060005260206000209060060201600090919091909150600082015181600001556020820151816001015560408201518160020160006101000a81548173ffffffffffffffffffffffffffffffffffffffff021916908373ffffffffffffffffffffffffffffffffffffffff160217905550606082015181600301556080820151816004015560a08201518160050160006101000a81548160ff02191690831515021790555060c08201518160050160016101000a81548160ff02191690831515021790555060e08201518160050160026101000a81548160ff02191690831515021790555050503373ffffffffffffffffffffffffffffffffffffffff1687837f8b37efb46233858b88e3c15961601cf5ef5e0040ecd78235f1d38ec8feee28a4868a6040516110f0929190614786565b60405180910390a48194505050505092915050565b6006818154811061111557600080fd5b906000526020600020016000915090505481565b60606000600560008473ffffffffffffffffffffffffffffffffffffffff1673ffffffffffffffffffffffffffffffffffffffff1681526020019081526020016000208054806020026020016040519081016040528092919081815260200182805480156111b657602002820191906000526020600020905b8154815260200190600101908083116111a2575b505050505090506000815167ffffffffffffffff8111156111da576111d96143f5565b5b60405190808252806020026020018201604052801561121357816020015b61120061379f565b8152602001906001900390816111f85790505b50905060005b82518110156114a357600360008483815181106112395761123861444d565b5b60200260200101518152602001908152602001600020604051806101a0016040529081600082015481526020016001820160009054906101000a900473ffffffffffffffffffffffffffffffffffffffff1673ffffffffffffffffffffffffffffffffffffffff1673ffffffffffffffffffffffffffffffffffffffff1681526020016002820160009054906101000a900473ffffffffffffffffffffffffffffffffffffffff1673ffffffffffffffffffffffffffffffffffffffff1673ffffffffffffffffffffffffffffffffffffffff1681526020016003820154815260200160048201548152602001600582015481526020016006820160009054906101000a900473ffffffffffffffffffffffffffffffffffffffff1673ffffffffffffffffffffffffffffffffffffffff1673ffffffffffffffffffffffffffffffffffffffff16815260200160078201548152602001600882015481526020016009820160009054906101000a900460ff161515151581526020016009820160019054906101000a900460ff161515151581526020016009820160029054906101000a900460ff16151515158152602001600a820180548060200260200160405190810160405280929190818152602001828054801561146f57602002820191906000526020600020905b8160009054906101000a900473ffffffffffffffffffffffffffffffffffffffff1673ffffffffffffffffffffffffffffffffffffffff1681526020019060010190808311611425575b50505050508152505082828151811061148b5761148a61444d565b5b60200260200101819052508080600101915050611219565b508092505050919050565b60006003600083815260200190815260200160002090508060010160009054906101000a900473ffffffffffffffffffffffffffffffffffffffff1673ffffffffffffffffffffffffffffffffffffffff163373ffffffffffffffffffffffffffffffffffffffff1614611557576040517f08c379a000000000000000000000000000000000000000000000000000000000815260040161154e90614821565b60405180910390fd5b8060090160009054906101000a900460ff166115a8576040517f08c379a000000000000000000000000000000000000000000000000000000000815260040161159f9061488d565b60405180910390fd5b8060090160019054906101000a900460ff16156115fa576040517f08c379a00000000000000000000000000000000000000000000000000000000081526004016115f19061491f565b60405180910390fd5b60008160090160006101000a81548160ff02191690831515021790555060018160090160026101000a81548160ff021916908315150217905550600073ffffffffffffffffffffffffffffffffffffffff168160060160009054906101000a900473ffffffffffffffffffffffffffffffffffffffff1673ffffffffffffffffffffffffffffffffffffffff1614611832576000816007015414611758578060060160009054906101000a900473ffffffffffffffffffffffffffffffffffffffff1673ffffffffffffffffffffffffffffffffffffffff166323b872dd308360010160009054906101000a900473ffffffffffffffffffffffffffffffffffffffff1684600701546040518463ffffffff1660e01b81526004016117219392919061493f565b600060405180830381600087803b15801561173b57600080fd5b505af115801561174f573d6000803e3d6000fd5b50505050611831565b6000816008015414611830578060060160009054906101000a900473ffffffffffffffffffffffffffffffffffffffff1673ffffffffffffffffffffffffffffffffffffffff1663a9059cbb8260010160009054906101000a900473ffffffffffffffffffffffffffffffffffffffff1683600801546040518363ffffffff1660e01b81526004016117eb929190614424565b6020604051808303816000875af115801561180a573d6000803e3d6000fd5b505050506040513d601f19601f8201168201806040525081019061182e91906149a2565b505b5b5b3373ffffffffffffffffffffffffffffffffffffffff16827fa3052c24e977f99a03cf30c20f274f2e2f732c8916f7fd1f49263eb6844dcd4e60405160405180910390a35050565b6005602052816000526040600020818154811061189657600080fd5b90600052602060002001600091509150505481565b6118b36136c5565b6000811180156118c4575060648111155b611903576040517f08c379a00000000000000000000000000000000000000000000000000000000081526004016118fa906145a0565b60405180910390fd5b60006003600084815260200190815260200160002090508060010160009054906101000a900473ffffffffffffffffffffffffffffffffffffffff1673ffffffffffffffffffffffffffffffffffffffff163373ffffffffffffffffffffffffffffffffffffffff16146119ac576040517f08c379a00000000000000000000000000000000000000000000000000000000081526004016119a390614a41565b60405180910390fd5b8060090160019054906101000a900460ff166119fd576040517f08c379a00000000000000000000000000000000000000000000000000000000081526004016119f490614aad565b60405180910390fd5b8060090160029054906101000a900460ff1615611a4f576040517f08c379a0000000000000000000000000000000000000000000000000000000008152600401611a4690614b19565b60405180910390fd5b60008160030154905060008260040154905060008111611aa4576040517f08c379a0000000000000000000000000000000000000000000000000000000008152600401611a9b90614b85565b60405180910390fd5b600060648584611ab49190614652565b611abe91906146c3565b905081811115611b03576040517f08c379a0000000000000000000000000000000000000000000000000000000008152600401611afa90614c17565b60405180910390fd5b60008460020160009054906101000a900473ffffffffffffffffffffffffffffffffffffffff1690508073ffffffffffffffffffffffffffffffffffffffff166323b872dd3330856040518463ffffffff1660e01b8152600401611b699392919061493f565b6020604051808303816000875af1158015611b88573d6000803e3d6000fd5b505050506040513d601f19601f82011682018060405250810190611bac91906149a2565b611beb576040517f08c379a0000000000000000000000000000000000000000000000000000000008152600401611be290614c83565b60405180910390fd5b81856004016000828254611bff9190614ca3565b9250508190555060005b85600a0180549050811015611d9757600086600a018281548110611c3057611c2f61444d565b5b9060005260206000200160009054906101000a900473ffffffffffffffffffffffffffffffffffffffff16905060006064600460008c81526020019081526020016000208481548110611c8657611c8561444d565b5b90600052602060002090600602016004015488611ca39190614652565b611cad91906146c3565b90506000878287611cbe9190614652565b611cc891906146c3565b90508473ffffffffffffffffffffffffffffffffffffffff1663a9059cbb84836040518363ffffffff1660e01b8152600401611d05929190614424565b6020604051808303816000875af1158015611d24573d6000803e3d6000fd5b505050506040513d601f19601f82011682018060405250810190611d4891906149a2565b611d87576040517f08c379a0000000000000000000000000000000000000000000000000000000008152600401611d7e90614d23565b60405180910390fd5b5050508080600101915050611c09565b503373ffffffffffffffffffffffffffffffffffffffff16877f12ba2fdc14d8a80ccc0e2512d8044ccf9a6b4b8aa512789d1ea0d6d6d47b65a3848860040154604051611de5929190614786565b60405180910390a35050505050611dfa61370b565b5050565b6000600680549050905090565b3373ffffffffffffffffffffffffffffffffffffffff166003600085815260200190815260200160002060010160009054906101000a900473ffffffffffffffffffffffffffffffffffffffff1673ffffffffffffffffffffffffffffffffffffffff1614611eaf576040517f08c379a0000000000000000000000000000000000000000000000000000000008152600401611ea690614d8f565b60405180910390fd5b6003600084815260200190815260200160002060090160009054906101000a900460ff16611f12576040517f08c379a0000000000000000000000000000000000000000000000000000000008152600401611f099061488d565b60405180910390fd5b600073ffffffffffffffffffffffffffffffffffffffff166003600085815260200190815260200160002060060160009054906101000a900473ffffffffffffffffffffffffffffffffffffffff1673ffffffffffffffffffffffffffffffffffffffff1614611fb7576040517f08c379a0000000000000000000000000000000000000000000000000000000008152600401611fae90614dfb565b60405180910390fd5b60008290503373ffffffffffffffffffffffffffffffffffffffff168173ffffffffffffffffffffffffffffffffffffffff16636352211e846040518263ffffffff1660e01b815260040161200c9190613967565b602060405180830381865afa158015612029573d6000803e3d6000fd5b505050506040513d601f19601f8201168201806040525081019061204d9190614e30565b73ffffffffffffffffffffffffffffffffffffffff16146120a3576040517f08c379a000000000000000000000000000000000000000000000000000000000815260040161209a90614ea9565b60405180910390fd5b8073ffffffffffffffffffffffffffffffffffffffff166323b872dd3330856040518463ffffffff1660e01b81526004016120e09392919061493f565b600060405180830381600087803b1580156120fa57600080fd5b505af115801561210e573d6000803e3d6000fd5b50505050826003600086815260200190815260200160002060060160006101000a81548173ffffffffffffffffffffffffffffffffffffffff021916908373ffffffffffffffffffffffffffffffffffffffff160217905550816003600086815260200190815260200160002060070181905550837f04790cfcf9b2380d7da5dc6b3f484cf36e54c176ad3f9755ad0b02c00096cf5c848460006040516121b793929190614f0e565b60405180910390a250505050565b6000821180156121d757506001548211155b612216576040517f08c379a000000000000000000000000000000000000000000000000000000000815260040161220d90614534565b60405180910390fd5b600060046000848152602001908152602001600020905060007fffffffffffffffffffffffffffffffffffffffffffffffffffffffffffffffff905060005b82805490508110156122a157838382815481106122755761227461444d565b5b90600052602060002090600602016000015403612294578091506122a1565b8080600101915050612255565b507fffffffffffffffffffffffffffffffffffffffffffffffffffffffffffffffff8103612304576040517f08c379a00000000000000000000000000000000000000000000000000000000081526004016122fb90614f91565b60405180910390fd5b60008282815481106123195761231861444d565b5b906000526020600020906006020190508060020160009054906101000a900473ffffffffffffffffffffffffffffffffffffffff1673ffffffffffffffffffffffffffffffffffffffff163373ffffffffffffffffffffffffffffffffffffffff16146123bb576040517f08c379a00000000000000000000000000000000000000000000000000000000081526004016123b290615023565b60405180910390fd5b8060050160009054906101000a900460ff1661240c576040517f08c379a00000000000000000000000000000000000000000000000000000000081526004016124039061508f565b60405180910390fd5b8060050160019054906101000a900460ff161561245e576040517f08c379a0000000000000000000000000000000000000000000000000000000008152600401612455906150fb565b60405180910390fd5b8060050160029054906101000a900460ff16156124b0576040517f08c379a00000000000000000000000000000000000000000000000000000000081526004016124a790615167565b60405180910390fd5b60008160050160006101000a81548160ff02191690831515021790555060018160050160026101000a81548160ff0219169083151502179055503373ffffffffffffffffffffffffffffffffffffffff1685857fb921f2d5f7f79055bdb1f71ec3286139ccb3c9677c58715dcd47e74ad476e4fb60405160405180910390a45050505050565b606060008211801561254a57506001548211155b612589576040517f08c379a000000000000000000000000000000000000000000000000000000000815260040161258090614534565b60405180910390fd5b60046000838152602001908152602001600020805480602002602001604051908101604052809291908181526020016000905b828210156126be57838290600052602060002090600602016040518061010001604052908160008201548152602001600182015481526020016002820160009054906101000a900473ffffffffffffffffffffffffffffffffffffffff1673ffffffffffffffffffffffffffffffffffffffff1673ffffffffffffffffffffffffffffffffffffffff16815260200160038201548152602001600482015481526020016005820160009054906101000a900460ff161515151581526020016005820160019054906101000a900460ff161515151581526020016005820160029054906101000a900460ff161515151581525050815260200190600101906125bc565b505050509050919050565b606080600060068054905067ffffffffffffffff8111156126ed576126ec6143f5565b5b60405190808252806020026020018201604052801561272657816020015b61271361379f565b81526020019060019003908161270b5790505b509050600060068054905067ffffffffffffffff81111561274a576127496143f5565b5b60405190808252806020026020018201604052801561277d57816020015b60608152602001906001900390816127685790505b50905060005b600680549050811015612b72576000600682815481106127a6576127a561444d565b5b9060005260206000200154905060036000828152602001908152602001600020604051806101a0016040529081600082015481526020016001820160009054906101000a900473ffffffffffffffffffffffffffffffffffffffff1673ffffffffffffffffffffffffffffffffffffffff1673ffffffffffffffffffffffffffffffffffffffff1681526020016002820160009054906101000a900473ffffffffffffffffffffffffffffffffffffffff1673ffffffffffffffffffffffffffffffffffffffff1673ffffffffffffffffffffffffffffffffffffffff1681526020016003820154815260200160048201548152602001600582015481526020016006820160009054906101000a900473ffffffffffffffffffffffffffffffffffffffff1673ffffffffffffffffffffffffffffffffffffffff1673ffffffffffffffffffffffffffffffffffffffff16815260200160078201548152602001600882015481526020016009820160009054906101000a900460ff161515151581526020016009820160019054906101000a900460ff161515151581526020016009820160029054906101000a900460ff16151515158152602001600a82018054806020026020016040519081016040528092919081815260200182805480156129e657602002820191906000526020600020905b8160009054906101000a900473ffffffffffffffffffffffffffffffffffffffff1673ffffffffffffffffffffffffffffffffffffffff168152602001906001019080831161299c575b505050505081525050848381518110612a0257612a0161444d565b5b602002602001018190525060046000828152602001908152602001600020805480602002602001604051908101604052809291908181526020016000905b82821015612b4257838290600052602060002090600602016040518061010001604052908160008201548152602001600182015481526020016002820160009054906101000a900473ffffffffffffffffffffffffffffffffffffffff1673ffffffffffffffffffffffffffffffffffffffff1673ffffffffffffffffffffffffffffffffffffffff16815260200160038201548152602001600482015481526020016005820160009054906101000a900460ff161515151581526020016005820160019054906101000a900460ff161515151581526020016005820160029054906101000a900460ff16151515158152505081526020019060010190612a40565b50505050838381518110612b5957612b5861444d565b5b6020026020010181905250508080600101915050612783565b5081819350935050509091565b60036020528060005260406000206000915090508060000154908060010160009054906101000a900473ffffffffffffffffffffffffffffffffffffffff16908060020160009054906101000a900473ffffffffffffffffffffffffffffffffffffffff16908060030154908060040154908060050154908060060160009054906101000a900473ffffffffffffffffffffffffffffffffffffffff16908060070154908060080154908060090160009054906101000a900460ff16908060090160019054906101000a900460ff16908060090160029054906101000a900460ff1690508c565b3373ffffffffffffffffffffffffffffffffffffffff166003600085815260200190815260200160002060010160009054906101000a900473ffffffffffffffffffffffffffffffffffffffff1673ffffffffffffffffffffffffffffffffffffffff1614612d0a576040517f08c379a0000000000000000000000000000000000000000000000000000000008152600401612d0190614d8f565b60405180910390fd5b6003600084815260200190815260200160002060090160009054906101000a900460ff16612d6d576040517f08c379a0000000000000000000000000000000000000000000000000000000008152600401612d649061488d565b60405180910390fd5b600073ffffffffffffffffffffffffffffffffffffffff166003600085815260200190815260200160002060060160009054906101000a900473ffffffffffffffffffffffffffffffffffffffff1673ffffffffffffffffffffffffffffffffffffffff1614612e12576040517f08c379a0000000000000000000000000000000000000000000000000000000008152600401612e0990614dfb565b60405180910390fd5b6000829050818173ffffffffffffffffffffffffffffffffffffffff166370a08231336040518263ffffffff1660e01b8152600401612e519190615187565b602060405180830381865afa158015612e6e573d6000803e3d6000fd5b505050506040513d601f19601f82011682018060405250810190612e9291906151b7565b1015612ed3576040517f08c379a0000000000000000000000000000000000000000000000000000000008152600401612eca90615230565b60405180910390fd5b8073ffffffffffffffffffffffffffffffffffffffff166323b872dd3330856040518463ffffffff1660e01b8152600401612f109392919061493f565b6020604051808303816000875af1158015612f2f573d6000803e3d6000fd5b505050506040513d601f19601f82011682018060405250810190612f5391906149a2565b50826003600086815260200190815260200160002060060160006101000a81548173ffffffffffffffffffffffffffffffffffffffff021916908373ffffffffffffffffffffffffffffffffffffffff160217905550816003600086815260200190815260200160002060080181905550837f04790cfcf9b2380d7da5dc6b3f484cf36e54c176ad3f9755ad0b02c00096cf5c84600085604051612ff993929190615250565b60405180910390a250505050565b6004602052816000526040600020818154811061302357600080fd5b9060005260206000209060060201600091509150508060000154908060010154908060020160009054906101000a900473ffffffffffffffffffffffffffffffffffffffff16908060030154908060040154908060050160009054906101000a900460ff16908060050160019054906101000a900460ff16908060050160029054906101000a900460ff16905088565b6130bb6136c5565b60006003600084815260200190815260200160002090508060010160009054906101000a900473ffffffffffffffffffffffffffffffffffffffff1673ffffffffffffffffffffffffffffffffffffffff163373ffffffffffffffffffffffffffffffffffffffff1614613164576040517f08c379a000000000000000000000000000000000000000000000000000000000815260040161315b906152f9565b60405180910390fd5b8060090160009054906101000a900460ff16801561319157508060090160019054906101000a900460ff16155b6131d0576040517f08c379a00000000000000000000000000000000000000000000000000000000081526004016131c790614632565b60405180910390fd5b600060046000858152602001908152602001600020905060007fffffffffffffffffffffffffffffffffffffffffffffffffffffffffffffffff905060005b828054905081101561330c578483828154811061322f5761322e61444d565b5b90600052602060002090600602016000015414801561327c575082818154811061325c5761325b61444d565b5b906000526020600020906006020160050160009054906101000a900460ff165b80156132b757508281815481106132965761329561444d565b5b906000526020600020906006020160050160019054906101000a900460ff16155b80156132f257508281815481106132d1576132d061444d565b5b906000526020600020906006020160050160029054906101000a900460ff16155b156132ff5780915061330c565b808060010191505061320f565b507fffffffffffffffffffffffffffffffffffffffffffffffffffffffffffffffff810361336f576040517f08c379a00000000000000000000000000000000000000000000000000000000081526004016133669061538b565b60405180910390fd5b60008282815481106133845761338361444d565b5b906000526020600020906006020190508360040154816003015411156133df576040517f08c379a00000000000000000000000000000000000000000000000000000000081526004016133d690614766565b60405180910390fd5b60008460020160009054906101000a900473ffffffffffffffffffffffffffffffffffffffff1690508073ffffffffffffffffffffffffffffffffffffffff166323b872dd8360020160009054906101000a900473ffffffffffffffffffffffffffffffffffffffff168760010160009054906101000a900473ffffffffffffffffffffffffffffffffffffffff1685600301546040518463ffffffff1660e01b81526004016134919392919061493f565b6020604051808303816000875af11580156134b0573d6000803e3d6000fd5b505050506040513d601f19601f820116820180604052508101906134d491906149a2565b613513576040517f08c379a000000000000000000000000000000000000000000000000000000000815260040161350a90614c83565b60405180910390fd5b816003015485600401600082825461352b9190614ca3565b9250508190555084600a018260020160009054906101000a900473ffffffffffffffffffffffffffffffffffffffff169080600181540180825580915050600190039060005260206000200160009091909190916101000a81548173ffffffffffffffffffffffffffffffffffffffff021916908373ffffffffffffffffffffffffffffffffffffffff16021790555060018260050160016101000a81548160ff02191690831515021790555060008260050160006101000a81548160ff021916908315150217905550600085600401540361363c5760018560090160016101000a81548160ff02191690831515021790555060008560090160006101000a81548160ff0219169083151502179055505b8160020160009054906101000a900473ffffffffffffffffffffffffffffffffffffffff1673ffffffffffffffffffffffffffffffffffffffff1687877ffe1a51508fd66f0c643c905a33deb0134c8839827e44fb002f492f68ff519eb685600301546040516136ac9190613967565b60405180910390a450505050506136c161370b565b5050565b600260005403613701576040517f3ee5aeb500000000000000000000000000000000000000000000000000000000815260040160405180910390fd5b6002600081905550565b6001600081905550565b82805482825590600052602060002090810192821561378e579160200282015b8281111561378d5782518260006101000a81548173ffffffffffffffffffffffffffffffffffffffff021916908373ffffffffffffffffffffffffffffffffffffffff16021790555091602001919060010190613735565b5b50905061379b919061384f565b5090565b604051806101a0016040528060008152602001600073ffffffffffffffffffffffffffffffffffffffff168152602001600073ffffffffffffffffffffffffffffffffffffffff168152602001600081526020016000815260200160008152602001600073ffffffffffffffffffffffffffffffffffffffff1681526020016000815260200160008152602001600015158152602001600015158152602001600015158152602001606081525090565b5b80821115613868576000816000905550600101613850565b5090565b600080fd5b600073ffffffffffffffffffffffffffffffffffffffff82169050919050565b600061389c82613871565b9050919050565b6138ac81613891565b81146138b757600080fd5b50565b6000813590506138c9816138a3565b92915050565b6000819050919050565b6138e2816138cf565b81146138ed57600080fd5b50565b6000813590506138ff816138d9565b92915050565b60008060006060848603121561391e5761391d61386c565b5b600061392c868287016138ba565b935050602061393d868287016138f0565b925050604061394e868287016138f0565b9150509250925092565b613961816138cf565b82525050565b600060208201905061397c6000830184613958565b92915050565b600081519050919050565b600082825260208201905092915050565b6000819050602082019050919050565b6139b7816138cf565b82525050565b6139c681613891565b82525050565b60008115159050919050565b6139e1816139cc565b82525050565b600081519050919050565b600082825260208201905092915050565b6000819050602082019050919050565b6000613a1f83836139bd565b60208301905092915050565b6000602082019050919050565b6000613a43826139e7565b613a4d81856139f2565b9350613a5883613a03565b8060005b83811015613a89578151613a708882613a13565b9750613a7b83613a2b565b925050600181019050613a5c565b5085935050505092915050565b60006101a083016000830151613aaf60008601826139ae565b506020830151613ac260208601826139bd565b506040830151613ad560408601826139bd565b506060830151613ae860608601826139ae565b506080830151613afb60808601826139ae565b5060a0830151613b0e60a08601826139ae565b5060c0830151613b2160c08601826139bd565b5060e0830151613b3460e08601826139ae565b50610100830151613b496101008601826139ae565b50610120830151613b5e6101208601826139d8565b50610140830151613b736101408601826139d8565b50610160830151613b886101608601826139d8565b50610180830151848203610180860152613ba28282613a38565b9150508091505092915050565b6000613bbb8383613a96565b905092915050565b6000602082019050919050565b6000613bdb82613982565b613be5818561398d565b935083602082028501613bf78561399e565b8060005b85811015613c335784840389528151613c148582613baf565b9450613c1f83613bc3565b925060208a01995050600181019050613bfb565b50829750879550505050505092915050565b60006020820190508181036000830152613c5f8184613bd0565b905092915050565b600060208284031215613c7d57613c7c61386c565b5b6000613c8b848285016138f0565b91505092915050565b60006101a083016000830151613cad60008601826139ae565b506020830151613cc060208601826139bd565b506040830151613cd360408601826139bd565b506060830151613ce660608601826139ae565b506080830151613cf960808601826139ae565b5060a0830151613d0c60a08601826139ae565b5060c0830151613d1f60c08601826139bd565b5060e0830151613d3260e08601826139ae565b50610100830151613d476101008601826139ae565b50610120830151613d5c6101208601826139d8565b50610140830151613d716101408601826139d8565b50610160830151613d866101608601826139d8565b50610180830151848203610180860152613da08282613a38565b9150508091505092915050565b60006020820190508181036000830152613dc78184613c94565b905092915050565b60008060408385031215613de657613de561386c565b5b6000613df4858286016138f0565b9250506020613e05858286016138f0565b9150509250929050565b600060208284031215613e2557613e2461386c565b5b6000613e33848285016138ba565b91505092915050565b60008060408385031215613e5357613e5261386c565b5b6000613e61858286016138ba565b9250506020613e72858286016138f0565b9150509250929050565b600080600060608486031215613e9557613e9461386c565b5b6000613ea3868287016138f0565b9350506020613eb4868287016138ba565b9250506040613ec5868287016138f0565b9150509250925092565b600081519050919050565b600082825260208201905092915050565b6000819050602082019050919050565b61010082016000820151613f1260008501826139ae565b506020820151613f2560208501826139ae565b506040820151613f3860408501826139bd565b506060820151613f4b60608501826139ae565b506080820151613f5e60808501826139ae565b5060a0820151613f7160a08501826139d8565b5060c0820151613f8460c08501826139d8565b5060e0820151613f9760e08501826139d8565b50505050565b6000613fa98383613efb565b6101008301905092915050565b6000602082019050919050565b6000613fce82613ecf565b613fd88185613eda565b9350613fe383613eeb565b8060005b83811015614014578151613ffb8882613f9d565b975061400683613fb6565b925050600181019050613fe7565b5085935050505092915050565b6000602082019050818103600083015261403b8184613fc3565b905092915050565b600081519050919050565b600082825260208201905092915050565b6000819050602082019050919050565b600082825260208201905092915050565b600061408b82613ecf565b614095818561406f565b93506140a083613eeb565b8060005b838110156140d15781516140b88882613f9d565b97506140c383613fb6565b9250506001810190506140a4565b5085935050505092915050565b60006140ea8383614080565b905092915050565b6000602082019050919050565b600061410a82614043565b614114818561404e565b9350836020820285016141268561405f565b8060005b85811015614162578484038952815161414385826140de565b945061414e836140f2565b925060208a0199505060018101905061412a565b50829750879550505050505092915050565b6000604082019050818103600083015261418e8185613bd0565b905081810360208301526141a281846140ff565b90509392505050565b6141b481613891565b82525050565b6141c3816139cc565b82525050565b6000610180820190506141df600083018f613958565b6141ec602083018e6141ab565b6141f9604083018d6141ab565b614206606083018c613958565b614213608083018b613958565b61422060a083018a613958565b61422d60c08301896141ab565b61423a60e0830188613958565b614248610100830187613958565b6142566101208301866141ba565b6142646101408301856141ba565b6142726101608301846141ba565b9d9c50505050505050505050505050565b600061010082019050614299600083018b613958565b6142a6602083018a613958565b6142b360408301896141ab565b6142c06060830188613958565b6142cd6080830187613958565b6142da60a08301866141ba565b6142e760c08301856141ba565b6142f460e08301846141ba565b9998505050505050505050565b600082825260208201905092915050565b7f496e76616c696420746f6b656e20616464726573730000000000000000000000600082015250565b6000614348601583614301565b915061435382614312565b602082019050919050565b600060208201905081810360008301526143778161433b565b9050919050565b7f4e487b7100000000000000000000000000000000000000000000000000000000600052601160045260246000fd5b60006143b8826138cf565b91507fffffffffffffffffffffffffffffffffffffffffffffffffffffffffffffffff82036143ea576143e961437e565b5b600182019050919050565b7f4e487b7100000000000000000000000000000000000000000000000000000000600052604160045260246000fd5b600060408201905061443960008301856141ab565b6144466020830184613958565b9392505050565b7f4e487b7100000000000000000000000000000000000000000000000000000000600052603260045260246000fd5b7f496e76616c696420726571756573742049440000000000000000000000000000600082015250565b60006144b2601283614301565b91506144bd8261447c565b602082019050919050565b600060208201905081810360008301526144e1816144a5565b9050919050565b7f496e76616c6964206c6f616e2072657175657374204944000000000000000000600082015250565b600061451e601783614301565b9150614529826144e8565b602082019050919050565b6000602082019050818103600083015261454d81614511565b9050919050565b7f496e76616c69642070657263656e746167650000000000000000000000000000600082015250565b600061458a601283614301565b915061459582614554565b602082019050919050565b600060208201905081810360008301526145b98161457d565b9050919050565b7f4c6f616e2072657175657374206973206e6f7420616374697665206f7220616c60008201527f72656164792066756c6c792066756e6465640000000000000000000000000000602082015250565b600061461c603283614301565b9150614627826145c0565b604082019050919050565b6000602082019050818103600083015261464b8161460f565b9050919050565b600061465d826138cf565b9150614668836138cf565b9250828202614676816138cf565b9150828204841483151761468d5761468c61437e565b5b5092915050565b7f4e487b7100000000000000000000000000000000000000000000000000000000600052601260045260246000fd5b60006146ce826138cf565b91506146d9836138cf565b9250826146e9576146e8614694565b5b828204905092915050565b7f4f6666657220616d6f756e7420657863656564732072656d61696e696e67206160008201527f6d6f756e74000000000000000000000000000000000000000000000000000000602082015250565b6000614750602583614301565b915061475b826146f4565b604082019050919050565b6000602082019050818103600083015261477f81614743565b9050919050565b600060408201905061479b6000830185613958565b6147a86020830184613958565b9392505050565b7f4f6e6c792074686520626f72726f7765722063616e2063616e63656c2074686560008201527f206c6f616e207265717565737400000000000000000000000000000000000000602082015250565b600061480b602d83614301565b9150614816826147af565b604082019050919050565b6000602082019050818103600083015261483a816147fe565b9050919050565b7f4c6f616e2072657175657374206973206e6f7420616374697665000000000000600082015250565b6000614877601a83614301565b915061488282614841565b602082019050919050565b600060208201905081810360008301526148a68161486a565b9050919050565b7f43616e6e6f742063616e63656c20612066756c6c792066756e646564206c6f6160008201527f6e20726571756573740000000000000000000000000000000000000000000000602082015250565b6000614909602983614301565b9150614914826148ad565b604082019050919050565b60006020820190508181036000830152614938816148fc565b9050919050565b600060608201905061495460008301866141ab565b61496160208301856141ab565b61496e6040830184613958565b949350505050565b61497f816139cc565b811461498a57600080fd5b50565b60008151905061499c81614976565b92915050565b6000602082840312156149b8576149b761386c565b5b60006149c68482850161498d565b91505092915050565b7f4f6e6c792074686520626f72726f7765722063616e207265706179207468652060008201527f6c6f616e00000000000000000000000000000000000000000000000000000000602082015250565b6000614a2b602483614301565b9150614a36826149cf565b604082019050919050565b60006020820190508181036000830152614a5a81614a1e565b9050919050565b7f4c6f616e206973206e6f742066756c6c792066756e6465640000000000000000600082015250565b6000614a97601883614301565b9150614aa282614a61565b602082019050919050565b60006020820190508181036000830152614ac681614a8a565b9050919050565b7f4c6f616e2069732063616e63656c6c6564000000000000000000000000000000600082015250565b6000614b03601183614301565b9150614b0e82614acd565b602082019050919050565b60006020820190508181036000830152614b3281614af6565b9050919050565b7f4c6f616e20697320616c72656164792066756c6c792072657061696400000000600082015250565b6000614b6f601c83614301565b9150614b7a82614b39565b602082019050919050565b60006020820190508181036000830152614b9e81614b62565b9050919050565b7f52657061796d656e7420616d6f756e7420657863656564732072656d61696e6960008201527f6e6720616d6f756e740000000000000000000000000000000000000000000000602082015250565b6000614c01602983614301565b9150614c0c82614ba5565b604082019050919050565b60006020820190508181036000830152614c3081614bf4565b9050919050565b7f546f6b656e207472616e73666572206661696c65640000000000000000000000600082015250565b6000614c6d601583614301565b9150614c7882614c37565b602082019050919050565b60006020820190508181036000830152614c9c81614c60565b9050919050565b6000614cae826138cf565b9150614cb9836138cf565b9250828203905081811115614cd157614cd061437e565b5b92915050565b7f4c656e6465722072657061796d656e74207472616e73666572206661696c6564600082015250565b6000614d0d602083614301565b9150614d1882614cd7565b602082019050919050565b60006020820190508181036000830152614d3c81614d00565b9050919050565b7f4e6f742074686520626f72726f77657200000000000000000000000000000000600082015250565b6000614d79601083614301565b9150614d8482614d43565b602082019050919050565b60006020820190508181036000830152614da881614d6c565b9050919050565b7f436f6c6c61746572616c20616c72656164792073657400000000000000000000600082015250565b6000614de5601683614301565b9150614df082614daf565b602082019050919050565b60006020820190508181036000830152614e1481614dd8565b9050919050565b600081519050614e2a816138a3565b92915050565b600060208284031215614e4657614e4561386c565b5b6000614e5484828501614e1b565b91505092915050565b7f4e6f7420746865206f776e6572206f6620746865204e46540000000000000000600082015250565b6000614e93601883614301565b9150614e9e82614e5d565b602082019050919050565b60006020820190508181036000830152614ec281614e86565b9050919050565b6000819050919050565b6000819050919050565b6000614ef8614ef3614eee84614ec9565b614ed3565b6138cf565b9050919050565b614f0881614edd565b82525050565b6000606082019050614f2360008301866141ab565b614f306020830185613958565b614f3d6040830184614eff565b949350505050565b7f46756e64696e67206f66666572206e6f7420666f756e64000000000000000000600082015250565b6000614f7b601783614301565b9150614f8682614f45565b602082019050919050565b60006020820190508181036000830152614faa81614f6e565b9050919050565b7f4f6e6c79207468652066756e6465722063616e2063616e63656c20746865206f60008201527f6666657200000000000000000000000000000000000000000000000000000000602082015250565b600061500d602483614301565b915061501882614fb1565b604082019050919050565b6000602082019050818103600083015261503c81615000565b9050919050565b7f4f66666572206973206e6f742061637469766500000000000000000000000000600082015250565b6000615079601383614301565b915061508482615043565b602082019050919050565b600060208201905081810360008301526150a88161506c565b9050919050565b7f43616e6e6f742063616e63656c20616e206163636570746564206f6666657200600082015250565b60006150e5601f83614301565b91506150f0826150af565b602082019050919050565b60006020820190508181036000830152615114816150d8565b9050919050565b7f4f6666657220697320616c72656164792063616e63656c6c6564000000000000600082015250565b6000615151601a83614301565b915061515c8261511b565b602082019050919050565b6000602082019050818103600083015261518081615144565b9050919050565b600060208201905061519c60008301846141ab565b92915050565b6000815190506151b1816138d9565b92915050565b6000602082840312156151cd576151cc61386c565b5b60006151db848285016151a2565b91505092915050565b7f496e73756666696369656e7420746f6b656e2062616c616e6365000000000000600082015250565b600061521a601a83614301565b9150615225826151e4565b602082019050919050565b600060208201905081810360008301526152498161520d565b9050919050565b600060608201905061526560008301866141ab565b6152726020830185614eff565b61527f6040830184613958565b949350505050565b7f4f6e6c792074686520626f72726f7765722063616e206163636570742066756e60008201527f64696e67206f6666657273000000000000000000000000000000000000000000602082015250565b60006152e3602b83614301565b91506152ee82615287565b604082019050919050565b60006020820190508181036000830152615312816152d6565b9050919050565b7f46756e64696e67206f66666572206e6f7420666f756e64206f72206e6f74206160008201527f6374697665000000000000000000000000000000000000000000000000000000602082015250565b6000615375602583614301565b915061538082615319565b604082019050919050565b600060208201905081810360008301526153a481615368565b905091905056fea2646970667358221220cf46fb7dc7f72fe5ee8d2b5ea5c99e3c84e6e5cc500917e77adf9e4b787632a964736f6c634300081a0033",
  "linkReferences": {},
  "deployedLinkReferences": {}
}