{
  "_format": "hh-sol-artifact-1",
  "contractName": "PaymentContract",
  "sourceName": "contracts/PaymentContract.sol",
  "abi": [
    {
      "inputs": [],
      "name": "ReentrancyGuardReentrantCall",
      "type": "error"
    },
    {
      "anonymous": false,
      "inputs": [
        {
          "indexed": true,
          "internalType": "uint256",
          "name": "paymentId",
          "type": "uint256"
        }
      ],
      "name": "PaymentCancelled",
      "type": "event"
    },
    {
      "anonymous": false,
      "inputs": [
        {
          "indexed": true,
          "internalType": "uint256",
          "name": "paymentId",
          "type": "uint256"
        },
        {
          "indexed": true,
          "internalType": "address",
          "name": "sender",
          "type": "address"
        },
        {
          "indexed": true,
          "internalType": "address",
          "name": "recipient",
          "type": "address"
        },
        {
          "indexed": false,
          "internalType": "uint256",
          "name": "amount",
          "type": "uint256"
        }
      ],
      "name": "PaymentCreated",
      "type": "event"
    },
    {
      "anonymous": false,
      "inputs": [
        {
          "indexed": true,
          "internalType": "uint256",
          "name": "paymentId",
          "type": "uint256"
        }
      ],
      "name": "PaymentPaid",
      "type": "event"
    },
    {
      "inputs": [
        {
          "internalType": "uint256",
          "name": "_paymentId",
          "type": "uint256"
        }
      ],
      "name": "cancelPayment",
      "outputs": [],
      "stateMutability": "nonpayable",
      "type": "function"
    },
    {
      "inputs": [
        {
          "internalType": "address payable",
          "name": "_recipient",
          "type": "address"
        }
      ],
      "name": "createPayment",
      "outputs": [
        {
          "internalType": "uint256",
          "name": "",
          "type": "uint256"
        }
      ],
      "stateMutability": "payable",
      "type": "function"
    },
    {
      "inputs": [
        {
          "internalType": "uint256",
          "name": "_paymentId",
          "type": "uint256"
        }
      ],
      "name": "generatePaymentLink",
      "outputs": [
        {
          "internalType": "bytes32",
          "name": "",
          "type": "bytes32"
        }
      ],
      "stateMutability": "nonpayable",
      "type": "function"
    },
    {
      "inputs": [
        {
          "internalType": "bytes32",
          "name": "_link",
          "type": "bytes32"
        }
      ],
      "name": "payWithLink",
      "outputs": [],
      "stateMutability": "payable",
      "type": "function"
    },
    {
      "inputs": [
        {
          "internalType": "bytes32",
          "name": "",
          "type": "bytes32"
        }
      ],
      "name": "paymentLinks",
      "outputs": [
        {
          "internalType": "uint256",
          "name": "",
          "type": "uint256"
        }
      ],
      "stateMutability": "view",
      "type": "function"
    },
    {
      "inputs": [
        {
          "internalType": "uint256",
          "name": "",
          "type": "uint256"
        }
      ],
      "name": "payments",
      "outputs": [
        {
          "internalType": "uint256",
          "name": "id",
          "type": "uint256"
        },
        {
          "internalType": "address payable",
          "name": "sender",
          "type": "address"
        },
        {
          "internalType": "address payable",
          "name": "recipient",
          "type": "address"
        },
        {
          "internalType": "uint256",
          "name": "amount",
          "type": "uint256"
        },
        {
          "internalType": "bool",
          "name": "isPaid",
          "type": "bool"
        },
        {
          "internalType": "bool",
          "name": "isCancelled",
          "type": "bool"
        }
      ],
      "stateMutability": "view",
      "type": "function"
    }
  ],
  "bytecode": "0x6080604052348015600f57600080fd5b50600160008190555061117c806100276000396000f3fe6080604052600436106100555760003560e01c80636968d7141461005a5780638422927d1461009757806387d81789146100c0578063d4d0a3f714610102578063e93512e21461013f578063f53546ed1461016f575b600080fd5b34801561006657600080fd5b50610081600480360381019061007c9190610aa6565b61018b565b60405161008e9190610aec565b60405180910390f35b3480156100a357600080fd5b506100be60048036038101906100b99190610aa6565b610312565b005b3480156100cc57600080fd5b506100e760048036038101906100e29190610aa6565b610513565b6040516100f996959493929190610b72565b60405180910390f35b34801561010e57600080fd5b5061012960048036038101906101249190610bff565b6105a9565b6040516101369190610c2c565b60405180910390f35b61015960048036038101906101549190610c73565b6105c1565b6040516101669190610c2c565b60405180910390f35b61018960048036038101906101849190610bff565b6107ea565b005b60003373ffffffffffffffffffffffffffffffffffffffff166002600084815260200190815260200160002060010160009054906101000a900473ffffffffffffffffffffffffffffffffffffffff1673ffffffffffffffffffffffffffffffffffffffff1614610231576040517f08c379a000000000000000000000000000000000000000000000000000000000815260040161022890610d23565b60405180910390fd5b6002600083815260200190815260200160002060040160009054906101000a900460ff1615801561028357506002600083815260200190815260200160002060040160019054906101000a900460ff16155b6102c2576040517f08c379a00000000000000000000000000000000000000000000000000000000081526004016102b990610d8f565b60405180910390fd5b60008242336040516020016102d993929190610e2a565b60405160208183030381529060405280519060200120905082600360008381526020019081526020016000208190555080915050919050565b61031a610a1b565b3373ffffffffffffffffffffffffffffffffffffffff166002600083815260200190815260200160002060010160009054906101000a900473ffffffffffffffffffffffffffffffffffffffff1673ffffffffffffffffffffffffffffffffffffffff16146103be576040517f08c379a00000000000000000000000000000000000000000000000000000000081526004016103b590610ed9565b60405180910390fd5b6002600082815260200190815260200160002060040160009054906101000a900460ff1615801561041057506002600082815260200190815260200160002060040160019054906101000a900460ff16155b61044f576040517f08c379a000000000000000000000000000000000000000000000000000000000815260040161044690610d8f565b60405180910390fd5b60016002600083815260200190815260200160002060040160016101000a81548160ff0219169083151502179055503373ffffffffffffffffffffffffffffffffffffffff166108fc60026000848152602001908152602001600020600301549081150290604051600060405180830381858888f193505050501580156104da573d6000803e3d6000fd5b50807fb85e553db1cc947378f2f2d6071d3e64a20a8d3896fee3d15a5087372164e97c60405160405180910390a2610510610a61565b50565b60026020528060005260406000206000915090508060000154908060010160009054906101000a900473ffffffffffffffffffffffffffffffffffffffff16908060020160009054906101000a900473ffffffffffffffffffffffffffffffffffffffff16908060030154908060040160009054906101000a900460ff16908060040160019054906101000a900460ff16905086565b60036020528060005260406000206000915090505481565b6000803411610605576040517f08c379a00000000000000000000000000000000000000000000000000000000081526004016105fc90610f6b565b60405180910390fd5b6001600081548092919061061890610fba565b9190505550600060015490506040518060c001604052808281526020013373ffffffffffffffffffffffffffffffffffffffff1681526020018473ffffffffffffffffffffffffffffffffffffffff16815260200134815260200160001515815260200160001515815250600260008381526020019081526020016000206000820151816000015560208201518160010160006101000a81548173ffffffffffffffffffffffffffffffffffffffff021916908373ffffffffffffffffffffffffffffffffffffffff16021790555060408201518160020160006101000a81548173ffffffffffffffffffffffffffffffffffffffff021916908373ffffffffffffffffffffffffffffffffffffffff1602179055506060820151816003015560808201518160040160006101000a81548160ff02191690831515021790555060a08201518160040160016101000a81548160ff0219169083151502179055509050508273ffffffffffffffffffffffffffffffffffffffff163373ffffffffffffffffffffffffffffffffffffffff16827fbca8aeacf1f38658b18930496eecdc82575bb54ced59ae5ddea3c2a221bc19aa346040516107d99190610c2c565b60405180910390a480915050919050565b6107f2610a1b565b6000600360008381526020019081526020016000205490506000810361084d576040517f08c379a00000000000000000000000000000000000000000000000000000000081526004016108449061104e565b60405180910390fd5b6002600082815260200190815260200160002060040160009054906101000a900460ff1615801561089f57506002600082815260200190815260200160002060040160019054906101000a900460ff16155b6108de576040517f08c379a00000000000000000000000000000000000000000000000000000000081526004016108d5906110ba565b60405180910390fd5b60026000828152602001908152602001600020600301543414610936576040517f08c379a000000000000000000000000000000000000000000000000000000000815260040161092d90611126565b60405180910390fd5b60016002600083815260200190815260200160002060040160006101000a81548160ff0219169083151502179055506002600082815260200190815260200160002060020160009054906101000a900473ffffffffffffffffffffffffffffffffffffffff1673ffffffffffffffffffffffffffffffffffffffff166108fc349081150290604051600060405180830381858888f193505050501580156109e1573d6000803e3d6000fd5b50807f0bcc328b58d53b2497e1782ac791ca34d97b6913d0c00652c916aa1c5c93386e60405160405180910390a250610a18610a61565b50565b600260005403610a57576040517f3ee5aeb500000000000000000000000000000000000000000000000000000000815260040160405180910390fd5b6002600081905550565b6001600081905550565b600080fd5b6000819050919050565b610a8381610a70565b8114610a8e57600080fd5b50565b600081359050610aa081610a7a565b92915050565b600060208284031215610abc57610abb610a6b565b5b6000610aca84828501610a91565b91505092915050565b6000819050919050565b610ae681610ad3565b82525050565b6000602082019050610b016000830184610add565b92915050565b610b1081610a70565b82525050565b600073ffffffffffffffffffffffffffffffffffffffff82169050919050565b6000610b4182610b16565b9050919050565b610b5181610b36565b82525050565b60008115159050919050565b610b6c81610b57565b82525050565b600060c082019050610b876000830189610b07565b610b946020830188610b48565b610ba16040830187610b48565b610bae6060830186610b07565b610bbb6080830185610b63565b610bc860a0830184610b63565b979650505050505050565b610bdc81610ad3565b8114610be757600080fd5b50565b600081359050610bf981610bd3565b92915050565b600060208284031215610c1557610c14610a6b565b5b6000610c2384828501610bea565b91505092915050565b6000602082019050610c416000830184610b07565b92915050565b610c5081610b36565b8114610c5b57600080fd5b50565b600081359050610c6d81610c47565b92915050565b600060208284031215610c8957610c88610a6b565b5b6000610c9784828501610c5e565b91505092915050565b600082825260208201905092915050565b7f4f6e6c79207468652073656e6465722063616e2067656e65726174652061207060008201527f61796d656e74206c696e6b000000000000000000000000000000000000000000602082015250565b6000610d0d602b83610ca0565b9150610d1882610cb1565b604082019050919050565b60006020820190508181036000830152610d3c81610d00565b9050919050565b7f5061796d656e74206d7573742062652061637469766500000000000000000000600082015250565b6000610d79601683610ca0565b9150610d8482610d43565b602082019050919050565b60006020820190508181036000830152610da881610d6c565b9050919050565b6000819050919050565b610dca610dc582610a70565b610daf565b82525050565b6000610ddb82610b16565b9050919050565b60008160601b9050919050565b6000610dfa82610de2565b9050919050565b6000610e0c82610def565b9050919050565b610e24610e1f82610dd0565b610e01565b82525050565b6000610e368286610db9565b602082019150610e468285610db9565b602082019150610e568284610e13565b601482019150819050949350505050565b7f4f6e6c79207468652073656e6465722063616e2063616e63656c20746865207060008201527f61796d656e740000000000000000000000000000000000000000000000000000602082015250565b6000610ec3602683610ca0565b9150610ece82610e67565b604082019050919050565b60006020820190508181036000830152610ef281610eb6565b9050919050565b7f5061796d656e7420616d6f756e74206d7573742062652067726561746572207460008201527f68616e2030000000000000000000000000000000000000000000000000000000602082015250565b6000610f55602583610ca0565b9150610f6082610ef9565b604082019050919050565b60006020820190508181036000830152610f8481610f48565b9050919050565b7f4e487b7100000000000000000000000000000000000000000000000000000000600052601160045260246000fd5b6000610fc582610a70565b91507fffffffffffffffffffffffffffffffffffffffffffffffffffffffffffffffff8203610ff757610ff6610f8b565b5b600182019050919050565b7f496e76616c6964207061796d656e74206c696e6b000000000000000000000000600082015250565b6000611038601483610ca0565b915061104382611002565b602082019050919050565b600060208201905081810360008301526110678161102b565b9050919050565b7f5061796d656e74206973206e6f206c6f6e676572206163746976650000000000600082015250565b60006110a4601b83610ca0565b91506110af8261106e565b602082019050919050565b600060208201905081810360008301526110d381611097565b9050919050565b7f496e636f7272656374207061796d656e7420616d6f756e740000000000000000600082015250565b6000611110601883610ca0565b915061111b826110da565b602082019050919050565b6000602082019050818103600083015261113f81611103565b905091905056fea2646970667358221220a90f158790de5d83febe46a6658e7644a30164e04a7aec29f9d3dd907a4bf41864736f6c634300081a0033",
  "linkReferences": {},
  "deployedLinkReferences": {}
}