{
  "_format": "hh-sol-artifact-1",
  "contractName": "PaymentContract",
  "sourceName": "contracts/PaymentContract.sol",
  "abi": [
    {
      "inputs": [],
      "name": "ReentrancyGuardReentrantCall",
      "type": "error"
    },
    {
      "anonymous": false,
      "inputs": [
        {
          "indexed": true,
          "internalType": "uint256",
          "name": "paymentId",
          "type": "uint256"
        }
      ],
      "name": "PaymentCancelled",
      "type": "event"
    },
    {
      "anonymous": false,
      "inputs": [
        {
          "indexed": true,
          "internalType": "uint256",
          "name": "paymentId",
          "type": "uint256"
        },
        {
          "indexed": true,
          "internalType": "address",
          "name": "sender",
          "type": "address"
        },
        {
          "indexed": true,
          "internalType": "address",
          "name": "recipient",
          "type": "address"
        },
        {
          "indexed": false,
          "internalType": "uint256",
          "name": "amount",
          "type": "uint256"
        }
      ],
      "name": "PaymentCreated",
      "type": "event"
    },
    {
      "anonymous": false,
      "inputs": [
        {
          "indexed": true,
          "internalType": "uint256",
          "name": "paymentId",
          "type": "uint256"
        }
      ],
      "name": "PaymentPaid",
      "type": "event"
    },
    {
      "anonymous": false,
      "inputs": [
        {
          "indexed": true,
          "internalType": "bytes32",
          "name": "requestId",
          "type": "bytes32"
        },
        {
          "indexed": true,
          "internalType": "address",
          "name": "recipient",
          "type": "address"
        },
        {
          "indexed": false,
          "internalType": "uint256",
          "name": "amount",
          "type": "uint256"
        }
      ],
      "name": "PaymentRequestCreated",
      "type": "event"
    },
    {
      "inputs": [
        {
          "internalType": "address payable",
          "name": "_recipient",
          "type": "address"
        }
      ],
      "name": "createPayment",
      "outputs": [
        {
          "internalType": "uint256",
          "name": "",
          "type": "uint256"
        }
      ],
      "stateMutability": "payable",
      "type": "function"
    },
    {
      "inputs": [
        {
          "internalType": "uint256",
          "name": "amount",
          "type": "uint256"
        }
      ],
      "name": "createPaymentRequest",
      "outputs": [
        {
          "internalType": "bytes32",
          "name": "",
          "type": "bytes32"
        }
      ],
      "stateMutability": "nonpayable",
      "type": "function"
    },
    {
      "inputs": [
        {
          "internalType": "bytes32",
          "name": "requestId",
          "type": "bytes32"
        }
      ],
      "name": "payWithLink",
      "outputs": [],
      "stateMutability": "payable",
      "type": "function"
    },
    {
      "inputs": [
        {
          "internalType": "bytes32",
          "name": "",
          "type": "bytes32"
        }
      ],
      "name": "paymentLinks",
      "outputs": [
        {
          "internalType": "uint256",
          "name": "",
          "type": "uint256"
        }
      ],
      "stateMutability": "view",
      "type": "function"
    },
    {
      "inputs": [
        {
          "internalType": "uint256",
          "name": "",
          "type": "uint256"
        }
      ],
      "name": "payments",
      "outputs": [
        {
          "internalType": "uint256",
          "name": "id",
          "type": "uint256"
        },
        {
          "internalType": "address payable",
          "name": "sender",
          "type": "address"
        },
        {
          "internalType": "address payable",
          "name": "recipient",
          "type": "address"
        },
        {
          "internalType": "uint256",
          "name": "amount",
          "type": "uint256"
        },
        {
          "internalType": "bool",
          "name": "isPaid",
          "type": "bool"
        },
        {
          "internalType": "bool",
          "name": "isCancelled",
          "type": "bool"
        }
      ],
      "stateMutability": "view",
      "type": "function"
    }
  ],
  "bytecode": "0x6080604052348015600f57600080fd5b506001600081905550610e71806100276000396000f3fe60806040526004361061004a5760003560e01c806387d817891461004f578063bb6b7da414610091578063d4d0a3f7146100ce578063e93512e21461010b578063f53546ed1461013b575b600080fd5b34801561005b57600080fd5b506100766004803603810190610071919061091a565b610157565b604051610088969594939291906109b2565b60405180910390f35b34801561009d57600080fd5b506100b860048036038101906100b3919061091a565b6101ed565b6040516100c59190610a2c565b60405180910390f35b3480156100da57600080fd5b506100f560048036038101906100f09190610a73565b610408565b6040516101029190610aa0565b60405180910390f35b61012560048036038101906101209190610ae7565b610420565b6040516101329190610aa0565b60405180910390f35b61015560048036038101906101509190610a73565b6106bd565b005b60026020528060005260406000206000915090508060000154908060010160009054906101000a900473ffffffffffffffffffffffffffffffffffffffff16908060020160009054906101000a900473ffffffffffffffffffffffffffffffffffffffff16908060030154908060040160009054906101000a900460ff16908060040160019054906101000a900460ff16905086565b60006001600081548092919061020290610b43565b919050555060006001543384426040516020016102229493929190610c06565b6040516020818303038152906040528051906020012090506040518060c001604052806001548152602001600073ffffffffffffffffffffffffffffffffffffffff1681526020013373ffffffffffffffffffffffffffffffffffffffff168152602001848152602001600015158152602001600015158152506002600060015481526020019081526020016000206000820151816000015560208201518160010160006101000a81548173ffffffffffffffffffffffffffffffffffffffff021916908373ffffffffffffffffffffffffffffffffffffffff16021790555060408201518160020160006101000a81548173ffffffffffffffffffffffffffffffffffffffff021916908373ffffffffffffffffffffffffffffffffffffffff1602179055506060820151816003015560808201518160040160006101000a81548160ff02191690831515021790555060a08201518160040160016101000a81548160ff02191690831515021790555090505060015460036000838152602001908152602001600020819055503373ffffffffffffffffffffffffffffffffffffffff16817f6301547a36ebce9a02638388a91f7bef0b8b27168c1709ce8f5748ace4aa0fdf856040516103f79190610aa0565b60405180910390a380915050919050565b60036020528060005260406000206000915090505481565b6000803411610464576040517f08c379a000000000000000000000000000000000000000000000000000000000815260040161045b90610cd7565b60405180910390fd5b6001600081548092919061047790610b43565b9190505550600060015490506040518060c001604052808281526020013373ffffffffffffffffffffffffffffffffffffffff1681526020018473ffffffffffffffffffffffffffffffffffffffff16815260200134815260200160011515815260200160001515815250600260008381526020019081526020016000206000820151816000015560208201518160010160006101000a81548173ffffffffffffffffffffffffffffffffffffffff021916908373ffffffffffffffffffffffffffffffffffffffff16021790555060408201518160020160006101000a81548173ffffffffffffffffffffffffffffffffffffffff021916908373ffffffffffffffffffffffffffffffffffffffff1602179055506060820151816003015560808201518160040160006101000a81548160ff02191690831515021790555060a08201518160040160016101000a81548160ff0219169083151502179055509050508273ffffffffffffffffffffffffffffffffffffffff166108fc349081150290604051600060405180830381858888f19350505050158015610620573d6000803e3d6000fd5b508273ffffffffffffffffffffffffffffffffffffffff163373ffffffffffffffffffffffffffffffffffffffff16827fbca8aeacf1f38658b18930496eecdc82575bb54ced59ae5ddea3c2a221bc19aa3460405161067f9190610aa0565b60405180910390a4807f0bcc328b58d53b2497e1782ac791ca34d97b6913d0c00652c916aa1c5c93386e60405160405180910390a280915050919050565b60006003600083815260200190815260200160002054905060008103610718576040517f08c379a000000000000000000000000000000000000000000000000000000000815260040161070f90610d43565b60405180910390fd5b60006002600083815260200190815260200160002090508060040160009054906101000a900460ff1615801561075d57508060040160019054906101000a900460ff16155b61079c576040517f08c379a000000000000000000000000000000000000000000000000000000000815260040161079390610daf565b60405180910390fd5b806003015434146107e2576040517f08c379a00000000000000000000000000000000000000000000000000000000081526004016107d990610e1b565b60405180910390fd5b338160010160006101000a81548173ffffffffffffffffffffffffffffffffffffffff021916908373ffffffffffffffffffffffffffffffffffffffff16021790555060018160040160006101000a81548160ff0219169083151502179055508060020160009054906101000a900473ffffffffffffffffffffffffffffffffffffffff1673ffffffffffffffffffffffffffffffffffffffff166108fc349081150290604051600060405180830381858888f193505050501580156108ac573d6000803e3d6000fd5b50817f0bcc328b58d53b2497e1782ac791ca34d97b6913d0c00652c916aa1c5c93386e60405160405180910390a2505050565b600080fd5b6000819050919050565b6108f7816108e4565b811461090257600080fd5b50565b600081359050610914816108ee565b92915050565b6000602082840312156109305761092f6108df565b5b600061093e84828501610905565b91505092915050565b610950816108e4565b82525050565b600073ffffffffffffffffffffffffffffffffffffffff82169050919050565b600061098182610956565b9050919050565b61099181610976565b82525050565b60008115159050919050565b6109ac81610997565b82525050565b600060c0820190506109c76000830189610947565b6109d46020830188610988565b6109e16040830187610988565b6109ee6060830186610947565b6109fb60808301856109a3565b610a0860a08301846109a3565b979650505050505050565b6000819050919050565b610a2681610a13565b82525050565b6000602082019050610a416000830184610a1d565b92915050565b610a5081610a13565b8114610a5b57600080fd5b50565b600081359050610a6d81610a47565b92915050565b600060208284031215610a8957610a886108df565b5b6000610a9784828501610a5e565b91505092915050565b6000602082019050610ab56000830184610947565b92915050565b610ac481610976565b8114610acf57600080fd5b50565b600081359050610ae181610abb565b92915050565b600060208284031215610afd57610afc6108df565b5b6000610b0b84828501610ad2565b91505092915050565b7f4e487b7100000000000000000000000000000000000000000000000000000000600052601160045260246000fd5b6000610b4e826108e4565b91507fffffffffffffffffffffffffffffffffffffffffffffffffffffffffffffffff8203610b8057610b7f610b14565b5b600182019050919050565b6000819050919050565b610ba6610ba1826108e4565b610b8b565b82525050565b6000610bb782610956565b9050919050565b60008160601b9050919050565b6000610bd682610bbe565b9050919050565b6000610be882610bcb565b9050919050565b610c00610bfb82610bac565b610bdd565b82525050565b6000610c128287610b95565b602082019150610c228286610bef565b601482019150610c328285610b95565b602082019150610c428284610b95565b60208201915081905095945050505050565b600082825260208201905092915050565b7f5061796d656e7420616d6f756e74206d7573742062652067726561746572207460008201527f68616e2030000000000000000000000000000000000000000000000000000000602082015250565b6000610cc1602583610c54565b9150610ccc82610c65565b604082019050919050565b60006020820190508181036000830152610cf081610cb4565b9050919050565b7f496e76616c6964207061796d656e742072657175657374000000000000000000600082015250565b6000610d2d601783610c54565b9150610d3882610cf7565b602082019050919050565b60006020820190508181036000830152610d5c81610d20565b9050919050565b7f5061796d656e7420616c72656164792070726f63657373656400000000000000600082015250565b6000610d99601983610c54565b9150610da482610d63565b602082019050919050565b60006020820190508181036000830152610dc881610d8c565b9050919050565b7f496e636f7272656374207061796d656e7420616d6f756e740000000000000000600082015250565b6000610e05601883610c54565b9150610e1082610dcf565b602082019050919050565b60006020820190508181036000830152610e3481610df8565b905091905056fea2646970667358221220450fb6b2a396692167e4977685c9f1839b55a8c60dae4bc85295ef75668a073064736f6c634300081a0033",
  "linkReferences": {},
  "deployedLinkReferences": {}
}